{
  "_format": "hh-sol-artifact-1",
  "contractName": "ColorPalette",
  "sourceName": "contracts/ColorPalette.sol",
  "abi": [
    {
      "inputs": [],
      "stateMutability": "nonpayable",
      "type": "constructor"
    },
    {
      "anonymous": false,
      "inputs": [
        {
          "indexed": true,
          "internalType": "address",
          "name": "previousOwner",
          "type": "address"
        },
        {
          "indexed": true,
          "internalType": "address",
          "name": "newOwner",
          "type": "address"
        }
      ],
      "name": "OwnershipTransferred",
      "type": "event"
    },
    {
      "inputs": [
        {
          "internalType": "string[]",
          "name": "colors",
          "type": "string[]"
        }
      ],
      "name": "addColorPalette",
      "outputs": [],
      "stateMutability": "nonpayable",
      "type": "function"
    },
    {
      "inputs": [
        {
          "internalType": "string[][]",
          "name": "colorPalette",
          "type": "string[][]"
        }
      ],
      "name": "addColorPalettes",
      "outputs": [],
      "stateMutability": "nonpayable",
      "type": "function"
    },
    {
      "inputs": [
        {
          "internalType": "uint256",
          "name": "i",
          "type": "uint256"
        },
        {
          "internalType": "uint256",
          "name": "j",
          "type": "uint256"
        }
      ],
      "name": "getColor",
      "outputs": [
        {
          "internalType": "string",
          "name": "",
          "type": "string"
        }
      ],
      "stateMutability": "view",
      "type": "function"
    },
    {
      "inputs": [
        {
          "internalType": "uint256",
          "name": "i",
          "type": "uint256"
        }
      ],
      "name": "getColorpalette",
      "outputs": [
        {
          "internalType": "string[]",
          "name": "",
          "type": "string[]"
        }
      ],
      "stateMutability": "view",
      "type": "function"
    },
    {
      "inputs": [],
      "name": "getPaletteSize",
      "outputs": [
        {
          "internalType": "uint256",
          "name": "",
          "type": "uint256"
        }
      ],
      "stateMutability": "view",
      "type": "function"
    },
    {
      "inputs": [],
      "name": "owner",
      "outputs": [
        {
          "internalType": "address",
          "name": "",
          "type": "address"
        }
      ],
      "stateMutability": "view",
      "type": "function"
    },
    {
      "inputs": [],
      "name": "renounceOwnership",
      "outputs": [],
      "stateMutability": "nonpayable",
      "type": "function"
    },
    {
      "inputs": [
        {
          "internalType": "address",
          "name": "newOwner",
          "type": "address"
        }
      ],
      "name": "transferOwnership",
      "outputs": [],
      "stateMutability": "nonpayable",
      "type": "function"
    }
  ],
  "bytecode": "0x60806040526040518061014001604052806040518060a001604052806040518060400160405280600781526020017f233639643265370000000000000000000000000000000000000000000000000081525081526020016040518060400160405280600781526020017f236137646264380000000000000000000000000000000000000000000000000081525081526020016040518060400160405280600781526020017f236530653463630000000000000000000000000000000000000000000000000081525081526020016040518060400160405280600781526020017f236633383633300000000000000000000000000000000000000000000000000081525081526020016040518060400160405280600781526020017f236661363930300000000000000000000000000000000000000000000000000081525081525081526020016040518060a001604052806040518060400160405280600781526020017f236665343336350000000000000000000000000000000000000000000000000081525081526020016040518060400160405280600781526020017f236663396439610000000000000000000000000000000000000000000000000081525081526020016040518060400160405280600781526020017f236639636461640000000000000000000000000000000000000000000000000081525081526020016040518060400160405280600781526020017f236338633861390000000000000000000000000000000000000000000000000081525081526020016040518060400160405280600781526020017f233833616639620000000000000000000000000000000000000000000000000081525081525081526020016040518060a001604052806040518060400160405280600781526020017f236563643037380000000000000000000000000000000000000000000000000081525081526020016040518060400160405280600781526020017f236439356234330000000000000000000000000000000000000000000000000081525081526020016040518060400160405280600781526020017f236330323934320000000000000000000000000000000000000000000000000081525081526020016040518060400160405280600781526020017f233534323433370000000000000000000000000000000000000000000000000081525081526020016040518060400160405280600781526020017f233533373737610000000000000000000000000000000000000000000000000081525081525081526020016040518060a001604052806040518060400160405280600781526020017f233535363237300000000000000000000000000000000000000000000000000081525081526020016040518060400160405280600781526020017f233465636463340000000000000000000000000000000000000000000000000081525081526020016040518060400160405280600781526020017f236337663436340000000000000000000000000000000000000000000000000081525081526020016040518060400160405280600781526020017f236666366236620000000000000000000000000000000000000000000000000081525081526020016040518060400160405280600781526020017f236334346435380000000000000000000000000000000000000000000000000081525081525081526020016040518060a001604052806040518060400160405280600781526020017f233737346633380000000000000000000000000000000000000000000000000081525081526020016040518060400160405280600781526020017f236530386537390000000000000000000000000000000000000000000000000081525081526020016040518060400160405280600781526020017f236631643461660000000000000000000000000000000000000000000000000081525081526020016040518060400160405280600781526020017f236563653563650000000000000000000000000000000000000000000000000081525081526020016040518060400160405280600781526020017f236335653064630000000000000000000000000000000000000000000000000081525081525081526020016040518060a001604052806040518060400160405280600781526020017f236538646463620000000000000000000000000000000000000000000000000081525081526020016040518060400160405280600781526020017f236364623338300000000000000000000000000000000000000000000000000081525081526020016040518060400160405280600781526020017f233033363536340000000000000000000000000000000000000000000000000081525081526020016040518060400160405280600781526020017f233033333634390000000000000000000000000000000000000000000000000081525081526020016040518060400160405280600781526020017f233033313633340000000000000000000000000000000000000000000000000081525081525081526020016040518060a001604052806040518060400160405280600781526020017f233439306133640000000000000000000000000000000000000000000000000081525081526020016040518060400160405280600781526020017f236264313535300000000000000000000000000000000000000000000000000081525081526020016040518060400160405280600781526020017f236539376630320000000000000000000000000000000000000000000000000081525081526020016040518060400160405280600781526020017f236638636130300000000000000000000000000000000000000000000000000081525081526020016040518060400160405280600781526020017f233861396230660000000000000000000000000000000000000000000000000081525081525081526020016040518060a001604052806040518060400160405280600781526020017f233539346634660000000000000000000000000000000000000000000000000081525081526020016040518060400160405280600781526020017f233534373938300000000000000000000000000000000000000000000000000081525081526020016040518060400160405280600781526020017f233435616461380000000000000000000000000000000000000000000000000081525081526020016040518060400160405280600781526020017f233964653061640000000000000000000000000000000000000000000000000081525081526020016040518060400160405280600781526020017f236535666363320000000000000000000000000000000000000000000000000081525081525081526020016040518060a001604052806040518060400160405280600781526020017f233030613062300000000000000000000000000000000000000000000000000081525081526020016040518060400160405280600781526020017f233661346133630000000000000000000000000000000000000000000000000081525081526020016040518060400160405280600781526020017f236363333333660000000000000000000000000000000000000000000000000081525081526020016040518060400160405280600781526020017f236562363834310000000000000000000000000000000000000000000000000081525081526020016040518060400160405280600781526020017f236564633935310000000000000000000000000000000000000000000000000081525081525081526020016040518060a001604052806040518060400160405280600781526020017f236539346537370000000000000000000000000000000000000000000000000081525081526020016040518060400160405280600781526020017f236436383138390000000000000000000000000000000000000000000000000081525081526020016040518060400160405280600781526020017f236336613439610000000000000000000000000000000000000000000000000081525081526020016040518060400160405280600781526020017f236336653564390000000000000000000000000000000000000000000000000081525081526020016040518060400160405280600781526020017f2366346561643500000000000000000000000000000000000000000000000000815250815250815250600190600a62000c3292919062000d33565b5034801562000c4057600080fd5b5062000c6162000c5562000c6760201b60201c565b62000c6f60201b60201c565b62000fca565b600033905090565b60008060009054906101000a900473ffffffffffffffffffffffffffffffffffffffff169050816000806101000a81548173ffffffffffffffffffffffffffffffffffffffff021916908373ffffffffffffffffffffffffffffffffffffffff1602179055508173ffffffffffffffffffffffffffffffffffffffff168173ffffffffffffffffffffffffffffffffffffffff167f8be0079c531659141344cd1fd0a4f28419497f9722a3daafe3b4186f6b6457e060405160405180910390a35050565b82805482825590600052602060002090810192821562000d82579160200282015b8281111562000d815782518290600562000d7092919062000d95565b509160200191906001019062000d54565b5b50905062000d91919062000dfc565b5090565b82805482825590600052602060002090810192821562000de9579160200282015b8281111562000de857825182908051906020019062000dd792919062000e24565b509160200191906001019062000db6565b5b50905062000df8919062000eb5565b5090565b5b8082111562000e20576000818162000e16919062000edd565b5060010162000dfd565b5090565b82805462000e329062000f65565b90600052602060002090601f01602090048101928262000e56576000855562000ea2565b82601f1062000e7157805160ff191683800117855562000ea2565b8280016001018555821562000ea2579182015b8281111562000ea157825182559160200191906001019062000e84565b5b50905062000eb1919062000f00565b5090565b5b8082111562000ed9576000818162000ecf919062000f1f565b5060010162000eb6565b5090565b508054600082559060005260206000209081019062000efd919062000eb5565b50565b5b8082111562000f1b57600081600090555060010162000f01565b5090565b50805462000f2d9062000f65565b6000825580601f1062000f41575062000f62565b601f01602090049060005260206000209081019062000f61919062000f00565b5b50565b6000600282049050600182168062000f7e57607f821691505b6020821081141562000f955762000f9462000f9b565b5b50919050565b7f4e487b7100000000000000000000000000000000000000000000000000000000600052602260045260246000fd5b6112658062000fda6000396000f3fe608060405234801561001057600080fd5b50600436106100885760003560e01c80638da5cb5b1161005b5780638da5cb5b146100ff578063d32c196b1461011d578063eded5d9e1461013b578063f2fde38b1461016b57610088565b806304c362f21461008d578063715018a6146100bd57806371a9ff5b146100c7578063754e64d4146100e3575b600080fd5b6100a760048036038101906100a29190610c2f565b610187565b6040516100b49190610e0e565b60405180910390f35b6100c56102aa565b005b6100e160048036038101906100dc9190610bee565b610332565b005b6100fd60048036038101906100f89190610bad565b6103ed565b005b6101076104d5565b6040516101149190610df3565b60405180910390f35b6101256104fe565b6040516101329190610e92565b60405180910390f35b61015560048036038101906101509190610c58565b61054e565b6040516101629190610e30565b60405180910390f35b61018560048036038101906101809190610b84565b610667565b005b60606000600183815481106101c5577f4e487b7100000000000000000000000000000000000000000000000000000000600052603260045260246000fd5b90600052602060002001805480602002602001604051908101604052809291908181526020016000905b8282101561029b57838290600052602060002001805461020e9061103f565b80601f016020809104026020016040519081016040528092919081815260200182805461023a9061103f565b80156102875780601f1061025c57610100808354040283529160200191610287565b820191906000526020600020905b81548152906001019060200180831161026a57829003601f168201915b5050505050815260200190600101906101ef565b50505050905080915050919050565b6102b261075f565b73ffffffffffffffffffffffffffffffffffffffff166102d06104d5565b73ffffffffffffffffffffffffffffffffffffffff1614610326576040517f08c379a000000000000000000000000000000000000000000000000000000000815260040161031d90610e72565b60405180910390fd5b6103306000610767565b565b61033a61075f565b73ffffffffffffffffffffffffffffffffffffffff166103586104d5565b73ffffffffffffffffffffffffffffffffffffffff16146103ae576040517f08c379a00000000000000000000000000000000000000000000000000000000081526004016103a590610e72565b60405180910390fd5b6001819080600181540180825580915050600190039060005260206000200160009091909190915090805190602001906103e992919061082b565b5050565b6103f561075f565b73ffffffffffffffffffffffffffffffffffffffff166104136104d5565b73ffffffffffffffffffffffffffffffffffffffff1614610469576040517f08c379a000000000000000000000000000000000000000000000000000000000815260040161046090610e72565b60405180910390fd5b60005b81518110156104d1576104be8282815181106104b1577f4e487b7100000000000000000000000000000000000000000000000000000000600052603260045260246000fd5b6020026020010151610332565b80806104c9906110a2565b91505061046c565b5050565b60008060009054906101000a900473ffffffffffffffffffffffffffffffffffffffff16905090565b6000600160008154811061053b577f4e487b7100000000000000000000000000000000000000000000000000000000600052603260045260246000fd5b9060005260206000200180549050905090565b60606001838154811061058a577f4e487b7100000000000000000000000000000000000000000000000000000000600052603260045260246000fd5b9060005260206000200182815481106105cc577f4e487b7100000000000000000000000000000000000000000000000000000000600052603260045260246000fd5b9060005260206000200180546105e19061103f565b80601f016020809104026020016040519081016040528092919081815260200182805461060d9061103f565b801561065a5780601f1061062f5761010080835404028352916020019161065a565b820191906000526020600020905b81548152906001019060200180831161063d57829003601f168201915b5050505050905092915050565b61066f61075f565b73ffffffffffffffffffffffffffffffffffffffff1661068d6104d5565b73ffffffffffffffffffffffffffffffffffffffff16146106e3576040517f08c379a00000000000000000000000000000000000000000000000000000000081526004016106da90610e72565b60405180910390fd5b600073ffffffffffffffffffffffffffffffffffffffff168173ffffffffffffffffffffffffffffffffffffffff161415610753576040517f08c379a000000000000000000000000000000000000000000000000000000000815260040161074a90610e52565b60405180910390fd5b61075c81610767565b50565b600033905090565b60008060009054906101000a900473ffffffffffffffffffffffffffffffffffffffff169050816000806101000a81548173ffffffffffffffffffffffffffffffffffffffff021916908373ffffffffffffffffffffffffffffffffffffffff1602179055508173ffffffffffffffffffffffffffffffffffffffff168173ffffffffffffffffffffffffffffffffffffffff167f8be0079c531659141344cd1fd0a4f28419497f9722a3daafe3b4186f6b6457e060405160405180910390a35050565b82805482825590600052602060002090810192821561087a579160200282015b8281111561087957825182908051906020019061086992919061088b565b509160200191906001019061084b565b5b5090506108879190610911565b5090565b8280546108979061103f565b90600052602060002090601f0160209004810192826108b95760008555610900565b82601f106108d257805160ff1916838001178555610900565b82800160010185558215610900579182015b828111156108ff5782518255916020019190600101906108e4565b5b50905061090d9190610935565b5090565b5b8082111561093157600081816109289190610952565b50600101610912565b5090565b5b8082111561094e576000816000905550600101610936565b5090565b50805461095e9061103f565b6000825580601f10610970575061098f565b601f01602090049060005260206000209081019061098e9190610935565b5b50565b60006109a56109a084610ed2565b610ead565b905080838252602082019050828560208602820111156109c457600080fd5b60005b85811015610a0e57813567ffffffffffffffff8111156109e657600080fd5b8086016109f38982610b1b565b855260208501945060208401935050506001810190506109c7565b5050509392505050565b6000610a2b610a2684610efe565b610ead565b90508083825260208201905082856020860282011115610a4a57600080fd5b60005b85811015610a9457813567ffffffffffffffff811115610a6c57600080fd5b808601610a798982610b45565b85526020850194506020840193505050600181019050610a4d565b5050509392505050565b6000610ab1610aac84610f2a565b610ead565b905082815260208101848484011115610ac957600080fd5b610ad4848285610ffd565b509392505050565b600081359050610aeb81611201565b92915050565b600082601f830112610b0257600080fd5b8135610b12848260208601610992565b91505092915050565b600082601f830112610b2c57600080fd5b8135610b3c848260208601610a18565b91505092915050565b600082601f830112610b5657600080fd5b8135610b66848260208601610a9e565b91505092915050565b600081359050610b7e81611218565b92915050565b600060208284031215610b9657600080fd5b6000610ba484828501610adc565b91505092915050565b600060208284031215610bbf57600080fd5b600082013567ffffffffffffffff811115610bd957600080fd5b610be584828501610af1565b91505092915050565b600060208284031215610c0057600080fd5b600082013567ffffffffffffffff811115610c1a57600080fd5b610c2684828501610b1b565b91505092915050565b600060208284031215610c4157600080fd5b6000610c4f84828501610b6f565b91505092915050565b60008060408385031215610c6b57600080fd5b6000610c7985828601610b6f565b9250506020610c8a85828601610b6f565b9150509250929050565b6000610ca08383610d2c565b905092915050565b610cb181610fc1565b82525050565b6000610cc282610f6b565b610ccc8185610f8e565b935083602082028501610cde85610f5b565b8060005b85811015610d1a5784840389528151610cfb8582610c94565b9450610d0683610f81565b925060208a01995050600181019050610ce2565b50829750879550505050505092915050565b6000610d3782610f76565b610d418185610f9f565b9350610d5181856020860161100c565b610d5a81611178565b840191505092915050565b6000610d7082610f76565b610d7a8185610fb0565b9350610d8a81856020860161100c565b610d9381611178565b840191505092915050565b6000610dab602683610fb0565b9150610db682611189565b604082019050919050565b6000610dce602083610fb0565b9150610dd9826111d8565b602082019050919050565b610ded81610ff3565b82525050565b6000602082019050610e086000830184610ca8565b92915050565b60006020820190508181036000830152610e288184610cb7565b905092915050565b60006020820190508181036000830152610e4a8184610d65565b905092915050565b60006020820190508181036000830152610e6b81610d9e565b9050919050565b60006020820190508181036000830152610e8b81610dc1565b9050919050565b6000602082019050610ea76000830184610de4565b92915050565b6000610eb7610ec8565b9050610ec38282611071565b919050565b6000604051905090565b600067ffffffffffffffff821115610eed57610eec611149565b5b602082029050602081019050919050565b600067ffffffffffffffff821115610f1957610f18611149565b5b602082029050602081019050919050565b600067ffffffffffffffff821115610f4557610f44611149565b5b610f4e82611178565b9050602081019050919050565b6000819050602082019050919050565b600081519050919050565b600081519050919050565b6000602082019050919050565b600082825260208201905092915050565b600082825260208201905092915050565b600082825260208201905092915050565b6000610fcc82610fd3565b9050919050565b600073ffffffffffffffffffffffffffffffffffffffff82169050919050565b6000819050919050565b82818337600083830152505050565b60005b8381101561102a57808201518184015260208101905061100f565b83811115611039576000848401525b50505050565b6000600282049050600182168061105757607f821691505b6020821081141561106b5761106a61111a565b5b50919050565b61107a82611178565b810181811067ffffffffffffffff8211171561109957611098611149565b5b80604052505050565b60006110ad82610ff3565b91507fffffffffffffffffffffffffffffffffffffffffffffffffffffffffffffffff8214156110e0576110df6110eb565b5b600182019050919050565b7f4e487b7100000000000000000000000000000000000000000000000000000000600052601160045260246000fd5b7f4e487b7100000000000000000000000000000000000000000000000000000000600052602260045260246000fd5b7f4e487b7100000000000000000000000000000000000000000000000000000000600052604160045260246000fd5b6000601f19601f8301169050919050565b7f4f776e61626c653a206e6577206f776e657220697320746865207a65726f206160008201527f6464726573730000000000000000000000000000000000000000000000000000602082015250565b7f4f776e61626c653a2063616c6c6572206973206e6f7420746865206f776e6572600082015250565b61120a81610fc1565b811461121557600080fd5b50565b61122181610ff3565b811461122c57600080fd5b5056fea264697066735822122093c89857da8c7c1170f552b6501d932787ec8f3d85d5abfc510f4b354b1807c964736f6c63430008040033",
  "linkReferences": {},
  "deployedLinkReferences": {}
}