{
  "_format": "hh-sol-artifact-1",
  "contractName": "SVG",
  "sourceName": "contracts/SVG.sol",
  "abi": [
    {
      "inputs": [
        {
          "internalType": "uint256",
          "name": "rnd",
          "type": "uint256"
        },
        {
          "internalType": "string[]",
          "name": "colorPalette",
          "type": "string[]"
        }
      ],
      "name": "getSVG",
      "outputs": [
        {
          "internalType": "string",
          "name": "",
          "type": "string"
        }
      ],
      "stateMutability": "view",
      "type": "function"
    }
  ],
  "bytecode": "0x608060405234801561001057600080fd5b50612913806100206000396000f3fe608060405234801561001057600080fd5b506004361061002b5760003560e01c80636e088aea14610030575b600080fd5b61004a60048036038101906100459190611042565b610060565b6040516100579190611b93565b60405180910390f35b60606000610075846000600f60196001610c11565b6000815181106100ae577f4e487b7100000000000000000000000000000000000000000000000000000000600052603260045260246000fd5b6020026020010151905060006100d6856001600060026003876100d19190611d53565b610c11565b905060006100f6866002600188516003886100f19190611d53565b610c11565b9050600061011787600360006101f46003896101129190611d53565b610c11565b9050600061013888600460006101f460038a6101339190611d53565b610c11565b905060006101588960056000600560038b6101539190611d53565b610c11565b905060006101788a60066000606360038c6101739190611d53565b610c11565b905060006101988b6007603c606360038d6101939190611d53565b610c11565b905060006101b98c6008600061016860028e6101b49190611d53565b610c11565b905060006101ce8d6009600060066004610c11565b90506000610228600a83600081518110610211577f4e487b7100000000000000000000000000000000000000000000000000000000600052603260045260246000fd5b60200260200101516102239190611d53565b610d40565b61027e600a84600181518110610267577f4e487b7100000000000000000000000000000000000000000000000000000000600052603260045260246000fd5b60200260200101516102799190611d53565b610d40565b6102c8846002815181106102bb577f4e487b7100000000000000000000000000000000000000000000000000000000600052603260045260246000fd5b6020026020010151610d40565b6040516020016102da93929190611a2d565b604051602081830303815290604052905060005b8b811015610adf57600081905060018c8281518110610336577f4e487b7100000000000000000000000000000000000000000000000000000000600052603260045260246000fd5b602002602001015114156105a557828f8c838151811061037f577f4e487b7100000000000000000000000000000000000000000000000000000000600052603260045260246000fd5b6020026020010151815181106103be577f4e487b7100000000000000000000000000000000000000000000000000000000600052603260045260246000fd5b602002602001015161040f888481518110610402577f4e487b7100000000000000000000000000000000000000000000000000000000600052603260045260246000fd5b6020026020010151610d40565b6104588d858151811061044b577f4e487b7100000000000000000000000000000000000000000000000000000000600052603260045260246000fd5b6020026020010151610d40565b6104a18d8681518110610494577f4e487b7100000000000000000000000000000000000000000000000000000000600052603260045260246000fd5b6020026020010151610d40565b6104ea8d87815181106104dd577f4e487b7100000000000000000000000000000000000000000000000000000000600052603260045260246000fd5b6020026020010151610d40565b6105338d8881518110610526577f4e487b7100000000000000000000000000000000000000000000000000000000600052603260045260246000fd5b6020026020010151610d40565b61057c8c898151811061056f577f4e487b7100000000000000000000000000000000000000000000000000000000600052603260045260246000fd5b6020026020010151610d40565b6040516020016105939897969594939291906117c3565b60405160208183030381529060405292505b8c816105b19190611c95565b905060018c82815181106105ee577f4e487b7100000000000000000000000000000000000000000000000000000000600052603260045260246000fd5b6020026020010151141561085d57828f8c8381518110610637577f4e487b7100000000000000000000000000000000000000000000000000000000600052603260045260246000fd5b602002602001015181518110610676577f4e487b7100000000000000000000000000000000000000000000000000000000600052603260045260246000fd5b60200260200101516106c78884815181106106ba577f4e487b7100000000000000000000000000000000000000000000000000000000600052603260045260246000fd5b6020026020010151610d40565b6107108d8581518110610703577f4e487b7100000000000000000000000000000000000000000000000000000000600052603260045260246000fd5b6020026020010151610d40565b6107598d868151811061074c577f4e487b7100000000000000000000000000000000000000000000000000000000600052603260045260246000fd5b6020026020010151610d40565b6107a28d8781518110610795577f4e487b7100000000000000000000000000000000000000000000000000000000600052603260045260246000fd5b6020026020010151610d40565b6107eb8d88815181106107de577f4e487b7100000000000000000000000000000000000000000000000000000000600052603260045260246000fd5b6020026020010151610d40565b6108348c8981518110610827577f4e487b7100000000000000000000000000000000000000000000000000000000600052603260045260246000fd5b6020026020010151610d40565b60405160200161084b989796959493929190611937565b60405160208183030381529060405292505b8c816108699190611c95565b905060018c82815181106108a6577f4e487b7100000000000000000000000000000000000000000000000000000000600052603260045260246000fd5b60200260200101511415610acb57828f8c83815181106108ef577f4e487b7100000000000000000000000000000000000000000000000000000000600052603260045260246000fd5b60200260200101518151811061092e577f4e487b7100000000000000000000000000000000000000000000000000000000600052603260045260246000fd5b602002602001015161097f888481518110610972577f4e487b7100000000000000000000000000000000000000000000000000000000600052603260045260246000fd5b6020026020010151610d40565b6109c88d85815181106109bb577f4e487b7100000000000000000000000000000000000000000000000000000000600052603260045260246000fd5b6020026020010151610d40565b610a118d8681518110610a04577f4e487b7100000000000000000000000000000000000000000000000000000000600052603260045260246000fd5b6020026020010151610d40565b610a5a8d8781518110610a4d577f4e487b7100000000000000000000000000000000000000000000000000000000600052603260045260246000fd5b6020026020010151610d40565b610aa38d8881518110610a96577f4e487b7100000000000000000000000000000000000000000000000000000000600052603260045260246000fd5b6020026020010151610d40565b604051602001610ab997969594939291906116f0565b60405160208183030381529060405292505b508080610ad790611e6b565b9150506102ee565b50808d600081518110610b1b577f4e487b7100000000000000000000000000000000000000000000000000000000600052603260045260246000fd5b6020026020010151600384600381518110610b5f577f4e487b7100000000000000000000000000000000000000000000000000000000600052603260045260246000fd5b602002602001015111610b815760405180602001604052806000815250610bb8565b6040518060400160405280601281526020017f2066696c7465723d2775726c28236631292700000000000000000000000000008152505b604051602001610bca939291906118b9565b604051602081830303815290604052905080604051602001610bec9190611b66565b6040516020818303038152906040529050809b50505050505050505050505092915050565b60608167ffffffffffffffff811115610c53577f4e487b7100000000000000000000000000000000000000000000000000000000600052604160045260246000fd5b604051908082528060200260200182016040528015610c815781602001602082028036833780820191505090505b50905060005b82811015610d3657848585610c9c9190611dad565b888884604051602001610cb193929190611bb5565b6040516020818303038152906040528051906020012060001c610cd49190611eb4565b610cde9190611c95565b828281518110610d17577f4e487b7100000000000000000000000000000000000000000000000000000000600052603260045260246000fd5b6020026020010181815250508080610d2e90611e6b565b915050610c87565b5095945050505050565b60606000821415610d88576040518060400160405280600181526020017f30000000000000000000000000000000000000000000000000000000000000008152509050610f10565b600082905060005b60008214610dba578080610da390611e6b565b915050600a82610db39190611d22565b9150610d90565b60008167ffffffffffffffff811115610dfc577f4e487b7100000000000000000000000000000000000000000000000000000000600052604160045260246000fd5b6040519080825280601f01601f191660200182016040528015610e2e5781602001600182028036833780820191505090505b50905060008290505b60008614610f0857600181610e4c9190611dad565b90506000600a8088610e5e9190611d22565b610e689190611d53565b87610e739190611dad565b6030610e7f9190611ceb565b905060008160f81b905080848481518110610ec3577f4e487b7100000000000000000000000000000000000000000000000000000000600052603260045260246000fd5b60200101907effffffffffffffffffffffffffffffffffffffffffffffffffffffffffffff1916908160001a905350600a88610eff9190611d22565b97505050610e37565b819450505050505b919050565b6000610f28610f2384611c11565b611bec565b90508083825260208201905082856020860282011115610f4757600080fd5b60005b85811015610f9157813567ffffffffffffffff811115610f6957600080fd5b808601610f768982611003565b85526020850194506020840193505050600181019050610f4a565b5050509392505050565b6000610fae610fa984611c3d565b611bec565b905082815260208101848484011115610fc657600080fd5b610fd1848285611df8565b509392505050565b600082601f830112610fea57600080fd5b8135610ffa848260208601610f15565b91505092915050565b600082601f83011261101457600080fd5b8135611024848260208601610f9b565b91505092915050565b60008135905061103c816128c6565b92915050565b6000806040838503121561105557600080fd5b60006110638582860161102d565b925050602083013567ffffffffffffffff81111561108057600080fd5b61108c85828601610fd9565b9150509250929050565b60006110a182611c6e565b6110ab8185611c79565b93506110bb818560208601611e07565b6110c481611f72565b840191505092915050565b60006110da82611c6e565b6110e48185611c8a565b93506110f4818560208601611e07565b80840191505092915050565b600061110d601f83611c8a565b915061111882611f83565b601f82019050919050565b6000611130602c83611c8a565b915061113b82611fac565b602c82019050919050565b6000611153600f83611c8a565b915061115e82611ffb565b600f82019050919050565b6000611176600a83611c8a565b915061118182612024565b600a82019050919050565b6000611199600983611c8a565b91506111a48261204d565b600982019050919050565b60006111bc600983611c8a565b91506111c782612076565b600982019050919050565b60006111df600783611c8a565b91506111ea8261209f565b600782019050919050565b6000611202603183611c8a565b915061120d826120c8565b603182019050919050565b6000611225600283611c8a565b915061123082612117565b600282019050919050565b6000611248600883611c8a565b915061125382612140565b600882019050919050565b600061126b602583611c8a565b915061127682612169565b602582019050919050565b600061128e600983611c8a565b9150611299826121b8565b600982019050919050565b60006112b1600583611c8a565b91506112bc826121e1565b600582019050919050565b60006112d4601e83611c8a565b91506112df8261220a565b601e82019050919050565b60006112f7603c83611c8a565b915061130282612233565b603c82019050919050565b600061131a602283611c8a565b915061132582612282565b602282019050919050565b600061133d600183611c8a565b9150611348826122d1565b600182019050919050565b6000611360600383611c8a565b915061136b826122fa565b600382019050919050565b6000611383600183611c8a565b915061138e82612323565b600182019050919050565b60006113a6600783611c8a565b91506113b18261234c565b600782019050919050565b60006113c9600e83611c8a565b91506113d482612375565b600e82019050919050565b60006113ec602583611c8a565b91506113f78261239e565b602582019050919050565b600061140f602583611c8a565b915061141a826123ed565b602582019050919050565b6000611432602b83611c8a565b915061143d8261243c565b602b82019050919050565b6000611455603c83611c8a565b91506114608261248b565b603c82019050919050565b6000611478600483611c8a565b9150611483826124da565b600482019050919050565b600061149b608283611c8a565b91506114a682612503565b608282019050919050565b60006114be600783611c8a565b91506114c9826125c4565b600782019050919050565b60006114e1601783611c8a565b91506114ec826125ed565b601782019050919050565b6000611504602583611c8a565b915061150f82612616565b602582019050919050565b6000611527602183611c8a565b915061153282612665565b602182019050919050565b600061154a600983611c8a565b9150611555826126b4565b600982019050919050565b600061156d600283611c8a565b9150611578826126dd565b600282019050919050565b6000611590600283611c8a565b915061159b82612706565b600282019050919050565b60006115b3600483611c8a565b91506115be8261272f565b600482019050919050565b60006115d6601783611c8a565b91506115e182612758565b601782019050919050565b60006115f9600983611c8a565b915061160482612781565b600982019050919050565b600061161c600683611c8a565b9150611627826127aa565b600682019050919050565b600061163f600a83611c8a565b915061164a826127d3565b600a82019050919050565b6000611662603c83611c8a565b915061166d826127fc565b603c82019050919050565b6000611685601283611c8a565b91506116908261284b565b601282019050919050565b60006116a8600683611c8a565b91506116b382612874565b600682019050919050565b60006116cb600a83611c8a565b91506116d68261289d565b600a82019050919050565b6116ea81611de1565b82525050565b60006116fc828a6110cf565b9150611707826112ea565b9150611712826111d2565b915061171e82896110cf565b915061172982611678565b915061173582886110cf565b9150611740826115c9565b915061174c82876110cf565b915061175782611330565b915061176382866110cf565b915061176e82611218565b9150611779826114b1565b915061178582856110cf565b915061179082611376565b915061179c82846110cf565b91506117a7826112a4565b91506117b282611632565b915081905098975050505050505050565b60006117cf828b6110cf565b91506117da82611448565b91506117e5826111d2565b91506117f1828a6110cf565b91506117fc82611678565b915061180882896110cf565b9150611813826115c9565b915061181f82886110cf565b915061182a82611330565b915061183682876110cf565b915061184182611218565b915061184c826114b1565b915061185882866110cf565b915061186382611376565b915061186f82856110cf565b915061187a82611218565b91506118858261123b565b915061189182846110cf565b915061189c826112a4565b91506118a782611632565b91508190509998505050505050505050565b60006118c582866110cf565b91506118d08261153d565b91506118db826111af565b91506118e782856110cf565b91506118f282611583565b91506118fd8261151a565b9150611908826113bc565b915061191482846110cf565b915061191f82611560565b915061192a8261146b565b9150819050949350505050565b6000611943828b6110cf565b915061194e82611655565b9150611959826111d2565b9150611965828a6110cf565b915061197082611678565b915061197c82896110cf565b9150611987826115c9565b915061199382886110cf565b915061199e82611330565b91506119aa82876110cf565b91506119b582611218565b91506119c0826114b1565b91506119cc82866110cf565b91506119d782611376565b91506119e382856110cf565b91506119ee82611218565b91506119f98261123b565b9150611a0582846110cf565b9150611a10826112a4565b9150611a1b82611632565b91508190509998505050505050505050565b6000611a388261125e565b9150611a4382611100565b9150611a4e8261118c565b9150611a598261153d565b9150611a64826113df565b9150611a6f82611402565b9150611a7a82611169565b9150611a858261153d565b9150611a90826114f7565b9150611a9b826112c7565b9150611aa682611399565b9150611ab18261153d565b9150611abc82611425565b9150611ac782611123565b9150611ad382866110cf565b9150611ade8261169b565b9150611aea82856110cf565b9150611af5826115a6565b9150611b00826111f5565b9150611b0c82846110cf565b9150611b1782611353565b9150611b2282611281565b9150611b2d826114d4565b9150611b388261130d565b9150611b43826116be565b9150611b4e826115ec565b9150611b5982611146565b9150819050949350505050565b6000611b718261148e565b9150611b7d82846110cf565b9150611b888261160f565b915081905092915050565b60006020820190508181036000830152611bad8184611096565b905092915050565b6000606082019050611bca60008301866116e1565b611bd760208301856116e1565b611be460408301846116e1565b949350505050565b6000611bf6611c07565b9050611c028282611e3a565b919050565b6000604051905090565b600067ffffffffffffffff821115611c2c57611c2b611f43565b5b602082029050602081019050919050565b600067ffffffffffffffff821115611c5857611c57611f43565b5b611c6182611f72565b9050602081019050919050565b600081519050919050565b600082825260208201905092915050565b600081905092915050565b6000611ca082611de1565b9150611cab83611de1565b9250827fffffffffffffffffffffffffffffffffffffffffffffffffffffffffffffffff03821115611ce057611cdf611ee5565b5b828201905092915050565b6000611cf682611deb565b9150611d0183611deb565b92508260ff03821115611d1757611d16611ee5565b5b828201905092915050565b6000611d2d82611de1565b9150611d3883611de1565b925082611d4857611d47611f14565b5b828204905092915050565b6000611d5e82611de1565b9150611d6983611de1565b9250817fffffffffffffffffffffffffffffffffffffffffffffffffffffffffffffffff0483118215151615611da257611da1611ee5565b5b828202905092915050565b6000611db882611de1565b9150611dc383611de1565b925082821015611dd657611dd5611ee5565b5b828203905092915050565b6000819050919050565b600060ff82169050919050565b82818337600083830152505050565b60005b83811015611e25578082015181840152602081019050611e0a565b83811115611e34576000848401525b50505050565b611e4382611f72565b810181811067ffffffffffffffff82111715611e6257611e61611f43565b5b80604052505050565b6000611e7682611de1565b91507fffffffffffffffffffffffffffffffffffffffffffffffffffffffffffffffff821415611ea957611ea8611ee5565b5b600182019050919050565b6000611ebf82611de1565b9150611eca83611de1565b925082611eda57611ed9611f14565b5b828206905092915050565b7f4e487b7100000000000000000000000000000000000000000000000000000000600052601160045260246000fd5b7f4e487b7100000000000000000000000000000000000000000000000000000000600052601260045260246000fd5b7f4e487b7100000000000000000000000000000000000000000000000000000000600052604160045260246000fd5b6000601f19601f8301169050919050565b7f3c636972636c652063783d273530272063793d2735302720723d273235273e00600082015250565b7f3c66654f666673657420696e3d27536f7572636547726170686963272072657360008201527f756c743d2772272064783d270000000000000000000000000000000000000000602082015250565b7f3c73796d626f6c2069643d2773273e0000000000000000000000000000000000600082015250565b7f3c2f706f6c79676f6e3e00000000000000000000000000000000000000000000600082015250565b7f3c2f636972636c653e0000000000000000000000000000000000000000000000600082015250565b7f3c672066696c6c3d270000000000000000000000000000000000000000000000600082015250565b7f2066696c6c3d2700000000000000000000000000000000000000000000000000600082015250565b7f3c6665476175737369616e426c757220696e3d27722720726573756c743d277260008201527f622720737464446576696174696f6e3d27000000000000000000000000000000602082015250565b7f2920000000000000000000000000000000000000000000000000000000000000600082015250565b7f20726f7461746528000000000000000000000000000000000000000000000000600082015250565b7f3c73796d626f6c2069643d2763272076696577426f783d27302030203130302060008201527f313030273e000000000000000000000000000000000000000000000000000000602082015250565b7f3c66654d657267653e0000000000000000000000000000000000000000000000600082015250565b7f2927203e20000000000000000000000000000000000000000000000000000000600082015250565b7f3c726563742077696474683d2735303027206865696768743d273530273e0000600082015250565b7f3c6720636c6173733d276733273e3c75736520786c696e6b3a687265663d272360008201527f63272077696474683d2731303027206865696768743d27313030272000000000602082015250565b7f3c66654d657267654e6f646520696e3d27536f7572636547726170686963272060008201527f2f3e000000000000000000000000000000000000000000000000000000000000602082015250565b7f2000000000000000000000000000000000000000000000000000000000000000600082015250565b7f272f3e0000000000000000000000000000000000000000000000000000000000600082015250565b7f2e00000000000000000000000000000000000000000000000000000000000000600082015250565b7f3c2f726563743e00000000000000000000000000000000000000000000000000600082015250565b7f3c75736520687265663d27237327000000000000000000000000000000000000600082015250565b7f3c73796d626f6c2069643d2774272076696577426f783d27302030203130302060008201527f313030273e000000000000000000000000000000000000000000000000000000602082015250565b7f3c706f6c79676f6e20706f696e74733d27302c313030203130302c313030203560008201527f302c30273e000000000000000000000000000000000000000000000000000000602082015250565b7f3c66696c7465722069643d276631272077696474683d2732303025272068656960008201527f6768743d2732303025273e000000000000000000000000000000000000000000602082015250565b7f3c6720636c6173733d276731273e3c75736520786c696e6b3a687265663d272360008201527f62272077696474683d2731303027206865696768743d27313030272000000000602082015250565b7f3c2f673e00000000000000000000000000000000000000000000000000000000600082015250565b7f3c7376672077696474683d2735303027206865696768743d273530302720766960008201527f6577426f783d2730203020353030203530302720786d6c6e733d27687474703a60208201527f2f2f7777772e77332e6f72672f323030302f7376672720786d6c6e733a786c6960408201527f6e6b3d27687474703a2f2f7777772e77332e6f72672f313939392f786c696e6b60608201527f273e000000000000000000000000000000000000000000000000000000000000608082015250565b7f207363616c652800000000000000000000000000000000000000000000000000600082015250565b7f3c66654d657267654e6f646520696e3d27726227202f3e000000000000000000600082015250565b7f3c73796d626f6c2069643d2762272076696577426f783d27302030203130302060008201527f313030273e000000000000000000000000000000000000000000000000000000602082015250565b7f3c726563742077696474683d2735303027206865696768743d2735303027202f60008201527f3e00000000000000000000000000000000000000000000000000000000000000602082015250565b7f3c2f73796d626f6c3e0000000000000000000000000000000000000000000000600082015250565b7f2f3e000000000000000000000000000000000000000000000000000000000000600082015250565b7f273e000000000000000000000000000000000000000000000000000000000000600082015250565b7f27202f3e00000000000000000000000000000000000000000000000000000000600082015250565b7f27207472616e73666f726d3d277472616e736c61746528000000000000000000600082015250565b7f3c2f66696c7465723e0000000000000000000000000000000000000000000000600082015250565b7f3c2f7376673e0000000000000000000000000000000000000000000000000000600082015250565b7f3c2f7573653e3c2f673e00000000000000000000000000000000000000000000600082015250565b7f3c6720636c6173733d276732273e3c75736520786c696e6b3a687265663d272360008201527f74272077696474683d2731303027206865696768743d27313030272000000000602082015250565b7f272066696c6c2d6f7061636974793d27302e0000000000000000000000000000600082015250565b7f272064793d270000000000000000000000000000000000000000000000000000600082015250565b7f3c2f66654d657267653e00000000000000000000000000000000000000000000600082015250565b6128cf81611de1565b81146128da57600080fd5b5056fea264697066735822122001636a89292217bd0bf3f522e1ee1c85a323aa15a4bff94dcfc99a4c62733bcf64736f6c63430008040033",
  "linkReferences": {},
  "deployedLinkReferences": {}
}