{
  "_format": "hh-sol-artifact-1",
  "contractName": "PathNFT",
  "sourceName": "contracts/PathNFT.sol",
  "abi": [
    {
      "inputs": [
        {
          "internalType": "address",
          "name": "color",
          "type": "address"
        },
        {
          "internalType": "address",
          "name": "svg",
          "type": "address"
        },
        {
          "internalType": "address",
          "name": "initialOwner",
          "type": "address"
        }
      ],
      "stateMutability": "nonpayable",
      "type": "constructor"
    },
    {
      "inputs": [],
      "name": "ERC721EnumerableForbiddenBatchMint",
      "type": "error"
    },
    {
      "inputs": [
        {
          "internalType": "address",
          "name": "sender",
          "type": "address"
        },
        {
          "internalType": "uint256",
          "name": "tokenId",
          "type": "uint256"
        },
        {
          "internalType": "address",
          "name": "owner",
          "type": "address"
        }
      ],
      "name": "ERC721IncorrectOwner",
      "type": "error"
    },
    {
      "inputs": [
        {
          "internalType": "address",
          "name": "operator",
          "type": "address"
        },
        {
          "internalType": "uint256",
          "name": "tokenId",
          "type": "uint256"
        }
      ],
      "name": "ERC721InsufficientApproval",
      "type": "error"
    },
    {
      "inputs": [
        {
          "internalType": "address",
          "name": "approver",
          "type": "address"
        }
      ],
      "name": "ERC721InvalidApprover",
      "type": "error"
    },
    {
      "inputs": [
        {
          "internalType": "address",
          "name": "operator",
          "type": "address"
        }
      ],
      "name": "ERC721InvalidOperator",
      "type": "error"
    },
    {
      "inputs": [
        {
          "internalType": "address",
          "name": "owner",
          "type": "address"
        }
      ],
      "name": "ERC721InvalidOwner",
      "type": "error"
    },
    {
      "inputs": [
        {
          "internalType": "address",
          "name": "receiver",
          "type": "address"
        }
      ],
      "name": "ERC721InvalidReceiver",
      "type": "error"
    },
    {
      "inputs": [
        {
          "internalType": "address",
          "name": "sender",
          "type": "address"
        }
      ],
      "name": "ERC721InvalidSender",
      "type": "error"
    },
    {
      "inputs": [
        {
          "internalType": "uint256",
          "name": "tokenId",
          "type": "uint256"
        }
      ],
      "name": "ERC721NonexistentToken",
      "type": "error"
    },
    {
      "inputs": [
        {
          "internalType": "address",
          "name": "owner",
          "type": "address"
        },
        {
          "internalType": "uint256",
          "name": "index",
          "type": "uint256"
        }
      ],
      "name": "ERC721OutOfBoundsIndex",
      "type": "error"
    },
    {
      "inputs": [
        {
          "internalType": "address",
          "name": "owner",
          "type": "address"
        }
      ],
      "name": "OwnableInvalidOwner",
      "type": "error"
    },
    {
      "inputs": [
        {
          "internalType": "address",
          "name": "account",
          "type": "address"
        }
      ],
      "name": "OwnableUnauthorizedAccount",
      "type": "error"
    },
    {
      "anonymous": false,
      "inputs": [
        {
          "indexed": true,
          "internalType": "address",
          "name": "owner",
          "type": "address"
        },
        {
          "indexed": true,
          "internalType": "address",
          "name": "approved",
          "type": "address"
        },
        {
          "indexed": true,
          "internalType": "uint256",
          "name": "tokenId",
          "type": "uint256"
        }
      ],
      "name": "Approval",
      "type": "event"
    },
    {
      "anonymous": false,
      "inputs": [
        {
          "indexed": true,
          "internalType": "address",
          "name": "owner",
          "type": "address"
        },
        {
          "indexed": true,
          "internalType": "address",
          "name": "operator",
          "type": "address"
        },
        {
          "indexed": false,
          "internalType": "bool",
          "name": "approved",
          "type": "bool"
        }
      ],
      "name": "ApprovalForAll",
      "type": "event"
    },
    {
      "anonymous": false,
      "inputs": [
        {
          "indexed": true,
          "internalType": "address",
          "name": "previousOwner",
          "type": "address"
        },
        {
          "indexed": true,
          "internalType": "address",
          "name": "newOwner",
          "type": "address"
        }
      ],
      "name": "OwnershipTransferred",
      "type": "event"
    },
    {
      "anonymous": false,
      "inputs": [
        {
          "indexed": true,
          "internalType": "address",
          "name": "from",
          "type": "address"
        },
        {
          "indexed": true,
          "internalType": "address",
          "name": "to",
          "type": "address"
        },
        {
          "indexed": true,
          "internalType": "uint256",
          "name": "tokenId",
          "type": "uint256"
        }
      ],
      "name": "Transfer",
      "type": "event"
    },
    {
      "inputs": [
        {
          "internalType": "address",
          "name": "to",
          "type": "address"
        },
        {
          "internalType": "uint256",
          "name": "tokenId",
          "type": "uint256"
        }
      ],
      "name": "approve",
      "outputs": [],
      "stateMutability": "nonpayable",
      "type": "function"
    },
    {
      "inputs": [
        {
          "internalType": "address",
          "name": "owner",
          "type": "address"
        }
      ],
      "name": "balanceOf",
      "outputs": [
        {
          "internalType": "uint256",
          "name": "",
          "type": "uint256"
        }
      ],
      "stateMutability": "view",
      "type": "function"
    },
    {
      "inputs": [
        {
          "internalType": "uint256",
          "name": "tokenId",
          "type": "uint256"
        }
      ],
      "name": "getApproved",
      "outputs": [
        {
          "internalType": "address",
          "name": "",
          "type": "address"
        }
      ],
      "stateMutability": "view",
      "type": "function"
    },
    {
      "inputs": [
        {
          "internalType": "uint256",
          "name": "id",
          "type": "uint256"
        }
      ],
      "name": "getSVG",
      "outputs": [
        {
          "internalType": "string",
          "name": "",
          "type": "string"
        }
      ],
      "stateMutability": "view",
      "type": "function"
    },
    {
      "inputs": [
        {
          "internalType": "address",
          "name": "owner",
          "type": "address"
        },
        {
          "internalType": "address",
          "name": "operator",
          "type": "address"
        }
      ],
      "name": "isApprovedForAll",
      "outputs": [
        {
          "internalType": "bool",
          "name": "",
          "type": "bool"
        }
      ],
      "stateMutability": "view",
      "type": "function"
    },
    {
      "inputs": [],
      "name": "maxSupply",
      "outputs": [
        {
          "internalType": "uint16",
          "name": "",
          "type": "uint16"
        }
      ],
      "stateMutability": "view",
      "type": "function"
    },
    {
      "inputs": [],
      "name": "mintNFT",
      "outputs": [
        {
          "internalType": "uint256",
          "name": "",
          "type": "uint256"
        }
      ],
      "stateMutability": "payable",
      "type": "function"
    },
    {
      "inputs": [],
      "name": "name",
      "outputs": [
        {
          "internalType": "string",
          "name": "",
          "type": "string"
        }
      ],
      "stateMutability": "view",
      "type": "function"
    },
    {
      "inputs": [],
      "name": "owner",
      "outputs": [
        {
          "internalType": "address",
          "name": "",
          "type": "address"
        }
      ],
      "stateMutability": "view",
      "type": "function"
    },
    {
      "inputs": [
        {
          "internalType": "uint256",
          "name": "tokenId",
          "type": "uint256"
        }
      ],
      "name": "ownerOf",
      "outputs": [
        {
          "internalType": "address",
          "name": "",
          "type": "address"
        }
      ],
      "stateMutability": "view",
      "type": "function"
    },
    {
      "inputs": [],
      "name": "price",
      "outputs": [
        {
          "internalType": "uint256",
          "name": "",
          "type": "uint256"
        }
      ],
      "stateMutability": "view",
      "type": "function"
    },
    {
      "inputs": [],
      "name": "renounceOwnership",
      "outputs": [],
      "stateMutability": "nonpayable",
      "type": "function"
    },
    {
      "inputs": [
        {
          "internalType": "uint256",
          "name": "",
          "type": "uint256"
        }
      ],
      "name": "rnd",
      "outputs": [
        {
          "internalType": "uint256",
          "name": "",
          "type": "uint256"
        }
      ],
      "stateMutability": "view",
      "type": "function"
    },
    {
      "inputs": [],
      "name": "royalty",
      "outputs": [
        {
          "internalType": "uint16",
          "name": "",
          "type": "uint16"
        }
      ],
      "stateMutability": "view",
      "type": "function"
    },
    {
      "inputs": [],
      "name": "royaltyAddress",
      "outputs": [
        {
          "internalType": "address",
          "name": "",
          "type": "address"
        }
      ],
      "stateMutability": "view",
      "type": "function"
    },
    {
      "inputs": [
        {
          "internalType": "uint256",
          "name": "",
          "type": "uint256"
        },
        {
          "internalType": "uint256",
          "name": "_salePrice",
          "type": "uint256"
        }
      ],
      "name": "royaltyInfo",
      "outputs": [
        {
          "internalType": "address",
          "name": "",
          "type": "address"
        },
        {
          "internalType": "uint256",
          "name": "",
          "type": "uint256"
        }
      ],
      "stateMutability": "view",
      "type": "function"
    },
    {
      "inputs": [
        {
          "internalType": "address",
          "name": "from",
          "type": "address"
        },
        {
          "internalType": "address",
          "name": "to",
          "type": "address"
        },
        {
          "internalType": "uint256",
          "name": "tokenId",
          "type": "uint256"
        }
      ],
      "name": "safeTransferFrom",
      "outputs": [],
      "stateMutability": "nonpayable",
      "type": "function"
    },
    {
      "inputs": [
        {
          "internalType": "address",
          "name": "from",
          "type": "address"
        },
        {
          "internalType": "address",
          "name": "to",
          "type": "address"
        },
        {
          "internalType": "uint256",
          "name": "tokenId",
          "type": "uint256"
        },
        {
          "internalType": "bytes",
          "name": "data",
          "type": "bytes"
        }
      ],
      "name": "safeTransferFrom",
      "outputs": [],
      "stateMutability": "nonpayable",
      "type": "function"
    },
    {
      "inputs": [
        {
          "internalType": "address",
          "name": "operator",
          "type": "address"
        },
        {
          "internalType": "bool",
          "name": "approved",
          "type": "bool"
        }
      ],
      "name": "setApprovalForAll",
      "outputs": [],
      "stateMutability": "nonpayable",
      "type": "function"
    },
    {
      "inputs": [
        {
          "internalType": "uint256",
          "name": "newPrice",
          "type": "uint256"
        }
      ],
      "name": "setPrice",
      "outputs": [],
      "stateMutability": "nonpayable",
      "type": "function"
    },
    {
      "inputs": [
        {
          "internalType": "uint16",
          "name": "_royalty",
          "type": "uint16"
        }
      ],
      "name": "setRoyalty",
      "outputs": [],
      "stateMutability": "nonpayable",
      "type": "function"
    },
    {
      "inputs": [
        {
          "internalType": "address",
          "name": "_royaltyAddress",
          "type": "address"
        }
      ],
      "name": "setRoyaltyAddress",
      "outputs": [],
      "stateMutability": "nonpayable",
      "type": "function"
    },
    {
      "inputs": [
        {
          "internalType": "bytes4",
          "name": "interfaceId",
          "type": "bytes4"
        }
      ],
      "name": "supportsInterface",
      "outputs": [
        {
          "internalType": "bool",
          "name": "",
          "type": "bool"
        }
      ],
      "stateMutability": "view",
      "type": "function"
    },
    {
      "inputs": [],
      "name": "symbol",
      "outputs": [
        {
          "internalType": "string",
          "name": "",
          "type": "string"
        }
      ],
      "stateMutability": "view",
      "type": "function"
    },
    {
      "inputs": [
        {
          "internalType": "uint256",
          "name": "index",
          "type": "uint256"
        }
      ],
      "name": "tokenByIndex",
      "outputs": [
        {
          "internalType": "uint256",
          "name": "",
          "type": "uint256"
        }
      ],
      "stateMutability": "view",
      "type": "function"
    },
    {
      "inputs": [
        {
          "internalType": "address",
          "name": "owner",
          "type": "address"
        },
        {
          "internalType": "uint256",
          "name": "index",
          "type": "uint256"
        }
      ],
      "name": "tokenOfOwnerByIndex",
      "outputs": [
        {
          "internalType": "uint256",
          "name": "",
          "type": "uint256"
        }
      ],
      "stateMutability": "view",
      "type": "function"
    },
    {
      "inputs": [
        {
          "internalType": "uint256",
          "name": "id",
          "type": "uint256"
        }
      ],
      "name": "tokenURI",
      "outputs": [
        {
          "internalType": "string",
          "name": "",
          "type": "string"
        }
      ],
      "stateMutability": "view",
      "type": "function"
    },
    {
      "inputs": [],
      "name": "totalSupply",
      "outputs": [
        {
          "internalType": "uint256",
          "name": "",
          "type": "uint256"
        }
      ],
      "stateMutability": "view",
      "type": "function"
    },
    {
      "inputs": [
        {
          "internalType": "address",
          "name": "from",
          "type": "address"
        },
        {
          "internalType": "address",
          "name": "to",
          "type": "address"
        },
        {
          "internalType": "uint256",
          "name": "tokenId",
          "type": "uint256"
        }
      ],
      "name": "transferFrom",
      "outputs": [],
      "stateMutability": "nonpayable",
      "type": "function"
    },
    {
      "inputs": [
        {
          "internalType": "address",
          "name": "newOwner",
          "type": "address"
        }
      ],
      "name": "transferOwnership",
      "outputs": [],
      "stateMutability": "nonpayable",
      "type": "function"
    },
    {
      "inputs": [],
      "name": "withdraw",
      "outputs": [],
      "stateMutability": "nonpayable",
      "type": "function"
    },
    {
      "inputs": [
        {
          "internalType": "address",
          "name": "token",
          "type": "address"
        }
      ],
      "name": "withdrawERC20",
      "outputs": [],
      "stateMutability": "nonpayable",
      "type": "function"
    },
    {
      "stateMutability": "payable",
      "type": "receive"
    }
  ],
  "bytecode": "0x608060405266038d7ea4c68000600c556103e8600d60006101000a81548161ffff021916908361ffff1602179055506105dc600d60026101000a81548161ffff021916908361ffff16021790555030600d60046101000a81548173ffffffffffffffffffffffffffffffffffffffff021916908373ffffffffffffffffffffffffffffffffffffffff1602179055503480156200009b57600080fd5b5060405162004f4638038062004f468339818101604052810190620000c1919062000396565b806040518060400160405280600b81526020017f586f6e696e2050617468730000000000000000000000000000000000000000008152506040518060400160405280600381526020017f584f4e000000000000000000000000000000000000000000000000000000000081525081600090816200013f91906200066c565b5080600190816200015191906200066c565b505050600073ffffffffffffffffffffffffffffffffffffffff168173ffffffffffffffffffffffffffffffffffffffff1603620001c95760006040517f1e4fbdf7000000000000000000000000000000000000000000000000000000008152600401620001c0919062000764565b60405180910390fd5b620001da816200026660201b60201c565b5082600e60006101000a81548173ffffffffffffffffffffffffffffffffffffffff021916908373ffffffffffffffffffffffffffffffffffffffff16021790555081600f60006101000a81548173ffffffffffffffffffffffffffffffffffffffff021916908373ffffffffffffffffffffffffffffffffffffffff16021790555050505062000781565b6000600a60009054906101000a900473ffffffffffffffffffffffffffffffffffffffff16905081600a60006101000a81548173ffffffffffffffffffffffffffffffffffffffff021916908373ffffffffffffffffffffffffffffffffffffffff1602179055508173ffffffffffffffffffffffffffffffffffffffff168173ffffffffffffffffffffffffffffffffffffffff167f8be0079c531659141344cd1fd0a4f28419497f9722a3daafe3b4186f6b6457e060405160405180910390a35050565b600080fd5b600073ffffffffffffffffffffffffffffffffffffffff82169050919050565b60006200035e8262000331565b9050919050565b620003708162000351565b81146200037c57600080fd5b50565b600081519050620003908162000365565b92915050565b600080600060608486031215620003b257620003b16200032c565b5b6000620003c2868287016200037f565b9350506020620003d5868287016200037f565b9250506040620003e8868287016200037f565b9150509250925092565b600081519050919050565b7f4e487b7100000000000000000000000000000000000000000000000000000000600052604160045260246000fd5b7f4e487b7100000000000000000000000000000000000000000000000000000000600052602260045260246000fd5b600060028204905060018216806200047457607f821691505b6020821081036200048a57620004896200042c565b5b50919050565b60008190508160005260206000209050919050565b60006020601f8301049050919050565b600082821b905092915050565b600060088302620004f47fffffffffffffffffffffffffffffffffffffffffffffffffffffffffffffffff82620004b5565b620005008683620004b5565b95508019841693508086168417925050509392505050565b6000819050919050565b6000819050919050565b60006200054d62000547620005418462000518565b62000522565b62000518565b9050919050565b6000819050919050565b62000569836200052c565b62000581620005788262000554565b848454620004c2565b825550505050565b600090565b6200059862000589565b620005a58184846200055e565b505050565b5b81811015620005cd57620005c16000826200058e565b600181019050620005ab565b5050565b601f8211156200061c57620005e68162000490565b620005f184620004a5565b8101602085101562000601578190505b620006196200061085620004a5565b830182620005aa565b50505b505050565b600082821c905092915050565b6000620006416000198460080262000621565b1980831691505092915050565b60006200065c83836200062e565b9150826002028217905092915050565b6200067782620003f2565b67ffffffffffffffff811115620006935762000692620003fd565b5b6200069f82546200045b565b620006ac828285620005d1565b600060209050601f831160018114620006e45760008415620006cf578287015190505b620006db85826200064e565b8655506200074b565b601f198416620006f48662000490565b60005b828110156200071e57848901518255600182019150602085019450602081019050620006f7565b868310156200073e57848901516200073a601f8916826200062e565b8355505b6001600288020188555050505b505050505050565b6200075e8162000351565b82525050565b60006020820190506200077b600083018462000753565b92915050565b6147b580620007916000396000f3fe6080604052600436106101e75760003560e01c80636352211e11610102578063ad2f852a11610095578063d5abeb0111610064578063d5abeb0114610717578063e985e9c514610742578063f2fde38b1461077f578063f4f3b200146107a8576101ee565b8063ad2f852a14610649578063b88d4fde14610674578063be985ac91461069d578063c87b56dd146106da576101ee565b806391b7f5ed116100d157806391b7f5ed146105a157806395d89b41146105ca578063a035b1fe146105f5578063a22cb46514610620576101ee565b80636352211e146104e557806370a0823114610522578063715018a61461055f5780638da5cb5b14610576576101ee565b806329ee566c1161017a5780633ccfd60b116101495780633ccfd60b1461042b57806342842e0e14610442578063465875161461046b5780634f6ccce7146104a8576101ee565b806329ee566c1461035c5780632a55205a146103875780632f745c59146103c557806336e79a5a14610402576101ee565b8063095ea7b3116101b6578063095ea7b3146102c157806314f710fe146102ea57806318160ddd1461030857806323b872dd14610333576101ee565b806301ffc9a7146101f357806306d254da1461023057806306fdde0314610259578063081812fc14610284576101ee565b366101ee57005b600080fd5b3480156101ff57600080fd5b5061021a60048036038101906102159190612f94565b6107d1565b6040516102279190612fdc565b60405180910390f35b34801561023c57600080fd5b5061025760048036038101906102529190613055565b61084b565b005b34801561026557600080fd5b5061026e610897565b60405161027b9190613112565b60405180910390f35b34801561029057600080fd5b506102ab60048036038101906102a6919061316a565b610929565b6040516102b891906131a6565b60405180910390f35b3480156102cd57600080fd5b506102e860048036038101906102e391906131c1565b610945565b005b6102f261095b565b6040516102ff9190613210565b60405180910390f35b34801561031457600080fd5b5061031d610a7e565b60405161032a9190613210565b60405180910390f35b34801561033f57600080fd5b5061035a6004803603810190610355919061322b565b610a8b565b005b34801561036857600080fd5b50610371610b8d565b60405161037e919061329b565b60405180910390f35b34801561039357600080fd5b506103ae60048036038101906103a991906132b6565b610ba1565b6040516103bc9291906132f6565b60405180910390f35b3480156103d157600080fd5b506103ec60048036038101906103e791906131c1565b610bff565b6040516103f99190613210565b60405180910390f35b34801561040e57600080fd5b506104296004803603810190610424919061334b565b610ca8565b005b34801561043757600080fd5b50610440610d61565b005b34801561044e57600080fd5b506104696004803603810190610464919061322b565b610db8565b005b34801561047757600080fd5b50610492600480360381019061048d919061316a565b610dd8565b60405161049f9190613210565b60405180910390f35b3480156104b457600080fd5b506104cf60048036038101906104ca919061316a565b610df0565b6040516104dc9190613210565b60405180910390f35b3480156104f157600080fd5b5061050c6004803603810190610507919061316a565b610e66565b60405161051991906131a6565b60405180910390f35b34801561052e57600080fd5b5061054960048036038101906105449190613055565b610e78565b6040516105569190613210565b60405180910390f35b34801561056b57600080fd5b50610574610f32565b005b34801561058257600080fd5b5061058b610f46565b60405161059891906131a6565b60405180910390f35b3480156105ad57600080fd5b506105c860048036038101906105c3919061316a565b610f70565b005b3480156105d657600080fd5b506105df610f82565b6040516105ec9190613112565b60405180910390f35b34801561060157600080fd5b5061060a611014565b6040516106179190613210565b60405180910390f35b34801561062c57600080fd5b50610647600480360381019061064291906133a4565b61101a565b005b34801561065557600080fd5b5061065e611030565b60405161066b91906131a6565b60405180910390f35b34801561068057600080fd5b5061069b60048036038101906106969190613519565b611056565b005b3480156106a957600080fd5b506106c460048036038101906106bf919061316a565b611073565b6040516106d19190613112565b60405180910390f35b3480156106e657600080fd5b5061070160048036038101906106fc919061316a565b611365565b60405161070e9190613112565b60405180910390f35b34801561072357600080fd5b5061072c611569565b604051610739919061329b565b60405180910390f35b34801561074e57600080fd5b506107696004803603810190610764919061359c565b61157d565b6040516107769190612fdc565b60405180910390f35b34801561078b57600080fd5b506107a660048036038101906107a19190613055565b611611565b005b3480156107b457600080fd5b506107cf60048036038101906107ca9190613055565b611697565b005b60007f2a55205a000000000000000000000000000000000000000000000000000000007bffffffffffffffffffffffffffffffffffffffffffffffffffffffff1916827bffffffffffffffffffffffffffffffffffffffffffffffffffffffff191614806108445750610843826117a1565b5b9050919050565b61085361181b565b80600d60046101000a81548173ffffffffffffffffffffffffffffffffffffffff021916908373ffffffffffffffffffffffffffffffffffffffff16021790555050565b6060600080546108a69061360b565b80601f01602080910402602001604051908101604052809291908181526020018280546108d29061360b565b801561091f5780601f106108f45761010080835404028352916020019161091f565b820191906000526020600020905b81548152906001019060200180831161090257829003601f168201915b5050505050905090565b6000610934826118a2565b5061093e8261192a565b9050919050565b6109578282610952611967565b61196f565b5050565b6000600c5434146109a1576040517f08c379a000000000000000000000000000000000000000000000000000000000815260040161099890613688565b60405180910390fd5b600d60009054906101000a900461ffff1661ffff166109be610a7e565b106109fe576040517f08c379a00000000000000000000000000000000000000000000000000000000081526004016109f5906136f4565b60405180910390fd5b6000600b6000815480929190610a1390613743565b919050559050610a233382611981565b80600143610a31919061378b565b403330604051602001610a479493929190613853565b6040516020818303038152906040528051906020012060001c60106000838152602001908152602001600020819055508091505090565b6000600880549050905090565b600073ffffffffffffffffffffffffffffffffffffffff168273ffffffffffffffffffffffffffffffffffffffff1603610afd5760006040517f64a0ae92000000000000000000000000000000000000000000000000000000008152600401610af491906131a6565b60405180910390fd5b6000610b118383610b0c611967565b61199f565b90508373ffffffffffffffffffffffffffffffffffffffff168173ffffffffffffffffffffffffffffffffffffffff1614610b87578382826040517f64283d7b000000000000000000000000000000000000000000000000000000008152600401610b7e939291906138a1565b60405180910390fd5b50505050565b600d60029054906101000a900461ffff1681565b600080600d60049054906101000a900473ffffffffffffffffffffffffffffffffffffffff16612710600d60029054906101000a900461ffff1661ffff1685610bea91906138d8565b610bf49190613949565b915091509250929050565b6000610c0a83610e78565b8210610c4f5782826040517fa57d13dc000000000000000000000000000000000000000000000000000000008152600401610c469291906132f6565b60405180910390fd5b600660008473ffffffffffffffffffffffffffffffffffffffff1673ffffffffffffffffffffffffffffffffffffffff168152602001908152602001600020600083815260200190815260200160002054905092915050565b610cb061181b565b60008161ffff161015610cf8576040517f08c379a0000000000000000000000000000000000000000000000000000000008152600401610cef906139c6565b60405180910390fd5b6107d08161ffff161115610d41576040517f08c379a0000000000000000000000000000000000000000000000000000000008152600401610d3890613a32565b60405180910390fd5b80600d60026101000a81548161ffff021916908361ffff16021790555050565b610d6961181b565b60004790503373ffffffffffffffffffffffffffffffffffffffff166108fc829081150290604051600060405180830381858888f19350505050158015610db4573d6000803e3d6000fd5b5050565b610dd383838360405180602001604052806000815250611056565b505050565b60106020528060005260406000206000915090505481565b6000610dfa610a7e565b8210610e40576000826040517fa57d13dc000000000000000000000000000000000000000000000000000000008152600401610e379291906132f6565b60405180910390fd5b60088281548110610e5457610e53613a52565b5b90600052602060002001549050919050565b6000610e71826118a2565b9050919050565b60008073ffffffffffffffffffffffffffffffffffffffff168273ffffffffffffffffffffffffffffffffffffffff1603610eeb5760006040517f89c62b64000000000000000000000000000000000000000000000000000000008152600401610ee291906131a6565b60405180910390fd5b600360008373ffffffffffffffffffffffffffffffffffffffff1673ffffffffffffffffffffffffffffffffffffffff168152602001908152602001600020549050919050565b610f3a61181b565b610f446000611abc565b565b6000600a60009054906101000a900473ffffffffffffffffffffffffffffffffffffffff16905090565b610f7861181b565b80600c8190555050565b606060018054610f919061360b565b80601f0160208091040260200160405190810160405280929190818152602001828054610fbd9061360b565b801561100a5780601f10610fdf5761010080835404028352916020019161100a565b820191906000526020600020905b815481529060010190602001808311610fed57829003601f168201915b5050505050905090565b600c5481565b61102c611025611967565b8383611b82565b5050565b600d60049054906101000a900473ffffffffffffffffffffffffffffffffffffffff1681565b611061848484610a8b565b61106d84848484611cf1565b50505050565b60606000600e60009054906101000a900473ffffffffffffffffffffffffffffffffffffffff1673ffffffffffffffffffffffffffffffffffffffff1663d32c196b6040518163ffffffff1660e01b8152600401602060405180830381865afa1580156110e4573d6000803e3d6000fd5b505050506040513d601f19601f820116820180604052508101906111089190613a96565b60106000858152602001908152602001600020546111269190613ac3565b90506000600e60009054906101000a900473ffffffffffffffffffffffffffffffffffffffff1673ffffffffffffffffffffffffffffffffffffffff166304c362f2836040518263ffffffff1660e01b81526004016111859190613210565b600060405180830381865afa1580156111a2573d6000803e3d6000fd5b505050506040513d6000823e3d601f19601f820116820180604052508101906111cb9190613c7b565b905060006111f360106000878152602001908152602001600020546000600360076001611ea8565b60008151811061120657611205613a52565b5b602002602001015190506000611235601060008881526020019081526020016000205460016032609686611ea8565b9050600061125c601060008981526020019081526020016000205460026001600487611ea8565b905061129d6040518060400160405280600981526020017f6c6179657273202564000000000000000000000000000000000000000000000081525084611f8b565b600f60009054906101000a900473ffffffffffffffffffffffffffffffffffffffff1673ffffffffffffffffffffffffffffffffffffffff16634b9ff265601060008a815260200190815260200160002054868686866040518663ffffffff1660e01b8152600401611313959493929190613e8e565b600060405180830381865afa158015611330573d6000803e3d6000fd5b505050506040513d6000823e3d601f19601f820116820180604052508101906113599190613ef6565b95505050505050919050565b6060611370826118a2565b50600061137c83612027565b60405160200161138c9190613fc7565b604051602081830303815290604052905060006040516020016113ae90614035565b604051602081830303815290604052905060006113ca85611073565b90506000600e60009054906101000a900473ffffffffffffffffffffffffffffffffffffffff1673ffffffffffffffffffffffffffffffffffffffff1663d32c196b6040518163ffffffff1660e01b8152600401602060405180830381865afa15801561143b573d6000803e3d6000fd5b505050506040513d601f19601f8201168201806040525081019061145f9190613a96565b601060008881526020019081526020016000205461147d9190613ac3565b905060006114a560106000898152602001908152602001600020546000600f60196001611ea8565b6000815181106114b8576114b7613a52565b5b6020026020010151905060006114cd836120f5565b6114d6836120f5565b6040516020016114e7929190614212565b604051602081830303815290604052905085858560405160200161150b919061426d565b6040516020818303038152906040528360405160200161152e9493929190614447565b60405160208183030381529060405260405160200161154d9190614508565b6040516020818303038152906040529650505050505050919050565b600d60009054906101000a900461ffff1681565b6000600560008473ffffffffffffffffffffffffffffffffffffffff1673ffffffffffffffffffffffffffffffffffffffff16815260200190815260200160002060008373ffffffffffffffffffffffffffffffffffffffff1673ffffffffffffffffffffffffffffffffffffffff16815260200190815260200160002060009054906101000a900460ff16905092915050565b61161961181b565b600073ffffffffffffffffffffffffffffffffffffffff168173ffffffffffffffffffffffffffffffffffffffff160361168b5760006040517f1e4fbdf700000000000000000000000000000000000000000000000000000000815260040161168291906131a6565b60405180910390fd5b61169481611abc565b50565b61169f61181b565b8073ffffffffffffffffffffffffffffffffffffffff1663a9059cbb6116c3610f46565b8373ffffffffffffffffffffffffffffffffffffffff166370a08231306040518263ffffffff1660e01b81526004016116fc91906131a6565b602060405180830381865afa158015611719573d6000803e3d6000fd5b505050506040513d601f19601f8201168201806040525081019061173d9190613a96565b6040518363ffffffff1660e01b815260040161175a9291906132f6565b6020604051808303816000875af1158015611779573d6000803e3d6000fd5b505050506040513d601f19601f8201168201806040525081019061179d919061453f565b5050565b60007f780e9d63000000000000000000000000000000000000000000000000000000007bffffffffffffffffffffffffffffffffffffffffffffffffffffffff1916827bffffffffffffffffffffffffffffffffffffffffffffffffffffffff1916148061181457506118138261227d565b5b9050919050565b611823611967565b73ffffffffffffffffffffffffffffffffffffffff16611841610f46565b73ffffffffffffffffffffffffffffffffffffffff16146118a057611864611967565b6040517f118cdaa700000000000000000000000000000000000000000000000000000000815260040161189791906131a6565b60405180910390fd5b565b6000806118ae8361235f565b9050600073ffffffffffffffffffffffffffffffffffffffff168173ffffffffffffffffffffffffffffffffffffffff160361192157826040517f7e2732890000000000000000000000000000000000000000000000000000000081526004016119189190613210565b60405180910390fd5b80915050919050565b60006004600083815260200190815260200160002060009054906101000a900473ffffffffffffffffffffffffffffffffffffffff169050919050565b600033905090565b61197c838383600161239c565b505050565b61199b828260405180602001604052806000815250612561565b5050565b6000806119ad85858561257d565b9050600073ffffffffffffffffffffffffffffffffffffffff168173ffffffffffffffffffffffffffffffffffffffff16036119f1576119ec84612797565b611a30565b8473ffffffffffffffffffffffffffffffffffffffff168173ffffffffffffffffffffffffffffffffffffffff1614611a2f57611a2e81856127e0565b5b5b600073ffffffffffffffffffffffffffffffffffffffff168573ffffffffffffffffffffffffffffffffffffffff1603611a7257611a6d84612941565b611ab1565b8473ffffffffffffffffffffffffffffffffffffffff168173ffffffffffffffffffffffffffffffffffffffff1614611ab057611aaf8585612a12565b5b5b809150509392505050565b6000600a60009054906101000a900473ffffffffffffffffffffffffffffffffffffffff16905081600a60006101000a81548173ffffffffffffffffffffffffffffffffffffffff021916908373ffffffffffffffffffffffffffffffffffffffff1602179055508173ffffffffffffffffffffffffffffffffffffffff168173ffffffffffffffffffffffffffffffffffffffff167f8be0079c531659141344cd1fd0a4f28419497f9722a3daafe3b4186f6b6457e060405160405180910390a35050565b600073ffffffffffffffffffffffffffffffffffffffff168273ffffffffffffffffffffffffffffffffffffffff1603611bf357816040517f5b08ba18000000000000000000000000000000000000000000000000000000008152600401611bea91906131a6565b60405180910390fd5b80600560008573ffffffffffffffffffffffffffffffffffffffff1673ffffffffffffffffffffffffffffffffffffffff16815260200190815260200160002060008473ffffffffffffffffffffffffffffffffffffffff1673ffffffffffffffffffffffffffffffffffffffff16815260200190815260200160002060006101000a81548160ff0219169083151502179055508173ffffffffffffffffffffffffffffffffffffffff168373ffffffffffffffffffffffffffffffffffffffff167f17307eab39ab6107e8899845ad3d59bd9653f200f220920489ca2b5937696c3183604051611ce49190612fdc565b60405180910390a3505050565b60008373ffffffffffffffffffffffffffffffffffffffff163b1115611ea2578273ffffffffffffffffffffffffffffffffffffffff1663150b7a02611d35611967565b8685856040518563ffffffff1660e01b8152600401611d5794939291906145b6565b6020604051808303816000875af1925050508015611d9357506040513d601f19601f82011682018060405250810190611d909190614617565b60015b611e17573d8060008114611dc3576040519150601f19603f3d011682016040523d82523d6000602084013e611dc8565b606091505b506000815103611e0f57836040517f64a0ae92000000000000000000000000000000000000000000000000000000008152600401611e0691906131a6565b60405180910390fd5b805181602001fd5b63150b7a0260e01b7bffffffffffffffffffffffffffffffffffffffffffffffffffffffff1916817bffffffffffffffffffffffffffffffffffffffffffffffffffffffff191614611ea057836040517f64a0ae92000000000000000000000000000000000000000000000000000000008152600401611e9791906131a6565b60405180910390fd5b505b50505050565b60608167ffffffffffffffff811115611ec457611ec36133ee565b5b604051908082528060200260200182016040528015611ef25781602001602082028036833780820191505090505b50905060005b82811015611f8157848585611f0d919061378b565b888884604051602001611f2293929190614644565b6040516020818303038152906040528051906020012060001c611f459190613ac3565b611f4f919061467b565b828281518110611f6257611f61613a52565b5b6020026020010181815250508080611f7990613743565b915050611ef8565b5095945050505050565b6120238282604051602401611fa19291906146af565b6040516020818303038152906040527fb60e72cc000000000000000000000000000000000000000000000000000000007bffffffffffffffffffffffffffffffffffffffffffffffffffffffff19166020820180517bffffffffffffffffffffffffffffffffffffffffffffffffffffffff8381831617835250505050612a9d565b5050565b60606000600161203684612ab7565b01905060008167ffffffffffffffff811115612055576120546133ee565b5b6040519080825280601f01601f1916602001820160405280156120875781602001600182028036833780820191505090505b509050600082602001820190505b6001156120ea578080600190039150507f3031323334353637383961626364656600000000000000000000000000000000600a86061a8153600a85816120de576120dd61391a565b5b04945060008503612095575b819350505050919050565b60606000820361213c576040518060400160405280600181526020017f30000000000000000000000000000000000000000000000000000000000000008152509050612278565b600082905060005b6000821461216e57808061215790613743565b915050600a826121679190613949565b9150612144565b60008167ffffffffffffffff81111561218a576121896133ee565b5b6040519080825280601f01601f1916602001820160405280156121bc5781602001600182028036833780820191505090505b50905060008290505b60008614612270576001816121da919061378b565b90506000600a80886121ec9190613949565b6121f691906138d8565b87612201919061378b565b603061220d91906146ec565b905060008160f81b90508084848151811061222b5761222a613a52565b5b60200101907effffffffffffffffffffffffffffffffffffffffffffffffffffffffffffff1916908160001a905350600a886122679190613949565b975050506121c5565b819450505050505b919050565b60007f80ac58cd000000000000000000000000000000000000000000000000000000007bffffffffffffffffffffffffffffffffffffffffffffffffffffffff1916827bffffffffffffffffffffffffffffffffffffffffffffffffffffffff1916148061234857507f5b5e139f000000000000000000000000000000000000000000000000000000007bffffffffffffffffffffffffffffffffffffffffffffffffffffffff1916827bffffffffffffffffffffffffffffffffffffffffffffffffffffffff1916145b80612358575061235782612c0a565b5b9050919050565b60006002600083815260200190815260200160002060009054906101000a900473ffffffffffffffffffffffffffffffffffffffff169050919050565b80806123d55750600073ffffffffffffffffffffffffffffffffffffffff168273ffffffffffffffffffffffffffffffffffffffff1614155b156125095760006123e5846118a2565b9050600073ffffffffffffffffffffffffffffffffffffffff168373ffffffffffffffffffffffffffffffffffffffff161415801561245057508273ffffffffffffffffffffffffffffffffffffffff168173ffffffffffffffffffffffffffffffffffffffff1614155b80156124635750612461818461157d565b155b156124a557826040517fa9fbf51f00000000000000000000000000000000000000000000000000000000815260040161249c91906131a6565b60405180910390fd5b811561250757838573ffffffffffffffffffffffffffffffffffffffff168273ffffffffffffffffffffffffffffffffffffffff167f8c5be1e5ebec7d5bd14f71427d1e84f3dd0314c0f7b2291e5b200ac8c7c3b92560405160405180910390a45b505b836004600085815260200190815260200160002060006101000a81548173ffffffffffffffffffffffffffffffffffffffff021916908373ffffffffffffffffffffffffffffffffffffffff16021790555050505050565b61256b8383612c74565b6125786000848484611cf1565b505050565b6000806125898461235f565b9050600073ffffffffffffffffffffffffffffffffffffffff168373ffffffffffffffffffffffffffffffffffffffff16146125cb576125ca818486612d6d565b5b600073ffffffffffffffffffffffffffffffffffffffff168173ffffffffffffffffffffffffffffffffffffffff161461265c5761260d60008560008061239c565b6001600360008373ffffffffffffffffffffffffffffffffffffffff1673ffffffffffffffffffffffffffffffffffffffff168152602001908152602001600020600082825403925050819055505b600073ffffffffffffffffffffffffffffffffffffffff168573ffffffffffffffffffffffffffffffffffffffff16146126df576001600360008773ffffffffffffffffffffffffffffffffffffffff1673ffffffffffffffffffffffffffffffffffffffff168152602001908152602001600020600082825401925050819055505b846002600086815260200190815260200160002060006101000a81548173ffffffffffffffffffffffffffffffffffffffff021916908373ffffffffffffffffffffffffffffffffffffffff160217905550838573ffffffffffffffffffffffffffffffffffffffff168273ffffffffffffffffffffffffffffffffffffffff167fddf252ad1be2c89b69c2b068fc378daa952ba7f163c4a11628f55a4df523b3ef60405160405180910390a4809150509392505050565b6008805490506009600083815260200190815260200160002081905550600881908060018154018082558091505060019003906000526020600020016000909190919091505550565b60006127eb83610e78565b90506000600760008481526020019081526020016000205490508181146128d0576000600660008673ffffffffffffffffffffffffffffffffffffffff1673ffffffffffffffffffffffffffffffffffffffff168152602001908152602001600020600084815260200190815260200160002054905080600660008773ffffffffffffffffffffffffffffffffffffffff1673ffffffffffffffffffffffffffffffffffffffff168152602001908152602001600020600084815260200190815260200160002081905550816007600083815260200190815260200160002081905550505b6007600084815260200190815260200160002060009055600660008573ffffffffffffffffffffffffffffffffffffffff1673ffffffffffffffffffffffffffffffffffffffff16815260200190815260200160002060008381526020019081526020016000206000905550505050565b60006001600880549050612955919061378b565b905060006009600084815260200190815260200160002054905060006008838154811061298557612984613a52565b5b9060005260206000200154905080600883815481106129a7576129a6613a52565b5b9060005260206000200181905550816009600083815260200190815260200160002081905550600960008581526020019081526020016000206000905560088054806129f6576129f5614721565b5b6001900381819060005260206000200160009055905550505050565b60006001612a1f84610e78565b612a29919061378b565b905081600660008573ffffffffffffffffffffffffffffffffffffffff1673ffffffffffffffffffffffffffffffffffffffff168152602001908152602001600020600083815260200190815260200160002081905550806007600084815260200190815260200160002081905550505050565b612ab481612aac612e31612e52565b63ffffffff16565b50565b600080600090507a184f03e93ff9f4daa797ed6e38ed64bf6a1f0100000000000000008310612b15577a184f03e93ff9f4daa797ed6e38ed64bf6a1f0100000000000000008381612b0b57612b0a61391a565b5b0492506040810190505b6d04ee2d6d415b85acef81000000008310612b52576d04ee2d6d415b85acef81000000008381612b4857612b4761391a565b5b0492506020810190505b662386f26fc100008310612b8157662386f26fc100008381612b7757612b7661391a565b5b0492506010810190505b6305f5e1008310612baa576305f5e1008381612ba057612b9f61391a565b5b0492506008810190505b6127108310612bcf576127108381612bc557612bc461391a565b5b0492506004810190505b60648310612bf25760648381612be857612be761391a565b5b0492506002810190505b600a8310612c01576001810190505b80915050919050565b60007f01ffc9a7000000000000000000000000000000000000000000000000000000007bffffffffffffffffffffffffffffffffffffffffffffffffffffffff1916827bffffffffffffffffffffffffffffffffffffffffffffffffffffffff1916149050919050565b600073ffffffffffffffffffffffffffffffffffffffff168273ffffffffffffffffffffffffffffffffffffffff1603612ce65760006040517f64a0ae92000000000000000000000000000000000000000000000000000000008152600401612cdd91906131a6565b60405180910390fd5b6000612cf48383600061199f565b9050600073ffffffffffffffffffffffffffffffffffffffff168173ffffffffffffffffffffffffffffffffffffffff1614612d685760006040517f73c6ac6e000000000000000000000000000000000000000000000000000000008152600401612d5f91906131a6565b60405180910390fd5b505050565b612d78838383612e5d565b612e2c57600073ffffffffffffffffffffffffffffffffffffffff168373ffffffffffffffffffffffffffffffffffffffff1603612ded57806040517f7e273289000000000000000000000000000000000000000000000000000000008152600401612de49190613210565b60405180910390fd5b81816040517f177e802f000000000000000000000000000000000000000000000000000000008152600401612e239291906132f6565b60405180910390fd5b505050565b60006a636f6e736f6c652e6c6f679050600080835160208501845afa505050565b612f1e819050919050565b60008073ffffffffffffffffffffffffffffffffffffffff168373ffffffffffffffffffffffffffffffffffffffff1614158015612f1557508273ffffffffffffffffffffffffffffffffffffffff168473ffffffffffffffffffffffffffffffffffffffff161480612ed65750612ed5848461157d565b5b80612f1457508273ffffffffffffffffffffffffffffffffffffffff16612efc8361192a565b73ffffffffffffffffffffffffffffffffffffffff16145b5b90509392505050565b612f26614750565b565b6000604051905090565b600080fd5b600080fd5b60007fffffffff0000000000000000000000000000000000000000000000000000000082169050919050565b612f7181612f3c565b8114612f7c57600080fd5b50565b600081359050612f8e81612f68565b92915050565b600060208284031215612faa57612fa9612f32565b5b6000612fb884828501612f7f565b91505092915050565b60008115159050919050565b612fd681612fc1565b82525050565b6000602082019050612ff16000830184612fcd565b92915050565b600073ffffffffffffffffffffffffffffffffffffffff82169050919050565b600061302282612ff7565b9050919050565b61303281613017565b811461303d57600080fd5b50565b60008135905061304f81613029565b92915050565b60006020828403121561306b5761306a612f32565b5b600061307984828501613040565b91505092915050565b600081519050919050565b600082825260208201905092915050565b60005b838110156130bc5780820151818401526020810190506130a1565b60008484015250505050565b6000601f19601f8301169050919050565b60006130e482613082565b6130ee818561308d565b93506130fe81856020860161309e565b613107816130c8565b840191505092915050565b6000602082019050818103600083015261312c81846130d9565b905092915050565b6000819050919050565b61314781613134565b811461315257600080fd5b50565b6000813590506131648161313e565b92915050565b6000602082840312156131805761317f612f32565b5b600061318e84828501613155565b91505092915050565b6131a081613017565b82525050565b60006020820190506131bb6000830184613197565b92915050565b600080604083850312156131d8576131d7612f32565b5b60006131e685828601613040565b92505060206131f785828601613155565b9150509250929050565b61320a81613134565b82525050565b60006020820190506132256000830184613201565b92915050565b60008060006060848603121561324457613243612f32565b5b600061325286828701613040565b935050602061326386828701613040565b925050604061327486828701613155565b9150509250925092565b600061ffff82169050919050565b6132958161327e565b82525050565b60006020820190506132b0600083018461328c565b92915050565b600080604083850312156132cd576132cc612f32565b5b60006132db85828601613155565b92505060206132ec85828601613155565b9150509250929050565b600060408201905061330b6000830185613197565b6133186020830184613201565b9392505050565b6133288161327e565b811461333357600080fd5b50565b6000813590506133458161331f565b92915050565b60006020828403121561336157613360612f32565b5b600061336f84828501613336565b91505092915050565b61338181612fc1565b811461338c57600080fd5b50565b60008135905061339e81613378565b92915050565b600080604083850312156133bb576133ba612f32565b5b60006133c985828601613040565b92505060206133da8582860161338f565b9150509250929050565b600080fd5b600080fd5b7f4e487b7100000000000000000000000000000000000000000000000000000000600052604160045260246000fd5b613426826130c8565b810181811067ffffffffffffffff82111715613445576134446133ee565b5b80604052505050565b6000613458612f28565b9050613464828261341d565b919050565b600067ffffffffffffffff821115613484576134836133ee565b5b61348d826130c8565b9050602081019050919050565b82818337600083830152505050565b60006134bc6134b784613469565b61344e565b9050828152602081018484840111156134d8576134d76133e9565b5b6134e384828561349a565b509392505050565b600082601f830112613500576134ff6133e4565b5b81356135108482602086016134a9565b91505092915050565b6000806000806080858703121561353357613532612f32565b5b600061354187828801613040565b945050602061355287828801613040565b935050604061356387828801613155565b925050606085013567ffffffffffffffff81111561358457613583612f37565b5b613590878288016134eb565b91505092959194509250565b600080604083850312156135b3576135b2612f32565b5b60006135c185828601613040565b92505060206135d285828601613040565b9150509250929050565b7f4e487b7100000000000000000000000000000000000000000000000000000000600052602260045260246000fd5b6000600282049050600182168061362357607f821691505b602082108103613636576136356135dc565b5b50919050565b7f57726f6e67207072696365000000000000000000000000000000000000000000600082015250565b6000613672600b8361308d565b915061367d8261363c565b602082019050919050565b600060208201905081810360008301526136a181613665565b9050919050565b7f536f6c64206f7574210000000000000000000000000000000000000000000000600082015250565b60006136de60098361308d565b91506136e9826136a8565b602082019050919050565b6000602082019050818103600083015261370d816136d1565b9050919050565b7f4e487b7100000000000000000000000000000000000000000000000000000000600052601160045260246000fd5b600061374e82613134565b91507fffffffffffffffffffffffffffffffffffffffffffffffffffffffffffffffff82036137805761377f613714565b5b600182019050919050565b600061379682613134565b91506137a183613134565b92508282039050818111156137b9576137b8613714565b5b92915050565b6000819050919050565b6137da6137d582613134565b6137bf565b82525050565b6000819050919050565b6000819050919050565b613805613800826137e0565b6137ea565b82525050565b60008160601b9050919050565b60006138238261380b565b9050919050565b600061383582613818565b9050919050565b61384d61384882613017565b61382a565b82525050565b600061385f82876137c9565b60208201915061386f82866137f4565b60208201915061387f828561383c565b60148201915061388f828461383c565b60148201915081905095945050505050565b60006060820190506138b66000830186613197565b6138c36020830185613201565b6138d06040830184613197565b949350505050565b60006138e382613134565b91506138ee83613134565b92508282026138fc81613134565b9150828204841483151761391357613912613714565b5b5092915050565b7f4e487b7100000000000000000000000000000000000000000000000000000000600052601260045260246000fd5b600061395482613134565b915061395f83613134565b92508261396f5761396e61391a565b5b828204905092915050565b7f526f79616c7479206d757374206265203e3d2030250000000000000000000000600082015250565b60006139b060158361308d565b91506139bb8261397a565b602082019050919050565b600060208201905081810360008301526139df816139a3565b9050919050565b7f526f79616c7479206d757374206265203c3d2031352500000000000000000000600082015250565b6000613a1c60168361308d565b9150613a27826139e6565b602082019050919050565b60006020820190508181036000830152613a4b81613a0f565b9050919050565b7f4e487b7100000000000000000000000000000000000000000000000000000000600052603260045260246000fd5b600081519050613a908161313e565b92915050565b600060208284031215613aac57613aab612f32565b5b6000613aba84828501613a81565b91505092915050565b6000613ace82613134565b9150613ad983613134565b925082613ae957613ae861391a565b5b828206905092915050565b600067ffffffffffffffff821115613b0f57613b0e6133ee565b5b602082029050602081019050919050565b600080fd5b600067ffffffffffffffff821115613b4057613b3f6133ee565b5b613b49826130c8565b9050602081019050919050565b6000613b69613b6484613b25565b61344e565b905082815260208101848484011115613b8557613b846133e9565b5b613b9084828561309e565b509392505050565b600082601f830112613bad57613bac6133e4565b5b8151613bbd848260208601613b56565b91505092915050565b6000613bd9613bd484613af4565b61344e565b90508083825260208201905060208402830185811115613bfc57613bfb613b20565b5b835b81811015613c4357805167ffffffffffffffff811115613c2157613c206133e4565b5b808601613c2e8982613b98565b85526020850194505050602081019050613bfe565b5050509392505050565b600082601f830112613c6257613c616133e4565b5b8151613c72848260208601613bc6565b91505092915050565b600060208284031215613c9157613c90612f32565b5b600082015167ffffffffffffffff811115613caf57613cae612f37565b5b613cbb84828501613c4d565b91505092915050565b600081519050919050565b600082825260208201905092915050565b6000819050602082019050919050565b600082825260208201905092915050565b6000613d0c82613082565b613d168185613cf0565b9350613d2681856020860161309e565b613d2f816130c8565b840191505092915050565b6000613d468383613d01565b905092915050565b6000602082019050919050565b6000613d6682613cc4565b613d708185613ccf565b935083602082028501613d8285613ce0565b8060005b85811015613dbe5784840389528151613d9f8582613d3a565b9450613daa83613d4e565b925060208a01995050600181019050613d86565b50829750879550505050505092915050565b600081519050919050565b600082825260208201905092915050565b6000819050602082019050919050565b613e0581613134565b82525050565b6000613e178383613dfc565b60208301905092915050565b6000602082019050919050565b6000613e3b82613dd0565b613e458185613ddb565b9350613e5083613dec565b8060005b83811015613e81578151613e688882613e0b565b9750613e7383613e23565b925050600181019050613e54565b5085935050505092915050565b600060a082019050613ea36000830188613201565b8181036020830152613eb58187613d5b565b9050613ec46040830186613201565b8181036060830152613ed68185613e30565b90508181036080830152613eea8184613e30565b90509695505050505050565b600060208284031215613f0c57613f0b612f32565b5b600082015167ffffffffffffffff811115613f2a57613f29612f37565b5b613f3684828501613b98565b91505092915050565b600081905092915050565b7f52616e646f6d4172742023000000000000000000000000000000000000000000600082015250565b6000613f80600b83613f3f565b9150613f8b82613f4a565b600b82019050919050565b6000613fa182613082565b613fab8185613f3f565b9350613fbb81856020860161309e565b80840191505092915050565b6000613fd282613f73565b9150613fde8284613f96565b915081905092915050565b7f4f6e636861696e2067656e657261746976652061727400000000000000000000600082015250565b600061401f601683613f3f565b915061402a82613fe9565b601682019050919050565b600061404082614012565b9150819050919050565b7f222c202261747472696275746573223a5b000000000000000000000000000000600082015250565b6000614080601183613f3f565b915061408b8261404a565b601182019050919050565b7f7b2274726169745f74797065223a2022436f6c6f722050616c65747465222c2260008201527f76616c7565223a22000000000000000000000000000000000000000000000000602082015250565b60006140f2602883613f3f565b91506140fd82614096565b602882019050919050565b7f227d2c7b2274726169745f74797065223a20224c6179657273222c2276616c7560008201527f65223a2200000000000000000000000000000000000000000000000000000000602082015250565b6000614164602483613f3f565b915061416f82614108565b602482019050919050565b7f227d000000000000000000000000000000000000000000000000000000000000600082015250565b60006141b0600283613f3f565b91506141bb8261417a565b600282019050919050565b7f5d7d000000000000000000000000000000000000000000000000000000000000600082015250565b60006141fc600283613f3f565b9150614207826141c6565b600282019050919050565b600061421d82614073565b9150614228826140e5565b91506142348285613f96565b915061423f82614157565b915061424b8284613f96565b9150614256826141a3565b9150614261826141ef565b91508190509392505050565b60006142798284613f96565b915081905092915050565b7f7b226e616d65223a220000000000000000000000000000000000000000000000600082015250565b60006142ba600983613f3f565b91506142c582614284565b600982019050919050565b7f222c226465736372697074696f6e223a22000000000000000000000000000000600082015250565b6000614306601183613f3f565b9150614311826142d0565b601182019050919050565b7f222c22696d616765223a20000000000000000000000000000000000000000000600082015250565b6000614352600b83613f3f565b915061435d8261431c565b600b82019050919050565b7f2200000000000000000000000000000000000000000000000000000000000000600082015250565b600061439e600183613f3f565b91506143a982614368565b600182019050919050565b7f646174613a696d6167652f7376672b786d6c3b757466382c0000000000000000600082015250565b60006143ea601883613f3f565b91506143f5826143b4565b601882019050919050565b600081519050919050565b600081905092915050565b600061442182614400565b61442b818561440b565b935061443b81856020860161309e565b80840191505092915050565b6000614452826142ad565b915061445e8287613f96565b9150614469826142f9565b91506144758286613f96565b915061448082614345565b915061448b82614391565b9150614496826143dd565b91506144a28285614416565b91506144ae8284613f96565b915081905095945050505050565b7f646174613a6170706c69636174696f6e2f6a736f6e3b757466382c0000000000600082015250565b60006144f2601b83613f3f565b91506144fd826144bc565b601b82019050919050565b6000614513826144e5565b915061451f8284614416565b915081905092915050565b60008151905061453981613378565b92915050565b60006020828403121561455557614554612f32565b5b60006145638482850161452a565b91505092915050565b600082825260208201905092915050565b600061458882614400565b614592818561456c565b93506145a281856020860161309e565b6145ab816130c8565b840191505092915050565b60006080820190506145cb6000830187613197565b6145d86020830186613197565b6145e56040830185613201565b81810360608301526145f7818461457d565b905095945050505050565b60008151905061461181612f68565b92915050565b60006020828403121561462d5761462c612f32565b5b600061463b84828501614602565b91505092915050565b60006060820190506146596000830186613201565b6146666020830185613201565b6146736040830184613201565b949350505050565b600061468682613134565b915061469183613134565b92508282019050808211156146a9576146a8613714565b5b92915050565b600060408201905081810360008301526146c981856130d9565b90506146d86020830184613201565b9392505050565b600060ff82169050919050565b60006146f7826146df565b9150614702836146df565b9250828201905060ff81111561471b5761471a613714565b5b92915050565b7f4e487b7100000000000000000000000000000000000000000000000000000000600052603160045260246000fd5b7f4e487b7100000000000000000000000000000000000000000000000000000000600052605160045260246000fdfea2646970667358221220116b7dd6dc4df82ef71fe212649826674966983f52077e65b5197f579e7d911a64736f6c63430008140033",
  "linkReferences": {},
  "deployedLinkReferences": {}
}