{
  "_format": "hh-sol-artifact-1",
  "contractName": "myNFT",
  "sourceName": "contracts/myNFT.sol",
  "abi": [
    {
      "inputs": [
        {
          "internalType": "address",
          "name": "color",
          "type": "address"
        },
        {
          "internalType": "address",
          "name": "svg",
          "type": "address"
        }
      ],
      "stateMutability": "nonpayable",
      "type": "constructor"
    },
    {
      "anonymous": false,
      "inputs": [
        {
          "indexed": true,
          "internalType": "address",
          "name": "owner",
          "type": "address"
        },
        {
          "indexed": true,
          "internalType": "address",
          "name": "approved",
          "type": "address"
        },
        {
          "indexed": true,
          "internalType": "uint256",
          "name": "tokenId",
          "type": "uint256"
        }
      ],
      "name": "Approval",
      "type": "event"
    },
    {
      "anonymous": false,
      "inputs": [
        {
          "indexed": true,
          "internalType": "address",
          "name": "owner",
          "type": "address"
        },
        {
          "indexed": true,
          "internalType": "address",
          "name": "operator",
          "type": "address"
        },
        {
          "indexed": false,
          "internalType": "bool",
          "name": "approved",
          "type": "bool"
        }
      ],
      "name": "ApprovalForAll",
      "type": "event"
    },
    {
      "anonymous": false,
      "inputs": [
        {
          "indexed": true,
          "internalType": "address",
          "name": "previousOwner",
          "type": "address"
        },
        {
          "indexed": true,
          "internalType": "address",
          "name": "newOwner",
          "type": "address"
        }
      ],
      "name": "OwnershipTransferred",
      "type": "event"
    },
    {
      "anonymous": false,
      "inputs": [
        {
          "indexed": true,
          "internalType": "address",
          "name": "from",
          "type": "address"
        },
        {
          "indexed": true,
          "internalType": "address",
          "name": "to",
          "type": "address"
        },
        {
          "indexed": true,
          "internalType": "uint256",
          "name": "tokenId",
          "type": "uint256"
        }
      ],
      "name": "Transfer",
      "type": "event"
    },
    {
      "inputs": [
        {
          "internalType": "address",
          "name": "to",
          "type": "address"
        },
        {
          "internalType": "uint256",
          "name": "tokenId",
          "type": "uint256"
        }
      ],
      "name": "approve",
      "outputs": [],
      "stateMutability": "nonpayable",
      "type": "function"
    },
    {
      "inputs": [
        {
          "internalType": "address",
          "name": "owner",
          "type": "address"
        }
      ],
      "name": "balanceOf",
      "outputs": [
        {
          "internalType": "uint256",
          "name": "",
          "type": "uint256"
        }
      ],
      "stateMutability": "view",
      "type": "function"
    },
    {
      "inputs": [
        {
          "internalType": "uint256",
          "name": "tokenId",
          "type": "uint256"
        }
      ],
      "name": "getApproved",
      "outputs": [
        {
          "internalType": "address",
          "name": "",
          "type": "address"
        }
      ],
      "stateMutability": "view",
      "type": "function"
    },
    {
      "inputs": [
        {
          "internalType": "uint256",
          "name": "id",
          "type": "uint256"
        }
      ],
      "name": "getSVG",
      "outputs": [
        {
          "internalType": "string",
          "name": "",
          "type": "string"
        }
      ],
      "stateMutability": "view",
      "type": "function"
    },
    {
      "inputs": [
        {
          "internalType": "address",
          "name": "owner",
          "type": "address"
        },
        {
          "internalType": "address",
          "name": "operator",
          "type": "address"
        }
      ],
      "name": "isApprovedForAll",
      "outputs": [
        {
          "internalType": "bool",
          "name": "",
          "type": "bool"
        }
      ],
      "stateMutability": "view",
      "type": "function"
    },
    {
      "inputs": [],
      "name": "maxPerPerson",
      "outputs": [
        {
          "internalType": "uint16",
          "name": "",
          "type": "uint16"
        }
      ],
      "stateMutability": "view",
      "type": "function"
    },
    {
      "inputs": [],
      "name": "maxSupply",
      "outputs": [
        {
          "internalType": "uint16",
          "name": "",
          "type": "uint16"
        }
      ],
      "stateMutability": "view",
      "type": "function"
    },
    {
      "inputs": [],
      "name": "mintNFT",
      "outputs": [
        {
          "internalType": "uint256",
          "name": "",
          "type": "uint256"
        }
      ],
      "stateMutability": "payable",
      "type": "function"
    },
    {
      "inputs": [],
      "name": "name",
      "outputs": [
        {
          "internalType": "string",
          "name": "",
          "type": "string"
        }
      ],
      "stateMutability": "view",
      "type": "function"
    },
    {
      "inputs": [],
      "name": "owner",
      "outputs": [
        {
          "internalType": "address",
          "name": "",
          "type": "address"
        }
      ],
      "stateMutability": "view",
      "type": "function"
    },
    {
      "inputs": [
        {
          "internalType": "uint256",
          "name": "tokenId",
          "type": "uint256"
        }
      ],
      "name": "ownerOf",
      "outputs": [
        {
          "internalType": "address",
          "name": "",
          "type": "address"
        }
      ],
      "stateMutability": "view",
      "type": "function"
    },
    {
      "inputs": [],
      "name": "price",
      "outputs": [
        {
          "internalType": "uint256",
          "name": "",
          "type": "uint256"
        }
      ],
      "stateMutability": "view",
      "type": "function"
    },
    {
      "inputs": [],
      "name": "renounceOwnership",
      "outputs": [],
      "stateMutability": "nonpayable",
      "type": "function"
    },
    {
      "inputs": [
        {
          "internalType": "uint256",
          "name": "",
          "type": "uint256"
        }
      ],
      "name": "rnd",
      "outputs": [
        {
          "internalType": "uint256",
          "name": "",
          "type": "uint256"
        }
      ],
      "stateMutability": "view",
      "type": "function"
    },
    {
      "inputs": [],
      "name": "royalty",
      "outputs": [
        {
          "internalType": "uint16",
          "name": "",
          "type": "uint16"
        }
      ],
      "stateMutability": "view",
      "type": "function"
    },
    {
      "inputs": [],
      "name": "royaltyAddress",
      "outputs": [
        {
          "internalType": "address",
          "name": "",
          "type": "address"
        }
      ],
      "stateMutability": "view",
      "type": "function"
    },
    {
      "inputs": [
        {
          "internalType": "uint256",
          "name": "",
          "type": "uint256"
        },
        {
          "internalType": "uint256",
          "name": "_salePrice",
          "type": "uint256"
        }
      ],
      "name": "royaltyInfo",
      "outputs": [
        {
          "internalType": "address",
          "name": "",
          "type": "address"
        },
        {
          "internalType": "uint256",
          "name": "",
          "type": "uint256"
        }
      ],
      "stateMutability": "view",
      "type": "function"
    },
    {
      "inputs": [
        {
          "internalType": "address",
          "name": "from",
          "type": "address"
        },
        {
          "internalType": "address",
          "name": "to",
          "type": "address"
        },
        {
          "internalType": "uint256",
          "name": "tokenId",
          "type": "uint256"
        }
      ],
      "name": "safeTransferFrom",
      "outputs": [],
      "stateMutability": "nonpayable",
      "type": "function"
    },
    {
      "inputs": [
        {
          "internalType": "address",
          "name": "from",
          "type": "address"
        },
        {
          "internalType": "address",
          "name": "to",
          "type": "address"
        },
        {
          "internalType": "uint256",
          "name": "tokenId",
          "type": "uint256"
        },
        {
          "internalType": "bytes",
          "name": "_data",
          "type": "bytes"
        }
      ],
      "name": "safeTransferFrom",
      "outputs": [],
      "stateMutability": "nonpayable",
      "type": "function"
    },
    {
      "inputs": [
        {
          "internalType": "address",
          "name": "operator",
          "type": "address"
        },
        {
          "internalType": "bool",
          "name": "approved",
          "type": "bool"
        }
      ],
      "name": "setApprovalForAll",
      "outputs": [],
      "stateMutability": "nonpayable",
      "type": "function"
    },
    {
      "inputs": [
        {
          "internalType": "uint256",
          "name": "newPrice",
          "type": "uint256"
        }
      ],
      "name": "setPrice",
      "outputs": [],
      "stateMutability": "nonpayable",
      "type": "function"
    },
    {
      "inputs": [
        {
          "internalType": "uint16",
          "name": "_royalty",
          "type": "uint16"
        }
      ],
      "name": "setRoyalty",
      "outputs": [],
      "stateMutability": "nonpayable",
      "type": "function"
    },
    {
      "inputs": [
        {
          "internalType": "address",
          "name": "_royaltyAddress",
          "type": "address"
        }
      ],
      "name": "setRoyaltyAddress",
      "outputs": [],
      "stateMutability": "nonpayable",
      "type": "function"
    },
    {
      "inputs": [
        {
          "internalType": "bytes4",
          "name": "interfaceId",
          "type": "bytes4"
        }
      ],
      "name": "supportsInterface",
      "outputs": [
        {
          "internalType": "bool",
          "name": "",
          "type": "bool"
        }
      ],
      "stateMutability": "view",
      "type": "function"
    },
    {
      "inputs": [],
      "name": "symbol",
      "outputs": [
        {
          "internalType": "string",
          "name": "",
          "type": "string"
        }
      ],
      "stateMutability": "view",
      "type": "function"
    },
    {
      "inputs": [
        {
          "internalType": "uint256",
          "name": "index",
          "type": "uint256"
        }
      ],
      "name": "tokenByIndex",
      "outputs": [
        {
          "internalType": "uint256",
          "name": "",
          "type": "uint256"
        }
      ],
      "stateMutability": "view",
      "type": "function"
    },
    {
      "inputs": [
        {
          "internalType": "address",
          "name": "owner",
          "type": "address"
        },
        {
          "internalType": "uint256",
          "name": "index",
          "type": "uint256"
        }
      ],
      "name": "tokenOfOwnerByIndex",
      "outputs": [
        {
          "internalType": "uint256",
          "name": "",
          "type": "uint256"
        }
      ],
      "stateMutability": "view",
      "type": "function"
    },
    {
      "inputs": [
        {
          "internalType": "uint256",
          "name": "id",
          "type": "uint256"
        }
      ],
      "name": "tokenURI",
      "outputs": [
        {
          "internalType": "string",
          "name": "",
          "type": "string"
        }
      ],
      "stateMutability": "view",
      "type": "function"
    },
    {
      "inputs": [],
      "name": "totalSupply",
      "outputs": [
        {
          "internalType": "uint256",
          "name": "",
          "type": "uint256"
        }
      ],
      "stateMutability": "view",
      "type": "function"
    },
    {
      "inputs": [
        {
          "internalType": "address",
          "name": "from",
          "type": "address"
        },
        {
          "internalType": "address",
          "name": "to",
          "type": "address"
        },
        {
          "internalType": "uint256",
          "name": "tokenId",
          "type": "uint256"
        }
      ],
      "name": "transferFrom",
      "outputs": [],
      "stateMutability": "nonpayable",
      "type": "function"
    },
    {
      "inputs": [
        {
          "internalType": "address",
          "name": "newOwner",
          "type": "address"
        }
      ],
      "name": "transferOwnership",
      "outputs": [],
      "stateMutability": "nonpayable",
      "type": "function"
    },
    {
      "inputs": [],
      "name": "withdraw",
      "outputs": [],
      "stateMutability": "nonpayable",
      "type": "function"
    },
    {
      "inputs": [
        {
          "internalType": "address",
          "name": "token",
          "type": "address"
        }
      ],
      "name": "withdrawERC20",
      "outputs": [],
      "stateMutability": "nonpayable",
      "type": "function"
    },
    {
      "inputs": [
        {
          "internalType": "address",
          "name": "token",
          "type": "address"
        },
        {
          "internalType": "uint256",
          "name": "tokenId",
          "type": "uint256"
        }
      ],
      "name": "withdrawERC721",
      "outputs": [],
      "stateMutability": "nonpayable",
      "type": "function"
    },
    {
      "stateMutability": "payable",
      "type": "receive"
    }
  ],
  "bytecode": "0x608060405266038d7ea4c68000600c556103e8600d60006101000a81548161ffff021916908361ffff160217905550600a600d60026101000a81548161ffff021916908361ffff1602179055506103e8600d60046101000a81548161ffff021916908361ffff16021790555030600d60066101000a81548173ffffffffffffffffffffffffffffffffffffffff021916908373ffffffffffffffffffffffffffffffffffffffff160217905550348015620000b957600080fd5b5060405162005ce938038062005ce98339818101604052810190620000df9190620003be565b6040518060400160405280600b81526020017f4f6e636861696e204172740000000000000000000000000000000000000000008152506040518060400160405280600381526020017f4f43410000000000000000000000000000000000000000000000000000000000815250816000908051906020019062000163929190620002f7565b5080600190805190602001906200017c929190620002f7565b5050506200019f620001936200022960201b60201c565b6200023160201b60201c565b81600e60006101000a81548173ffffffffffffffffffffffffffffffffffffffff021916908373ffffffffffffffffffffffffffffffffffffffff16021790555080600f60006101000a81548173ffffffffffffffffffffffffffffffffffffffff021916908373ffffffffffffffffffffffffffffffffffffffff1602179055505050620004b2565b600033905090565b6000600a60009054906101000a900473ffffffffffffffffffffffffffffffffffffffff16905081600a60006101000a81548173ffffffffffffffffffffffffffffffffffffffff021916908373ffffffffffffffffffffffffffffffffffffffff1602179055508173ffffffffffffffffffffffffffffffffffffffff168173ffffffffffffffffffffffffffffffffffffffff167f8be0079c531659141344cd1fd0a4f28419497f9722a3daafe3b4186f6b6457e060405160405180910390a35050565b828054620003059062000433565b90600052602060002090601f01602090048101928262000329576000855562000375565b82601f106200034457805160ff191683800117855562000375565b8280016001018555821562000375579182015b828111156200037457825182559160200191906001019062000357565b5b50905062000384919062000388565b5090565b5b80821115620003a357600081600090555060010162000389565b5090565b600081519050620003b88162000498565b92915050565b60008060408385031215620003d257600080fd5b6000620003e285828601620003a7565b9250506020620003f585828601620003a7565b9150509250929050565b60006200040c8262000413565b9050919050565b600073ffffffffffffffffffffffffffffffffffffffff82169050919050565b600060028204905060018216806200044c57607f821691505b6020821081141562000463576200046262000469565b5b50919050565b7f4e487b7100000000000000000000000000000000000000000000000000000000600052602260045260246000fd5b620004a381620003ff565b8114620004af57600080fd5b50565b61582780620004c26000396000f3fe6080604052600436106101fd5760003560e01c806370a082311161010d578063ad2f852a116100a0578063d5abeb011161006f578063d5abeb0114610758578063e985e9c514610783578063f2fde38b146107c0578063f3e414f8146107e9578063f4f3b2001461081257610204565b8063ad2f852a1461068a578063b88d4fde146106b5578063be985ac9146106de578063c87b56dd1461071b57610204565b806391b7f5ed116100dc57806391b7f5ed146105e257806395d89b411461060b578063a035b1fe14610636578063a22cb4651461066157610204565b806370a0823114610538578063715018a614610575578063768d71381461058c5780638da5cb5b146105b757610204565b806329ee566c116101905780633ccfd60b1161015f5780633ccfd60b1461044157806342842e0e1461045857806346587516146104815780634f6ccce7146104be5780636352211e146104fb57610204565b806329ee566c146103725780632a55205a1461039d5780632f745c59146103db57806336e79a5a1461041857610204565b8063095ea7b3116101cc578063095ea7b3146102d757806314f710fe1461030057806318160ddd1461031e57806323b872dd1461034957610204565b806301ffc9a71461020957806306d254da1461024657806306fdde031461026f578063081812fc1461029a57610204565b3661020457005b600080fd5b34801561021557600080fd5b50610230600480360381019061022b9190613a25565b61083b565b60405161023d9190614578565b60405180910390f35b34801561025257600080fd5b5061026d60048036038101906102689190613814565b6108b5565b005b34801561027b57600080fd5b50610284610975565b6040516102919190614593565b60405180910390f35b3480156102a657600080fd5b506102c160048036038101906102bc9190613ae1565b610a07565b6040516102ce91906144b1565b60405180910390f35b3480156102e357600080fd5b506102fe60048036038101906102f9919061397f565b610a8c565b005b610308610ba4565b60405161031591906148b0565b60405180910390f35b34801561032a57600080fd5b50610333610d2f565b60405161034091906148b0565b60405180910390f35b34801561035557600080fd5b50610370600480360381019061036b9190613879565b610d3c565b005b34801561037e57600080fd5b50610387610d9c565b6040516103949190614895565b60405180910390f35b3480156103a957600080fd5b506103c460048036038101906103bf9190613b33565b610db0565b6040516103d292919061454f565b60405180910390f35b3480156103e757600080fd5b5061040260048036038101906103fd919061397f565b610e0e565b60405161040f91906148b0565b60405180910390f35b34801561042457600080fd5b5061043f600480360381019061043a9190613ab8565b610eb3565b005b34801561044d57600080fd5b50610456610fe0565b005b34801561046457600080fd5b5061047f600480360381019061047a9190613879565b6110ab565b005b34801561048d57600080fd5b506104a860048036038101906104a39190613ae1565b6110cb565b6040516104b591906148b0565b60405180910390f35b3480156104ca57600080fd5b506104e560048036038101906104e09190613ae1565b6110e3565b6040516104f291906148b0565b60405180910390f35b34801561050757600080fd5b50610522600480360381019061051d9190613ae1565b61117a565b60405161052f91906144b1565b60405180910390f35b34801561054457600080fd5b5061055f600480360381019061055a9190613814565b61122c565b60405161056c91906148b0565b60405180910390f35b34801561058157600080fd5b5061058a6112e4565b005b34801561059857600080fd5b506105a161136c565b6040516105ae9190614895565b60405180910390f35b3480156105c357600080fd5b506105cc611380565b6040516105d991906144b1565b60405180910390f35b3480156105ee57600080fd5b5061060960048036038101906106049190613ae1565b6113aa565b005b34801561061757600080fd5b50610620611430565b60405161062d9190614593565b60405180910390f35b34801561064257600080fd5b5061064b6114c2565b60405161065891906148b0565b60405180910390f35b34801561066d57600080fd5b5061068860048036038101906106839190613943565b6114c8565b005b34801561069657600080fd5b5061069f6114de565b6040516106ac91906144b1565b60405180910390f35b3480156106c157600080fd5b506106dc60048036038101906106d791906138c8565b611504565b005b3480156106ea57600080fd5b5061070560048036038101906107009190613ae1565b611566565b6040516107129190614593565b60405180910390f35b34801561072757600080fd5b50610742600480360381019061073d9190613ae1565b6117ac565b60405161074f9190614593565b60405180910390f35b34801561076457600080fd5b5061076d611ba7565b60405161077a9190614895565b60405180910390f35b34801561078f57600080fd5b506107aa60048036038101906107a5919061383d565b611bbb565b6040516107b79190614578565b60405180910390f35b3480156107cc57600080fd5b506107e760048036038101906107e29190613814565b611c4f565b005b3480156107f557600080fd5b50610810600480360381019061080b919061397f565b611d47565b005b34801561081e57600080fd5b5061083960048036038101906108349190613814565b611e3d565b005b60007f2a55205a000000000000000000000000000000000000000000000000000000007bffffffffffffffffffffffffffffffffffffffffffffffffffffffff1916827bffffffffffffffffffffffffffffffffffffffffffffffffffffffff191614806108ae57506108ad82611fd9565b5b9050919050565b6108bd612053565b73ffffffffffffffffffffffffffffffffffffffff166108db611380565b73ffffffffffffffffffffffffffffffffffffffff1614610931576040517f08c379a000000000000000000000000000000000000000000000000000000000815260040161092890614795565b60405180910390fd5b80600d60066101000a81548173ffffffffffffffffffffffffffffffffffffffff021916908373ffffffffffffffffffffffffffffffffffffffff16021790555050565b60606000805461098490614ca4565b80601f01602080910402602001604051908101604052809291908181526020018280546109b090614ca4565b80156109fd5780601f106109d2576101008083540402835291602001916109fd565b820191906000526020600020905b8154815290600101906020018083116109e057829003601f168201915b5050505050905090565b6000610a128261205b565b610a51576040517f08c379a0000000000000000000000000000000000000000000000000000000008152600401610a4890614775565b60405180910390fd5b6004600083815260200190815260200160002060009054906101000a900473ffffffffffffffffffffffffffffffffffffffff169050919050565b6000610a978261117a565b90508073ffffffffffffffffffffffffffffffffffffffff168373ffffffffffffffffffffffffffffffffffffffff161415610b08576040517f08c379a0000000000000000000000000000000000000000000000000000000008152600401610aff906147f5565b60405180910390fd5b8073ffffffffffffffffffffffffffffffffffffffff16610b27612053565b73ffffffffffffffffffffffffffffffffffffffff161480610b565750610b5581610b50612053565b611bbb565b5b610b95576040517f08c379a0000000000000000000000000000000000000000000000000000000008152600401610b8c906146d5565b60405180910390fd5b610b9f83836120c7565b505050565b6000600c543414610bea576040517f08c379a0000000000000000000000000000000000000000000000000000000008152600401610be1906147d5565b60405180910390fd5b600d60009054906101000a900461ffff1661ffff16610c07610d2f565b10610c47576040517f08c379a0000000000000000000000000000000000000000000000000000000008152600401610c3e90614855565b60405180910390fd5b600d60029054906101000a900461ffff1661ffff166001610c673361122c565b610c719190614a7d565b1115610cb2576040517f08c379a0000000000000000000000000000000000000000000000000000000008152600401610ca990614735565b60405180910390fd5b610cbc600b612180565b6000610cc8600b612196565b9050610cd433826121a4565b80600143610ce29190614b95565b403330604051602001610cf89493929190614463565b6040516020818303038152906040528051906020012060001c60106000838152602001908152602001600020819055508091505090565b6000600880549050905090565b610d4d610d47612053565b826121c2565b610d8c576040517f08c379a0000000000000000000000000000000000000000000000000000000008152600401610d8390614815565b60405180910390fd5b610d978383836122a0565b505050565b600d60049054906101000a900461ffff1681565b600080600d60069054906101000a900473ffffffffffffffffffffffffffffffffffffffff16612710600d60049054906101000a900461ffff1661ffff1685610df99190614b3b565b610e039190614b0a565b915091509250929050565b6000610e198361122c565b8210610e5a576040517f08c379a0000000000000000000000000000000000000000000000000000000008152600401610e51906145b5565b60405180910390fd5b600660008473ffffffffffffffffffffffffffffffffffffffff1673ffffffffffffffffffffffffffffffffffffffff168152602001908152602001600020600083815260200190815260200160002054905092915050565b610ebb612053565b73ffffffffffffffffffffffffffffffffffffffff16610ed9611380565b73ffffffffffffffffffffffffffffffffffffffff1614610f2f576040517f08c379a0000000000000000000000000000000000000000000000000000000008152600401610f2690614795565b60405180910390fd5b60008161ffff161015610f77576040517f08c379a0000000000000000000000000000000000000000000000000000000008152600401610f6e90614875565b60405180910390fd5b6103e88161ffff161115610fc0576040517f08c379a0000000000000000000000000000000000000000000000000000000008152600401610fb790614695565b60405180910390fd5b80600d60046101000a81548161ffff021916908361ffff16021790555050565b610fe8612053565b73ffffffffffffffffffffffffffffffffffffffff16611006611380565b73ffffffffffffffffffffffffffffffffffffffff161461105c576040517f08c379a000000000000000000000000000000000000000000000000000000000815260040161105390614795565b60405180910390fd5b60004790503373ffffffffffffffffffffffffffffffffffffffff166108fc829081150290604051600060405180830381858888f193505050501580156110a7573d6000803e3d6000fd5b5050565b6110c683838360405180602001604052806000815250611504565b505050565b60106020528060005260406000206000915090505481565b60006110ed610d2f565b821061112e576040517f08c379a000000000000000000000000000000000000000000000000000000000815260040161112590614835565b60405180910390fd5b60088281548110611168577f4e487b7100000000000000000000000000000000000000000000000000000000600052603260045260246000fd5b90600052602060002001549050919050565b6000806002600084815260200190815260200160002060009054906101000a900473ffffffffffffffffffffffffffffffffffffffff169050600073ffffffffffffffffffffffffffffffffffffffff168173ffffffffffffffffffffffffffffffffffffffff161415611223576040517f08c379a000000000000000000000000000000000000000000000000000000000815260040161121a90614715565b60405180910390fd5b80915050919050565b60008073ffffffffffffffffffffffffffffffffffffffff168273ffffffffffffffffffffffffffffffffffffffff16141561129d576040517f08c379a0000000000000000000000000000000000000000000000000000000008152600401611294906146f5565b60405180910390fd5b600360008373ffffffffffffffffffffffffffffffffffffffff1673ffffffffffffffffffffffffffffffffffffffff168152602001908152602001600020549050919050565b6112ec612053565b73ffffffffffffffffffffffffffffffffffffffff1661130a611380565b73ffffffffffffffffffffffffffffffffffffffff1614611360576040517f08c379a000000000000000000000000000000000000000000000000000000000815260040161135790614795565b60405180910390fd5b61136a60006124fc565b565b600d60029054906101000a900461ffff1681565b6000600a60009054906101000a900473ffffffffffffffffffffffffffffffffffffffff16905090565b6113b2612053565b73ffffffffffffffffffffffffffffffffffffffff166113d0611380565b73ffffffffffffffffffffffffffffffffffffffff1614611426576040517f08c379a000000000000000000000000000000000000000000000000000000000815260040161141d90614795565b60405180910390fd5b80600c8190555050565b60606001805461143f90614ca4565b80601f016020809104026020016040519081016040528092919081815260200182805461146b90614ca4565b80156114b85780601f1061148d576101008083540402835291602001916114b8565b820191906000526020600020905b81548152906001019060200180831161149b57829003601f168201915b5050505050905090565b600c5481565b6114da6114d3612053565b83836125c2565b5050565b600d60069054906101000a900473ffffffffffffffffffffffffffffffffffffffff1681565b61151561150f612053565b836121c2565b611554576040517f08c379a000000000000000000000000000000000000000000000000000000000815260040161154b90614815565b60405180910390fd5b6115608484848461272f565b50505050565b60606000600e60009054906101000a900473ffffffffffffffffffffffffffffffffffffffff1673ffffffffffffffffffffffffffffffffffffffff1663d32c196b6040518163ffffffff1660e01b815260040160206040518083038186803b1580156115d257600080fd5b505afa1580156115e6573d6000803e3d6000fd5b505050506040513d601f19601f8201168201806040525081019061160a9190613b0a565b60106000858152602001908152602001600020546116289190614d88565b90506000600e60009054906101000a900473ffffffffffffffffffffffffffffffffffffffff1673ffffffffffffffffffffffffffffffffffffffff166304c362f2836040518263ffffffff1660e01b815260040161168791906148b0565b60006040518083038186803b15801561169f57600080fd5b505afa1580156116b3573d6000803e3d6000fd5b505050506040513d6000823e3d601f19601f820116820180604052508101906116dc91906139bb565b9050600f60009054906101000a900473ffffffffffffffffffffffffffffffffffffffff1673ffffffffffffffffffffffffffffffffffffffff16636e088aea6010600087815260200190815260200160002054836040518363ffffffff1660e01b815260040161174e9291906148cb565b60006040518083038186803b15801561176657600080fd5b505afa15801561177a573d6000803e3d6000fd5b505050506040513d6000823e3d601f19601f820116820180604052508101906117a39190613a77565b92505050919050565b60606117b78261205b565b6117f6576040517f08c379a00000000000000000000000000000000000000000000000000000000081526004016117ed906146b5565b60405180910390fd5b60006118018361278b565b604051602001611811919061440a565b604051602081830303815290604052905060006040516020016118339061444e565b6040516020818303038152906040529050600061184f85611566565b90506000600e60009054906101000a900473ffffffffffffffffffffffffffffffffffffffff1673ffffffffffffffffffffffffffffffffffffffff1663d32c196b6040518163ffffffff1660e01b815260040160206040518083038186803b1580156118bb57600080fd5b505afa1580156118cf573d6000803e3d6000fd5b505050506040513d601f19601f820116820180604052508101906118f39190613b0a565b60106000888152602001908152602001600020546119119190614d88565b9050600061193960106000898152602001908152602001600020546000600f60196001612938565b600081518110611972577f4e487b7100000000000000000000000000000000000000000000000000000000600052603260045260246000fd5b6020026020010151905060006119ad601060008a8152602001908152602001600020546001600060026003876119a89190614b3b565b612938565b90506000806000805b85811015611add5760008190508581815181106119fc577f4e487b7100000000000000000000000000000000000000000000000000000000600052603260045260246000fd5b602002602001015185611a0f9190614a7d565b94508681611a1d9190614a7d565b9050858181518110611a58577f4e487b7100000000000000000000000000000000000000000000000000000000600052603260045260246000fd5b602002602001015184611a6b9190614a7d565b93508681611a799190614a7d565b9050858181518110611ab4577f4e487b7100000000000000000000000000000000000000000000000000000000600052603260045260246000fd5b602002602001015183611ac79190614a7d565b9250508080611ad590614d07565b9150506119b6565b506000611ae987612a67565b611af287612a67565b611afb86612a67565b611b0486612a67565b611b0d86612a67565b604051602001611b21959493929190614367565b6040516020818303038152906040529050898989604051602001611b4591906142db565b60405160208183030381529060405283604051602001611b6894939291906142f2565b604051602081830303815290604052604051602001611b87919061442c565b6040516020818303038152906040529a5050505050505050505050919050565b600d60009054906101000a900461ffff1681565b6000600560008473ffffffffffffffffffffffffffffffffffffffff1673ffffffffffffffffffffffffffffffffffffffff16815260200190815260200160002060008373ffffffffffffffffffffffffffffffffffffffff1673ffffffffffffffffffffffffffffffffffffffff16815260200190815260200160002060009054906101000a900460ff16905092915050565b611c57612053565b73ffffffffffffffffffffffffffffffffffffffff16611c75611380565b73ffffffffffffffffffffffffffffffffffffffff1614611ccb576040517f08c379a0000000000000000000000000000000000000000000000000000000008152600401611cc290614795565b60405180910390fd5b600073ffffffffffffffffffffffffffffffffffffffff168173ffffffffffffffffffffffffffffffffffffffff161415611d3b576040517f08c379a0000000000000000000000000000000000000000000000000000000008152600401611d32906145f5565b60405180910390fd5b611d44816124fc565b50565b611d4f612053565b73ffffffffffffffffffffffffffffffffffffffff16611d6d611380565b73ffffffffffffffffffffffffffffffffffffffff1614611dc3576040517f08c379a0000000000000000000000000000000000000000000000000000000008152600401611dba90614795565b60405180910390fd5b8173ffffffffffffffffffffffffffffffffffffffff166323b872dd30611de8611380565b846040518463ffffffff1660e01b8152600401611e07939291906144cc565b600060405180830381600087803b158015611e2157600080fd5b505af1158015611e35573d6000803e3d6000fd5b505050505050565b611e45612053565b73ffffffffffffffffffffffffffffffffffffffff16611e63611380565b73ffffffffffffffffffffffffffffffffffffffff1614611eb9576040517f08c379a0000000000000000000000000000000000000000000000000000000008152600401611eb090614795565b60405180910390fd5b8073ffffffffffffffffffffffffffffffffffffffff1663a9059cbb611edd611380565b8373ffffffffffffffffffffffffffffffffffffffff166370a08231306040518263ffffffff1660e01b8152600401611f1691906144b1565b60206040518083038186803b158015611f2e57600080fd5b505afa158015611f42573d6000803e3d6000fd5b505050506040513d601f19601f82011682018060405250810190611f669190613b0a565b6040518363ffffffff1660e01b8152600401611f8392919061454f565b602060405180830381600087803b158015611f9d57600080fd5b505af1158015611fb1573d6000803e3d6000fd5b505050506040513d601f19601f82011682018060405250810190611fd591906139fc565b5050565b60007f780e9d63000000000000000000000000000000000000000000000000000000007bffffffffffffffffffffffffffffffffffffffffffffffffffffffff1916827bffffffffffffffffffffffffffffffffffffffffffffffffffffffff1916148061204c575061204b82612c3c565b5b9050919050565b600033905090565b60008073ffffffffffffffffffffffffffffffffffffffff166002600084815260200190815260200160002060009054906101000a900473ffffffffffffffffffffffffffffffffffffffff1673ffffffffffffffffffffffffffffffffffffffff1614159050919050565b816004600083815260200190815260200160002060006101000a81548173ffffffffffffffffffffffffffffffffffffffff021916908373ffffffffffffffffffffffffffffffffffffffff160217905550808273ffffffffffffffffffffffffffffffffffffffff1661213a8361117a565b73ffffffffffffffffffffffffffffffffffffffff167f8c5be1e5ebec7d5bd14f71427d1e84f3dd0314c0f7b2291e5b200ac8c7c3b92560405160405180910390a45050565b6001816000016000828254019250508190555050565b600081600001549050919050565b6121be828260405180602001604052806000815250612d1e565b5050565b60006121cd8261205b565b61220c576040517f08c379a000000000000000000000000000000000000000000000000000000000815260040161220390614675565b60405180910390fd5b60006122178361117a565b90508073ffffffffffffffffffffffffffffffffffffffff168473ffffffffffffffffffffffffffffffffffffffff16148061228657508373ffffffffffffffffffffffffffffffffffffffff1661226e84610a07565b73ffffffffffffffffffffffffffffffffffffffff16145b8061229757506122968185611bbb565b5b91505092915050565b8273ffffffffffffffffffffffffffffffffffffffff166122c08261117a565b73ffffffffffffffffffffffffffffffffffffffff1614612316576040517f08c379a000000000000000000000000000000000000000000000000000000000815260040161230d906147b5565b60405180910390fd5b600073ffffffffffffffffffffffffffffffffffffffff168273ffffffffffffffffffffffffffffffffffffffff161415612386576040517f08c379a000000000000000000000000000000000000000000000000000000000815260040161237d90614635565b60405180910390fd5b612391838383612d79565b61239c6000826120c7565b6001600360008573ffffffffffffffffffffffffffffffffffffffff1673ffffffffffffffffffffffffffffffffffffffff16815260200190815260200160002060008282546123ec9190614b95565b925050819055506001600360008473ffffffffffffffffffffffffffffffffffffffff1673ffffffffffffffffffffffffffffffffffffffff16815260200190815260200160002060008282546124439190614a7d565b92505081905550816002600083815260200190815260200160002060006101000a81548173ffffffffffffffffffffffffffffffffffffffff021916908373ffffffffffffffffffffffffffffffffffffffff160217905550808273ffffffffffffffffffffffffffffffffffffffff168473ffffffffffffffffffffffffffffffffffffffff167fddf252ad1be2c89b69c2b068fc378daa952ba7f163c4a11628f55a4df523b3ef60405160405180910390a4505050565b6000600a60009054906101000a900473ffffffffffffffffffffffffffffffffffffffff16905081600a60006101000a81548173ffffffffffffffffffffffffffffffffffffffff021916908373ffffffffffffffffffffffffffffffffffffffff1602179055508173ffffffffffffffffffffffffffffffffffffffff168173ffffffffffffffffffffffffffffffffffffffff167f8be0079c531659141344cd1fd0a4f28419497f9722a3daafe3b4186f6b6457e060405160405180910390a35050565b8173ffffffffffffffffffffffffffffffffffffffff168373ffffffffffffffffffffffffffffffffffffffff161415612631576040517f08c379a000000000000000000000000000000000000000000000000000000000815260040161262890614655565b60405180910390fd5b80600560008573ffffffffffffffffffffffffffffffffffffffff1673ffffffffffffffffffffffffffffffffffffffff16815260200190815260200160002060008473ffffffffffffffffffffffffffffffffffffffff1673ffffffffffffffffffffffffffffffffffffffff16815260200190815260200160002060006101000a81548160ff0219169083151502179055508173ffffffffffffffffffffffffffffffffffffffff168373ffffffffffffffffffffffffffffffffffffffff167f17307eab39ab6107e8899845ad3d59bd9653f200f220920489ca2b5937696c31836040516127229190614578565b60405180910390a3505050565b61273a8484846122a0565b61274684848484612e8d565b612785576040517f08c379a000000000000000000000000000000000000000000000000000000000815260040161277c906145d5565b60405180910390fd5b50505050565b606060008214156127d3576040518060400160405280600181526020017f30000000000000000000000000000000000000000000000000000000000000008152509050612933565b600082905060005b600082146128055780806127ee90614d07565b915050600a826127fe9190614b0a565b91506127db565b60008167ffffffffffffffff811115612847577f4e487b7100000000000000000000000000000000000000000000000000000000600052604160045260246000fd5b6040519080825280601f01601f1916602001820160405280156128795781602001600182028036833780820191505090505b5090505b6000851461292c576001826128929190614b95565b9150600a856128a19190614d88565b60306128ad9190614a7d565b60f81b8183815181106128e9577f4e487b7100000000000000000000000000000000000000000000000000000000600052603260045260246000fd5b60200101907effffffffffffffffffffffffffffffffffffffffffffffffffffffffffffff1916908160001a905350600a856129259190614b0a565b945061287d565b8093505050505b919050565b60608167ffffffffffffffff81111561297a577f4e487b7100000000000000000000000000000000000000000000000000000000600052604160045260246000fd5b6040519080825280602002602001820160405280156129a85781602001602082028036833780820191505090505b50905060005b82811015612a5d578485856129c39190614b95565b8888846040516020016129d8939291906148fb565b6040516020818303038152906040528051906020012060001c6129fb9190614d88565b612a059190614a7d565b828281518110612a3e577f4e487b7100000000000000000000000000000000000000000000000000000000600052603260045260246000fd5b6020026020010181815250508080612a5590614d07565b9150506129ae565b5095945050505050565b60606000821415612aaf576040518060400160405280600181526020017f30000000000000000000000000000000000000000000000000000000000000008152509050612c37565b600082905060005b60008214612ae1578080612aca90614d07565b915050600a82612ada9190614b0a565b9150612ab7565b60008167ffffffffffffffff811115612b23577f4e487b7100000000000000000000000000000000000000000000000000000000600052604160045260246000fd5b6040519080825280601f01601f191660200182016040528015612b555781602001600182028036833780820191505090505b50905060008290505b60008614612c2f57600181612b739190614b95565b90506000600a8088612b859190614b0a565b612b8f9190614b3b565b87612b9a9190614b95565b6030612ba69190614ad3565b905060008160f81b905080848481518110612bea577f4e487b7100000000000000000000000000000000000000000000000000000000600052603260045260246000fd5b60200101907effffffffffffffffffffffffffffffffffffffffffffffffffffffffffffff1916908160001a905350600a88612c269190614b0a565b97505050612b5e565b819450505050505b919050565b60007f80ac58cd000000000000000000000000000000000000000000000000000000007bffffffffffffffffffffffffffffffffffffffffffffffffffffffff1916827bffffffffffffffffffffffffffffffffffffffffffffffffffffffff19161480612d0757507f5b5e139f000000000000000000000000000000000000000000000000000000007bffffffffffffffffffffffffffffffffffffffffffffffffffffffff1916827bffffffffffffffffffffffffffffffffffffffffffffffffffffffff1916145b80612d175750612d1682613024565b5b9050919050565b612d28838361308e565b612d356000848484612e8d565b612d74576040517f08c379a0000000000000000000000000000000000000000000000000000000008152600401612d6b906145d5565b60405180910390fd5b505050565b612d8483838361325c565b600073ffffffffffffffffffffffffffffffffffffffff168373ffffffffffffffffffffffffffffffffffffffff161415612dc757612dc281613261565b612e06565b8173ffffffffffffffffffffffffffffffffffffffff168373ffffffffffffffffffffffffffffffffffffffff1614612e0557612e0483826132aa565b5b5b600073ffffffffffffffffffffffffffffffffffffffff168273ffffffffffffffffffffffffffffffffffffffff161415612e4957612e4481613417565b612e88565b8273ffffffffffffffffffffffffffffffffffffffff168273ffffffffffffffffffffffffffffffffffffffff1614612e8757612e86828261355a565b5b5b505050565b6000612eae8473ffffffffffffffffffffffffffffffffffffffff166135d9565b15613017578373ffffffffffffffffffffffffffffffffffffffff1663150b7a02612ed7612053565b8786866040518563ffffffff1660e01b8152600401612ef99493929190614503565b602060405180830381600087803b158015612f1357600080fd5b505af1925050508015612f4457506040513d601f19601f82011682018060405250810190612f419190613a4e565b60015b612fc7573d8060008114612f74576040519150601f19603f3d011682016040523d82523d6000602084013e612f79565b606091505b50600081511415612fbf576040517f08c379a0000000000000000000000000000000000000000000000000000000008152600401612fb6906145d5565b60405180910390fd5b805181602001fd5b63150b7a0260e01b7bffffffffffffffffffffffffffffffffffffffffffffffffffffffff1916817bffffffffffffffffffffffffffffffffffffffffffffffffffffffff19161491505061301c565b600190505b949350505050565b60007f01ffc9a7000000000000000000000000000000000000000000000000000000007bffffffffffffffffffffffffffffffffffffffffffffffffffffffff1916827bffffffffffffffffffffffffffffffffffffffffffffffffffffffff1916149050919050565b600073ffffffffffffffffffffffffffffffffffffffff168273ffffffffffffffffffffffffffffffffffffffff1614156130fe576040517f08c379a00000000000000000000000000000000000000000000000000000000081526004016130f590614755565b60405180910390fd5b6131078161205b565b15613147576040517f08c379a000000000000000000000000000000000000000000000000000000000815260040161313e90614615565b60405180910390fd5b61315360008383612d79565b6001600360008473ffffffffffffffffffffffffffffffffffffffff1673ffffffffffffffffffffffffffffffffffffffff16815260200190815260200160002060008282546131a39190614a7d565b92505081905550816002600083815260200190815260200160002060006101000a81548173ffffffffffffffffffffffffffffffffffffffff021916908373ffffffffffffffffffffffffffffffffffffffff160217905550808273ffffffffffffffffffffffffffffffffffffffff16600073ffffffffffffffffffffffffffffffffffffffff167fddf252ad1be2c89b69c2b068fc378daa952ba7f163c4a11628f55a4df523b3ef60405160405180910390a45050565b505050565b6008805490506009600083815260200190815260200160002081905550600881908060018154018082558091505060019003906000526020600020016000909190919091505550565b600060016132b78461122c565b6132c19190614b95565b90506000600760008481526020019081526020016000205490508181146133a6576000600660008673ffffffffffffffffffffffffffffffffffffffff1673ffffffffffffffffffffffffffffffffffffffff168152602001908152602001600020600084815260200190815260200160002054905080600660008773ffffffffffffffffffffffffffffffffffffffff1673ffffffffffffffffffffffffffffffffffffffff168152602001908152602001600020600084815260200190815260200160002081905550816007600083815260200190815260200160002081905550505b6007600084815260200190815260200160002060009055600660008573ffffffffffffffffffffffffffffffffffffffff1673ffffffffffffffffffffffffffffffffffffffff16815260200190815260200160002060008381526020019081526020016000206000905550505050565b6000600160088054905061342b9190614b95565b9050600060096000848152602001908152602001600020549050600060088381548110613481577f4e487b7100000000000000000000000000000000000000000000000000000000600052603260045260246000fd5b9060005260206000200154905080600883815481106134c9577f4e487b7100000000000000000000000000000000000000000000000000000000600052603260045260246000fd5b90600052602060002001819055508160096000838152602001908152602001600020819055506009600085815260200190815260200160002060009055600880548061353e577f4e487b7100000000000000000000000000000000000000000000000000000000600052603160045260246000fd5b6001900381819060005260206000200160009055905550505050565b60006135658361122c565b905081600660008573ffffffffffffffffffffffffffffffffffffffff1673ffffffffffffffffffffffffffffffffffffffff168152602001908152602001600020600083815260200190815260200160002081905550806007600084815260200190815260200160002081905550505050565b600080823b905060008111915050919050565b60006135ff6135fa84614957565b614932565b9050808382526020820190508285602086028201111561361e57600080fd5b60005b8581101561366857815167ffffffffffffffff81111561364057600080fd5b80860161364d89826137ab565b85526020850194506020840193505050600181019050613621565b5050509392505050565b600061368561368084614983565b614932565b90508281526020810184848401111561369d57600080fd5b6136a8848285614c62565b509392505050565b60006136c36136be846149b4565b614932565b9050828152602081018484840111156136db57600080fd5b6136e6848285614c71565b509392505050565b6000813590506136fd8161577e565b92915050565b600082601f83011261371457600080fd5b81516137248482602086016135ec565b91505092915050565b60008135905061373c81615795565b92915050565b60008151905061375181615795565b92915050565b600081359050613766816157ac565b92915050565b60008151905061377b816157ac565b92915050565b600082601f83011261379257600080fd5b81356137a2848260208601613672565b91505092915050565b600082601f8301126137bc57600080fd5b81516137cc8482602086016136b0565b91505092915050565b6000813590506137e4816157c3565b92915050565b6000813590506137f9816157da565b92915050565b60008151905061380e816157da565b92915050565b60006020828403121561382657600080fd5b6000613834848285016136ee565b91505092915050565b6000806040838503121561385057600080fd5b600061385e858286016136ee565b925050602061386f858286016136ee565b9150509250929050565b60008060006060848603121561388e57600080fd5b600061389c868287016136ee565b93505060206138ad868287016136ee565b92505060406138be868287016137ea565b9150509250925092565b600080600080608085870312156138de57600080fd5b60006138ec878288016136ee565b94505060206138fd878288016136ee565b935050604061390e878288016137ea565b925050606085013567ffffffffffffffff81111561392b57600080fd5b61393787828801613781565b91505092959194509250565b6000806040838503121561395657600080fd5b6000613964858286016136ee565b92505060206139758582860161372d565b9150509250929050565b6000806040838503121561399257600080fd5b60006139a0858286016136ee565b92505060206139b1858286016137ea565b9150509250929050565b6000602082840312156139cd57600080fd5b600082015167ffffffffffffffff8111156139e757600080fd5b6139f384828501613703565b91505092915050565b600060208284031215613a0e57600080fd5b6000613a1c84828501613742565b91505092915050565b600060208284031215613a3757600080fd5b6000613a4584828501613757565b91505092915050565b600060208284031215613a6057600080fd5b6000613a6e8482850161376c565b91505092915050565b600060208284031215613a8957600080fd5b600082015167ffffffffffffffff811115613aa357600080fd5b613aaf848285016137ab565b91505092915050565b600060208284031215613aca57600080fd5b6000613ad8848285016137d5565b91505092915050565b600060208284031215613af357600080fd5b6000613b01848285016137ea565b91505092915050565b600060208284031215613b1c57600080fd5b6000613b2a848285016137ff565b91505092915050565b60008060408385031215613b4657600080fd5b6000613b54858286016137ea565b9250506020613b65858286016137ea565b9150509250929050565b6000613b7b8383613cae565b905092915050565b613b8c81614bc9565b82525050565b613ba3613b9e82614bc9565b614d50565b82525050565b6000613bb4826149f5565b613bbe8185614a23565b935083602082028501613bd0856149e5565b8060005b85811015613c0c5784840389528151613bed8582613b6f565b9450613bf883614a16565b925060208a01995050600181019050613bd4565b50829750879550505050505092915050565b613c2781614bdb565b82525050565b613c3e613c3982614be7565b614d62565b82525050565b6000613c4f82614a00565b613c598185614a34565b9350613c69818560208601614c71565b613c7281614e75565b840191505092915050565b6000613c8882614a00565b613c928185614a45565b9350613ca2818560208601614c71565b80840191505092915050565b6000613cb982614a0b565b613cc38185614a50565b9350613cd3818560208601614c71565b613cdc81614e75565b840191505092915050565b6000613cf282614a0b565b613cfc8185614a61565b9350613d0c818560208601614c71565b613d1581614e75565b840191505092915050565b6000613d2b82614a0b565b613d358185614a72565b9350613d45818560208601614c71565b80840191505092915050565b6000613d5e600983614a72565b9150613d6982614e93565b600982019050919050565b6000613d81602b83614a61565b9150613d8c82614ebc565b604082019050919050565b6000613da4603283614a61565b9150613daf82614f0b565b604082019050919050565b6000613dc7601183614a72565b9150613dd282614f5a565b601182019050919050565b6000613dea602683614a61565b9150613df582614f83565b604082019050919050565b6000613e0d601c83614a61565b9150613e1882614fd2565b602082019050919050565b6000613e30602583614a72565b9150613e3b82614ffb565b602582019050919050565b6000613e53602483614a61565b9150613e5e8261504a565b604082019050919050565b6000613e76602883614a72565b9150613e8182615099565b602882019050919050565b6000613e99601983614a61565b9150613ea4826150e8565b602082019050919050565b6000613ebc600b83614a72565b9150613ec782615111565b600b82019050919050565b6000613edf601183614a72565b9150613eea8261513a565b601182019050919050565b6000613f02602383614a72565b9150613f0d82615163565b602382019050919050565b6000613f25602c83614a61565b9150613f30826151b2565b604082019050919050565b6000613f48601683614a61565b9150613f5382615201565b602082019050919050565b6000613f6b600983614a61565b9150613f768261522a565b602082019050919050565b6000613f8e603883614a61565b9150613f9982615253565b604082019050919050565b6000613fb1600183614a72565b9150613fbc826152a2565b600182019050919050565b6000613fd4602a83614a61565b9150613fdf826152cb565b604082019050919050565b6000613ff7602983614a61565b91506140028261531a565b604082019050919050565b600061401a600f83614a61565b915061402582615369565b602082019050919050565b600061403d600283614a72565b915061404882615392565b600282019050919050565b6000614060602083614a61565b915061406b826153bb565b602082019050919050565b6000614083602c83614a61565b915061408e826153e4565b604082019050919050565b60006140a6601b83614a72565b91506140b182615433565b601b82019050919050565b60006140c9602083614a61565b91506140d48261545c565b602082019050919050565b60006140ec602983614a61565b91506140f782615485565b604082019050919050565b600061410f600b83614a72565b915061411a826154d4565b600b82019050919050565b6000614132600b83614a61565b915061413d826154fd565b602082019050919050565b6000614155601683614a72565b915061416082615526565b601682019050919050565b6000614178602783614a72565b91506141838261554f565b602782019050919050565b600061419b600283614a72565b91506141a68261559e565b600282019050919050565b60006141be602483614a72565b91506141c9826155c7565b602482019050919050565b60006141e1602183614a61565b91506141ec82615616565b604082019050919050565b6000614204601883614a72565b915061420f82615665565b601882019050919050565b6000614227603183614a61565b91506142328261568e565b604082019050919050565b600061424a602c83614a61565b9150614255826156dd565b604082019050919050565b600061426d600983614a61565b91506142788261572c565b602082019050919050565b6000614290601583614a61565b915061429b82615755565b602082019050919050565b6142af81614c1d565b82525050565b6142be81614c4b565b82525050565b6142d56142d082614c4b565b614d7e565b82525050565b60006142e78284613d20565b915081905092915050565b60006142fd82613d51565b91506143098287613d20565b915061431482613ed2565b91506143208286613d20565b915061432b82614102565b915061433682613fa4565b9150614341826141f7565b915061434d8285613c7d565b91506143598284613d20565b915081905095945050505050565b600061437282613dba565b915061437d82613e69565b91506143898288613d20565b9150614394826141b1565b91506143a08287613d20565b91506143ab82613ef5565b91506143b78286613d20565b91506143c28261416b565b91506143ce8285613d20565b91506143d982613e23565b91506143e58284613d20565b91506143f082614030565b91506143fb8261418e565b91508190509695505050505050565b600061441582613eaf565b91506144218284613d20565b915081905092915050565b600061443782614099565b91506144438284613c7d565b915081905092915050565b600061445982614148565b9150819050919050565b600061446f82876142c4565b60208201915061447f8286613c2d565b60208201915061448f8285613b92565b60148201915061449f8284613b92565b60148201915081905095945050505050565b60006020820190506144c66000830184613b83565b92915050565b60006060820190506144e16000830186613b83565b6144ee6020830185613b83565b6144fb60408301846142b5565b949350505050565b60006080820190506145186000830187613b83565b6145256020830186613b83565b61453260408301856142b5565b81810360608301526145448184613c44565b905095945050505050565b60006040820190506145646000830185613b83565b61457160208301846142b5565b9392505050565b600060208201905061458d6000830184613c1e565b92915050565b600060208201905081810360008301526145ad8184613ce7565b905092915050565b600060208201905081810360008301526145ce81613d74565b9050919050565b600060208201905081810360008301526145ee81613d97565b9050919050565b6000602082019050818103600083015261460e81613ddd565b9050919050565b6000602082019050818103600083015261462e81613e00565b9050919050565b6000602082019050818103600083015261464e81613e46565b9050919050565b6000602082019050818103600083015261466e81613e8c565b9050919050565b6000602082019050818103600083015261468e81613f18565b9050919050565b600060208201905081810360008301526146ae81613f3b565b9050919050565b600060208201905081810360008301526146ce81613f5e565b9050919050565b600060208201905081810360008301526146ee81613f81565b9050919050565b6000602082019050818103600083015261470e81613fc7565b9050919050565b6000602082019050818103600083015261472e81613fea565b9050919050565b6000602082019050818103600083015261474e8161400d565b9050919050565b6000602082019050818103600083015261476e81614053565b9050919050565b6000602082019050818103600083015261478e81614076565b9050919050565b600060208201905081810360008301526147ae816140bc565b9050919050565b600060208201905081810360008301526147ce816140df565b9050919050565b600060208201905081810360008301526147ee81614125565b9050919050565b6000602082019050818103600083015261480e816141d4565b9050919050565b6000602082019050818103600083015261482e8161421a565b9050919050565b6000602082019050818103600083015261484e8161423d565b9050919050565b6000602082019050818103600083015261486e81614260565b9050919050565b6000602082019050818103600083015261488e81614283565b9050919050565b60006020820190506148aa60008301846142a6565b92915050565b60006020820190506148c560008301846142b5565b92915050565b60006040820190506148e060008301856142b5565b81810360208301526148f28184613ba9565b90509392505050565b600060608201905061491060008301866142b5565b61491d60208301856142b5565b61492a60408301846142b5565b949350505050565b600061493c61494d565b90506149488282614cd6565b919050565b6000604051905090565b600067ffffffffffffffff82111561497257614971614e46565b5b602082029050602081019050919050565b600067ffffffffffffffff82111561499e5761499d614e46565b5b6149a782614e75565b9050602081019050919050565b600067ffffffffffffffff8211156149cf576149ce614e46565b5b6149d882614e75565b9050602081019050919050565b6000819050602082019050919050565b600081519050919050565b600081519050919050565b600081519050919050565b6000602082019050919050565b600082825260208201905092915050565b600082825260208201905092915050565b600081905092915050565b600082825260208201905092915050565b600082825260208201905092915050565b600081905092915050565b6000614a8882614c4b565b9150614a9383614c4b565b9250827fffffffffffffffffffffffffffffffffffffffffffffffffffffffffffffffff03821115614ac857614ac7614db9565b5b828201905092915050565b6000614ade82614c55565b9150614ae983614c55565b92508260ff03821115614aff57614afe614db9565b5b828201905092915050565b6000614b1582614c4b565b9150614b2083614c4b565b925082614b3057614b2f614de8565b5b828204905092915050565b6000614b4682614c4b565b9150614b5183614c4b565b9250817fffffffffffffffffffffffffffffffffffffffffffffffffffffffffffffffff0483118215151615614b8a57614b89614db9565b5b828202905092915050565b6000614ba082614c4b565b9150614bab83614c4b565b925082821015614bbe57614bbd614db9565b5b828203905092915050565b6000614bd482614c2b565b9050919050565b60008115159050919050565b6000819050919050565b60007fffffffff0000000000000000000000000000000000000000000000000000000082169050919050565b600061ffff82169050919050565b600073ffffffffffffffffffffffffffffffffffffffff82169050919050565b6000819050919050565b600060ff82169050919050565b82818337600083830152505050565b60005b83811015614c8f578082015181840152602081019050614c74565b83811115614c9e576000848401525b50505050565b60006002820490506001821680614cbc57607f821691505b60208210811415614cd057614ccf614e17565b5b50919050565b614cdf82614e75565b810181811067ffffffffffffffff82111715614cfe57614cfd614e46565b5b80604052505050565b6000614d1282614c4b565b91507fffffffffffffffffffffffffffffffffffffffffffffffffffffffffffffffff821415614d4557614d44614db9565b5b600182019050919050565b6000614d5b82614d6c565b9050919050565b6000819050919050565b6000614d7782614e86565b9050919050565b6000819050919050565b6000614d9382614c4b565b9150614d9e83614c4b565b925082614dae57614dad614de8565b5b828206905092915050565b7f4e487b7100000000000000000000000000000000000000000000000000000000600052601160045260246000fd5b7f4e487b7100000000000000000000000000000000000000000000000000000000600052601260045260246000fd5b7f4e487b7100000000000000000000000000000000000000000000000000000000600052602260045260246000fd5b7f4e487b7100000000000000000000000000000000000000000000000000000000600052604160045260246000fd5b6000601f19601f8301169050919050565b60008160601b9050919050565b7f7b226e616d65223a220000000000000000000000000000000000000000000000600082015250565b7f455243373231456e756d657261626c653a206f776e657220696e646578206f7560008201527f74206f6620626f756e6473000000000000000000000000000000000000000000602082015250565b7f4552433732313a207472616e7366657220746f206e6f6e20455243373231526560008201527f63656976657220696d706c656d656e7465720000000000000000000000000000602082015250565b7f222c202261747472696275746573223a5b000000000000000000000000000000600082015250565b7f4f776e61626c653a206e6577206f776e657220697320746865207a65726f206160008201527f6464726573730000000000000000000000000000000000000000000000000000602082015250565b7f4552433732313a20746f6b656e20616c7265616479206d696e74656400000000600082015250565b7f227d2c7b2274726169745f74797065223a2022436972636c6573222c2276616c60008201527f7565223a22000000000000000000000000000000000000000000000000000000602082015250565b7f4552433732313a207472616e7366657220746f20746865207a65726f2061646460008201527f7265737300000000000000000000000000000000000000000000000000000000602082015250565b7f7b2274726169745f74797065223a2022436f6c6f722050616c65747465222c2260008201527f76616c7565223a22000000000000000000000000000000000000000000000000602082015250565b7f4552433732313a20617070726f766520746f2063616c6c657200000000000000600082015250565b7f52616e646f6d4172742023000000000000000000000000000000000000000000600082015250565b7f222c226465736372697074696f6e223a22000000000000000000000000000000600082015250565b7f227d2c7b2274726169745f74797065223a2022426f786573222c2276616c756560008201527f223a220000000000000000000000000000000000000000000000000000000000602082015250565b7f4552433732313a206f70657261746f7220717565727920666f72206e6f6e657860008201527f697374656e7420746f6b656e0000000000000000000000000000000000000000602082015250565b7f526f79616c7479206d757374206265203c3d2031302500000000000000000000600082015250565b7f6e6f742065786973740000000000000000000000000000000000000000000000600082015250565b7f4552433732313a20617070726f76652063616c6c6572206973206e6f74206f7760008201527f6e6572206e6f7220617070726f76656420666f7220616c6c0000000000000000602082015250565b7f2200000000000000000000000000000000000000000000000000000000000000600082015250565b7f4552433732313a2062616c616e636520717565727920666f7220746865207a6560008201527f726f206164647265737300000000000000000000000000000000000000000000602082015250565b7f4552433732313a206f776e657220717565727920666f72206e6f6e657869737460008201527f656e7420746f6b656e0000000000000000000000000000000000000000000000602082015250565b7f4d696e74206f766572206c696d69740000000000000000000000000000000000600082015250565b7f227d000000000000000000000000000000000000000000000000000000000000600082015250565b7f4552433732313a206d696e7420746f20746865207a65726f2061646472657373600082015250565b7f4552433732313a20617070726f76656420717565727920666f72206e6f6e657860008201527f697374656e7420746f6b656e0000000000000000000000000000000000000000602082015250565b7f646174613a6170706c69636174696f6e2f6a736f6e3b757466382c0000000000600082015250565b7f4f776e61626c653a2063616c6c6572206973206e6f7420746865206f776e6572600082015250565b7f4552433732313a207472616e73666572206f6620746f6b656e2074686174206960008201527f73206e6f74206f776e0000000000000000000000000000000000000000000000602082015250565b7f222c22696d616765223a20000000000000000000000000000000000000000000600082015250565b7f57726f6e67207072696365000000000000000000000000000000000000000000600082015250565b7f4f6e636861696e2067656e657261746976652061727400000000000000000000600082015250565b7f227d2c7b2274726169745f74797065223a2022547269616e676c6573222c227660008201527f616c7565223a2200000000000000000000000000000000000000000000000000602082015250565b7f5d7d000000000000000000000000000000000000000000000000000000000000600082015250565b7f227d2c7b2274726169745f74797065223a20224c6179657273222c2276616c7560008201527f65223a2200000000000000000000000000000000000000000000000000000000602082015250565b7f4552433732313a20617070726f76616c20746f2063757272656e74206f776e6560008201527f7200000000000000000000000000000000000000000000000000000000000000602082015250565b7f646174613a696d6167652f7376672b786d6c3b757466382c0000000000000000600082015250565b7f4552433732313a207472616e736665722063616c6c6572206973206e6f74206f60008201527f776e6572206e6f7220617070726f766564000000000000000000000000000000602082015250565b7f455243373231456e756d657261626c653a20676c6f62616c20696e646578206f60008201527f7574206f6620626f756e64730000000000000000000000000000000000000000602082015250565b7f536f6c64206f7574210000000000000000000000000000000000000000000000600082015250565b7f526f79616c7479206d757374206265203e3d2030250000000000000000000000600082015250565b61578781614bc9565b811461579257600080fd5b50565b61579e81614bdb565b81146157a957600080fd5b50565b6157b581614bf1565b81146157c057600080fd5b50565b6157cc81614c1d565b81146157d757600080fd5b50565b6157e381614c4b565b81146157ee57600080fd5b5056fea26469706673582212205a4121c72305f38597fcb269fd94704566e072c9334ed8a70f25e1a4e03878fb64736f6c63430008040033",
  "linkReferences": {},
  "deployedLinkReferences": {}
}