{
  "_format": "hh-sol-artifact-1",
  "contractName": "myNFT",
  "sourceName": "contracts/myNFT.sol",
  "abi": [
    {
      "inputs": [
        {
          "internalType": "address",
          "name": "color",
          "type": "address"
        },
        {
          "internalType": "address",
          "name": "svg",
          "type": "address"
        },
        {
          "internalType": "address",
          "name": "initialOwner",
          "type": "address"
        }
      ],
      "stateMutability": "nonpayable",
      "type": "constructor"
    },
    {
      "inputs": [],
      "name": "ERC721EnumerableForbiddenBatchMint",
      "type": "error"
    },
    {
      "inputs": [
        {
          "internalType": "address",
          "name": "sender",
          "type": "address"
        },
        {
          "internalType": "uint256",
          "name": "tokenId",
          "type": "uint256"
        },
        {
          "internalType": "address",
          "name": "owner",
          "type": "address"
        }
      ],
      "name": "ERC721IncorrectOwner",
      "type": "error"
    },
    {
      "inputs": [
        {
          "internalType": "address",
          "name": "operator",
          "type": "address"
        },
        {
          "internalType": "uint256",
          "name": "tokenId",
          "type": "uint256"
        }
      ],
      "name": "ERC721InsufficientApproval",
      "type": "error"
    },
    {
      "inputs": [
        {
          "internalType": "address",
          "name": "approver",
          "type": "address"
        }
      ],
      "name": "ERC721InvalidApprover",
      "type": "error"
    },
    {
      "inputs": [
        {
          "internalType": "address",
          "name": "operator",
          "type": "address"
        }
      ],
      "name": "ERC721InvalidOperator",
      "type": "error"
    },
    {
      "inputs": [
        {
          "internalType": "address",
          "name": "owner",
          "type": "address"
        }
      ],
      "name": "ERC721InvalidOwner",
      "type": "error"
    },
    {
      "inputs": [
        {
          "internalType": "address",
          "name": "receiver",
          "type": "address"
        }
      ],
      "name": "ERC721InvalidReceiver",
      "type": "error"
    },
    {
      "inputs": [
        {
          "internalType": "address",
          "name": "sender",
          "type": "address"
        }
      ],
      "name": "ERC721InvalidSender",
      "type": "error"
    },
    {
      "inputs": [
        {
          "internalType": "uint256",
          "name": "tokenId",
          "type": "uint256"
        }
      ],
      "name": "ERC721NonexistentToken",
      "type": "error"
    },
    {
      "inputs": [
        {
          "internalType": "address",
          "name": "owner",
          "type": "address"
        },
        {
          "internalType": "uint256",
          "name": "index",
          "type": "uint256"
        }
      ],
      "name": "ERC721OutOfBoundsIndex",
      "type": "error"
    },
    {
      "inputs": [
        {
          "internalType": "address",
          "name": "owner",
          "type": "address"
        }
      ],
      "name": "OwnableInvalidOwner",
      "type": "error"
    },
    {
      "inputs": [
        {
          "internalType": "address",
          "name": "account",
          "type": "address"
        }
      ],
      "name": "OwnableUnauthorizedAccount",
      "type": "error"
    },
    {
      "anonymous": false,
      "inputs": [
        {
          "indexed": true,
          "internalType": "address",
          "name": "owner",
          "type": "address"
        },
        {
          "indexed": true,
          "internalType": "address",
          "name": "approved",
          "type": "address"
        },
        {
          "indexed": true,
          "internalType": "uint256",
          "name": "tokenId",
          "type": "uint256"
        }
      ],
      "name": "Approval",
      "type": "event"
    },
    {
      "anonymous": false,
      "inputs": [
        {
          "indexed": true,
          "internalType": "address",
          "name": "owner",
          "type": "address"
        },
        {
          "indexed": true,
          "internalType": "address",
          "name": "operator",
          "type": "address"
        },
        {
          "indexed": false,
          "internalType": "bool",
          "name": "approved",
          "type": "bool"
        }
      ],
      "name": "ApprovalForAll",
      "type": "event"
    },
    {
      "anonymous": false,
      "inputs": [
        {
          "indexed": true,
          "internalType": "address",
          "name": "previousOwner",
          "type": "address"
        },
        {
          "indexed": true,
          "internalType": "address",
          "name": "newOwner",
          "type": "address"
        }
      ],
      "name": "OwnershipTransferred",
      "type": "event"
    },
    {
      "anonymous": false,
      "inputs": [
        {
          "indexed": true,
          "internalType": "address",
          "name": "from",
          "type": "address"
        },
        {
          "indexed": true,
          "internalType": "address",
          "name": "to",
          "type": "address"
        },
        {
          "indexed": true,
          "internalType": "uint256",
          "name": "tokenId",
          "type": "uint256"
        }
      ],
      "name": "Transfer",
      "type": "event"
    },
    {
      "inputs": [
        {
          "internalType": "address",
          "name": "to",
          "type": "address"
        },
        {
          "internalType": "uint256",
          "name": "tokenId",
          "type": "uint256"
        }
      ],
      "name": "approve",
      "outputs": [],
      "stateMutability": "nonpayable",
      "type": "function"
    },
    {
      "inputs": [
        {
          "internalType": "address",
          "name": "owner",
          "type": "address"
        }
      ],
      "name": "balanceOf",
      "outputs": [
        {
          "internalType": "uint256",
          "name": "",
          "type": "uint256"
        }
      ],
      "stateMutability": "view",
      "type": "function"
    },
    {
      "inputs": [
        {
          "internalType": "uint256",
          "name": "tokenId",
          "type": "uint256"
        }
      ],
      "name": "getApproved",
      "outputs": [
        {
          "internalType": "address",
          "name": "",
          "type": "address"
        }
      ],
      "stateMutability": "view",
      "type": "function"
    },
    {
      "inputs": [
        {
          "internalType": "uint256",
          "name": "id",
          "type": "uint256"
        }
      ],
      "name": "getSVG",
      "outputs": [
        {
          "internalType": "string",
          "name": "",
          "type": "string"
        }
      ],
      "stateMutability": "view",
      "type": "function"
    },
    {
      "inputs": [
        {
          "internalType": "address",
          "name": "owner",
          "type": "address"
        },
        {
          "internalType": "address",
          "name": "operator",
          "type": "address"
        }
      ],
      "name": "isApprovedForAll",
      "outputs": [
        {
          "internalType": "bool",
          "name": "",
          "type": "bool"
        }
      ],
      "stateMutability": "view",
      "type": "function"
    },
    {
      "inputs": [],
      "name": "maxSupply",
      "outputs": [
        {
          "internalType": "uint16",
          "name": "",
          "type": "uint16"
        }
      ],
      "stateMutability": "view",
      "type": "function"
    },
    {
      "inputs": [],
      "name": "mintNFT",
      "outputs": [
        {
          "internalType": "uint256",
          "name": "",
          "type": "uint256"
        }
      ],
      "stateMutability": "payable",
      "type": "function"
    },
    {
      "inputs": [],
      "name": "name",
      "outputs": [
        {
          "internalType": "string",
          "name": "",
          "type": "string"
        }
      ],
      "stateMutability": "view",
      "type": "function"
    },
    {
      "inputs": [],
      "name": "owner",
      "outputs": [
        {
          "internalType": "address",
          "name": "",
          "type": "address"
        }
      ],
      "stateMutability": "view",
      "type": "function"
    },
    {
      "inputs": [
        {
          "internalType": "uint256",
          "name": "tokenId",
          "type": "uint256"
        }
      ],
      "name": "ownerOf",
      "outputs": [
        {
          "internalType": "address",
          "name": "",
          "type": "address"
        }
      ],
      "stateMutability": "view",
      "type": "function"
    },
    {
      "inputs": [],
      "name": "price",
      "outputs": [
        {
          "internalType": "uint256",
          "name": "",
          "type": "uint256"
        }
      ],
      "stateMutability": "view",
      "type": "function"
    },
    {
      "inputs": [],
      "name": "renounceOwnership",
      "outputs": [],
      "stateMutability": "nonpayable",
      "type": "function"
    },
    {
      "inputs": [
        {
          "internalType": "uint256",
          "name": "",
          "type": "uint256"
        }
      ],
      "name": "rnd",
      "outputs": [
        {
          "internalType": "uint256",
          "name": "",
          "type": "uint256"
        }
      ],
      "stateMutability": "view",
      "type": "function"
    },
    {
      "inputs": [],
      "name": "royalty",
      "outputs": [
        {
          "internalType": "uint16",
          "name": "",
          "type": "uint16"
        }
      ],
      "stateMutability": "view",
      "type": "function"
    },
    {
      "inputs": [],
      "name": "royaltyAddress",
      "outputs": [
        {
          "internalType": "address",
          "name": "",
          "type": "address"
        }
      ],
      "stateMutability": "view",
      "type": "function"
    },
    {
      "inputs": [
        {
          "internalType": "uint256",
          "name": "",
          "type": "uint256"
        },
        {
          "internalType": "uint256",
          "name": "_salePrice",
          "type": "uint256"
        }
      ],
      "name": "royaltyInfo",
      "outputs": [
        {
          "internalType": "address",
          "name": "",
          "type": "address"
        },
        {
          "internalType": "uint256",
          "name": "",
          "type": "uint256"
        }
      ],
      "stateMutability": "view",
      "type": "function"
    },
    {
      "inputs": [
        {
          "internalType": "address",
          "name": "from",
          "type": "address"
        },
        {
          "internalType": "address",
          "name": "to",
          "type": "address"
        },
        {
          "internalType": "uint256",
          "name": "tokenId",
          "type": "uint256"
        }
      ],
      "name": "safeTransferFrom",
      "outputs": [],
      "stateMutability": "nonpayable",
      "type": "function"
    },
    {
      "inputs": [
        {
          "internalType": "address",
          "name": "from",
          "type": "address"
        },
        {
          "internalType": "address",
          "name": "to",
          "type": "address"
        },
        {
          "internalType": "uint256",
          "name": "tokenId",
          "type": "uint256"
        },
        {
          "internalType": "bytes",
          "name": "data",
          "type": "bytes"
        }
      ],
      "name": "safeTransferFrom",
      "outputs": [],
      "stateMutability": "nonpayable",
      "type": "function"
    },
    {
      "inputs": [
        {
          "internalType": "address",
          "name": "operator",
          "type": "address"
        },
        {
          "internalType": "bool",
          "name": "approved",
          "type": "bool"
        }
      ],
      "name": "setApprovalForAll",
      "outputs": [],
      "stateMutability": "nonpayable",
      "type": "function"
    },
    {
      "inputs": [
        {
          "internalType": "uint256",
          "name": "newPrice",
          "type": "uint256"
        }
      ],
      "name": "setPrice",
      "outputs": [],
      "stateMutability": "nonpayable",
      "type": "function"
    },
    {
      "inputs": [
        {
          "internalType": "uint16",
          "name": "_royalty",
          "type": "uint16"
        }
      ],
      "name": "setRoyalty",
      "outputs": [],
      "stateMutability": "nonpayable",
      "type": "function"
    },
    {
      "inputs": [
        {
          "internalType": "address",
          "name": "_royaltyAddress",
          "type": "address"
        }
      ],
      "name": "setRoyaltyAddress",
      "outputs": [],
      "stateMutability": "nonpayable",
      "type": "function"
    },
    {
      "inputs": [
        {
          "internalType": "bytes4",
          "name": "interfaceId",
          "type": "bytes4"
        }
      ],
      "name": "supportsInterface",
      "outputs": [
        {
          "internalType": "bool",
          "name": "",
          "type": "bool"
        }
      ],
      "stateMutability": "view",
      "type": "function"
    },
    {
      "inputs": [],
      "name": "symbol",
      "outputs": [
        {
          "internalType": "string",
          "name": "",
          "type": "string"
        }
      ],
      "stateMutability": "view",
      "type": "function"
    },
    {
      "inputs": [
        {
          "internalType": "uint256",
          "name": "index",
          "type": "uint256"
        }
      ],
      "name": "tokenByIndex",
      "outputs": [
        {
          "internalType": "uint256",
          "name": "",
          "type": "uint256"
        }
      ],
      "stateMutability": "view",
      "type": "function"
    },
    {
      "inputs": [
        {
          "internalType": "address",
          "name": "owner",
          "type": "address"
        },
        {
          "internalType": "uint256",
          "name": "index",
          "type": "uint256"
        }
      ],
      "name": "tokenOfOwnerByIndex",
      "outputs": [
        {
          "internalType": "uint256",
          "name": "",
          "type": "uint256"
        }
      ],
      "stateMutability": "view",
      "type": "function"
    },
    {
      "inputs": [
        {
          "internalType": "uint256",
          "name": "id",
          "type": "uint256"
        }
      ],
      "name": "tokenURI",
      "outputs": [
        {
          "internalType": "string",
          "name": "",
          "type": "string"
        }
      ],
      "stateMutability": "view",
      "type": "function"
    },
    {
      "inputs": [],
      "name": "totalSupply",
      "outputs": [
        {
          "internalType": "uint256",
          "name": "",
          "type": "uint256"
        }
      ],
      "stateMutability": "view",
      "type": "function"
    },
    {
      "inputs": [
        {
          "internalType": "address",
          "name": "from",
          "type": "address"
        },
        {
          "internalType": "address",
          "name": "to",
          "type": "address"
        },
        {
          "internalType": "uint256",
          "name": "tokenId",
          "type": "uint256"
        }
      ],
      "name": "transferFrom",
      "outputs": [],
      "stateMutability": "nonpayable",
      "type": "function"
    },
    {
      "inputs": [
        {
          "internalType": "address",
          "name": "newOwner",
          "type": "address"
        }
      ],
      "name": "transferOwnership",
      "outputs": [],
      "stateMutability": "nonpayable",
      "type": "function"
    },
    {
      "inputs": [],
      "name": "withdraw",
      "outputs": [],
      "stateMutability": "nonpayable",
      "type": "function"
    },
    {
      "inputs": [
        {
          "internalType": "address",
          "name": "token",
          "type": "address"
        }
      ],
      "name": "withdrawERC20",
      "outputs": [],
      "stateMutability": "nonpayable",
      "type": "function"
    },
    {
      "stateMutability": "payable",
      "type": "receive"
    }
  ],
  "bytecode": "0x60806040526000600b5566038d7ea4c68000600c556103e8600d60006101000a81548161ffff021916908361ffff1602179055506103e8600d60026101000a81548161ffff021916908361ffff16021790555030600d60046101000a81548173ffffffffffffffffffffffffffffffffffffffff021916908373ffffffffffffffffffffffffffffffffffffffff160217905550348015620000a057600080fd5b5060405162004ee138038062004ee18339818101604052810190620000c691906200039b565b806040518060400160405280600b81526020017f4f6e636861696e204172740000000000000000000000000000000000000000008152506040518060400160405280600381526020017f4f43410000000000000000000000000000000000000000000000000000000000815250816000908162000144919062000671565b50806001908162000156919062000671565b505050600073ffffffffffffffffffffffffffffffffffffffff168173ffffffffffffffffffffffffffffffffffffffff1603620001ce5760006040517f1e4fbdf7000000000000000000000000000000000000000000000000000000008152600401620001c5919062000769565b60405180910390fd5b620001df816200026b60201b60201c565b5082600e60006101000a81548173ffffffffffffffffffffffffffffffffffffffff021916908373ffffffffffffffffffffffffffffffffffffffff16021790555081600f60006101000a81548173ffffffffffffffffffffffffffffffffffffffff021916908373ffffffffffffffffffffffffffffffffffffffff16021790555050505062000786565b6000600a60009054906101000a900473ffffffffffffffffffffffffffffffffffffffff16905081600a60006101000a81548173ffffffffffffffffffffffffffffffffffffffff021916908373ffffffffffffffffffffffffffffffffffffffff1602179055508173ffffffffffffffffffffffffffffffffffffffff168173ffffffffffffffffffffffffffffffffffffffff167f8be0079c531659141344cd1fd0a4f28419497f9722a3daafe3b4186f6b6457e060405160405180910390a35050565b600080fd5b600073ffffffffffffffffffffffffffffffffffffffff82169050919050565b6000620003638262000336565b9050919050565b620003758162000356565b81146200038157600080fd5b50565b60008151905062000395816200036a565b92915050565b600080600060608486031215620003b757620003b662000331565b5b6000620003c78682870162000384565b9350506020620003da8682870162000384565b9250506040620003ed8682870162000384565b9150509250925092565b600081519050919050565b7f4e487b7100000000000000000000000000000000000000000000000000000000600052604160045260246000fd5b7f4e487b7100000000000000000000000000000000000000000000000000000000600052602260045260246000fd5b600060028204905060018216806200047957607f821691505b6020821081036200048f576200048e62000431565b5b50919050565b60008190508160005260206000209050919050565b60006020601f8301049050919050565b600082821b905092915050565b600060088302620004f97fffffffffffffffffffffffffffffffffffffffffffffffffffffffffffffffff82620004ba565b620005058683620004ba565b95508019841693508086168417925050509392505050565b6000819050919050565b6000819050919050565b6000620005526200054c62000546846200051d565b62000527565b6200051d565b9050919050565b6000819050919050565b6200056e8362000531565b620005866200057d8262000559565b848454620004c7565b825550505050565b600090565b6200059d6200058e565b620005aa81848462000563565b505050565b5b81811015620005d257620005c660008262000593565b600181019050620005b0565b5050565b601f8211156200062157620005eb8162000495565b620005f684620004aa565b8101602085101562000606578190505b6200061e6200061585620004aa565b830182620005af565b50505b505050565b600082821c905092915050565b6000620006466000198460080262000626565b1980831691505092915050565b600062000661838362000633565b9150826002028217905092915050565b6200067c82620003f7565b67ffffffffffffffff81111562000698576200069762000402565b5b620006a4825462000460565b620006b1828285620005d6565b600060209050601f831160018114620006e95760008415620006d4578287015190505b620006e0858262000653565b86555062000750565b601f198416620006f98662000495565b60005b828110156200072357848901518255600182019150602085019450602081019050620006fc565b868310156200074357848901516200073f601f89168262000633565b8355505b6001600288020188555050505b505050505050565b620007638162000356565b82525050565b600060208201905062000780600083018462000758565b92915050565b61474b80620007966000396000f3fe6080604052600436106101e75760003560e01c80636352211e11610102578063ad2f852a11610095578063d5abeb0111610064578063d5abeb0114610717578063e985e9c514610742578063f2fde38b1461077f578063f4f3b200146107a8576101ee565b8063ad2f852a14610649578063b88d4fde14610674578063be985ac91461069d578063c87b56dd146106da576101ee565b806391b7f5ed116100d157806391b7f5ed146105a157806395d89b41146105ca578063a035b1fe146105f5578063a22cb46514610620576101ee565b80636352211e146104e557806370a0823114610522578063715018a61461055f5780638da5cb5b14610576576101ee565b806329ee566c1161017a5780633ccfd60b116101495780633ccfd60b1461042b57806342842e0e14610442578063465875161461046b5780634f6ccce7146104a8576101ee565b806329ee566c1461035c5780632a55205a146103875780632f745c59146103c557806336e79a5a14610402576101ee565b8063095ea7b3116101b6578063095ea7b3146102c157806314f710fe146102ea57806318160ddd1461030857806323b872dd14610333576101ee565b806301ffc9a7146101f357806306d254da1461023057806306fdde0314610259578063081812fc14610284576101ee565b366101ee57005b600080fd5b3480156101ff57600080fd5b5061021a60048036038101906102159190612ee1565b6107d1565b6040516102279190612f29565b60405180910390f35b34801561023c57600080fd5b5061025760048036038101906102529190612fa2565b61084b565b005b34801561026557600080fd5b5061026e610897565b60405161027b919061305f565b60405180910390f35b34801561029057600080fd5b506102ab60048036038101906102a691906130b7565b610929565b6040516102b891906130f3565b60405180910390f35b3480156102cd57600080fd5b506102e860048036038101906102e3919061310e565b610945565b005b6102f261095b565b6040516102ff919061315d565b60405180910390f35b34801561031457600080fd5b5061031d610a7e565b60405161032a919061315d565b60405180910390f35b34801561033f57600080fd5b5061035a60048036038101906103559190613178565b610a8b565b005b34801561036857600080fd5b50610371610b8d565b60405161037e91906131e8565b60405180910390f35b34801561039357600080fd5b506103ae60048036038101906103a99190613203565b610ba1565b6040516103bc929190613243565b60405180910390f35b3480156103d157600080fd5b506103ec60048036038101906103e7919061310e565b610bff565b6040516103f9919061315d565b60405180910390f35b34801561040e57600080fd5b5061042960048036038101906104249190613298565b610ca8565b005b34801561043757600080fd5b50610440610d61565b005b34801561044e57600080fd5b5061046960048036038101906104649190613178565b610db8565b005b34801561047757600080fd5b50610492600480360381019061048d91906130b7565b610dd8565b60405161049f919061315d565b60405180910390f35b3480156104b457600080fd5b506104cf60048036038101906104ca91906130b7565b610df0565b6040516104dc919061315d565b60405180910390f35b3480156104f157600080fd5b5061050c600480360381019061050791906130b7565b610e66565b60405161051991906130f3565b60405180910390f35b34801561052e57600080fd5b5061054960048036038101906105449190612fa2565b610e78565b604051610556919061315d565b60405180910390f35b34801561056b57600080fd5b50610574610f32565b005b34801561058257600080fd5b5061058b610f46565b60405161059891906130f3565b60405180910390f35b3480156105ad57600080fd5b506105c860048036038101906105c391906130b7565b610f70565b005b3480156105d657600080fd5b506105df610f82565b6040516105ec919061305f565b60405180910390f35b34801561060157600080fd5b5061060a611014565b604051610617919061315d565b60405180910390f35b34801561062c57600080fd5b50610647600480360381019061064291906132f1565b61101a565b005b34801561065557600080fd5b5061065e611030565b60405161066b91906130f3565b60405180910390f35b34801561068057600080fd5b5061069b60048036038101906106969190613466565b611056565b005b3480156106a957600080fd5b506106c460048036038101906106bf91906130b7565b611073565b6040516106d1919061305f565b60405180910390f35b3480156106e657600080fd5b5061070160048036038101906106fc91906130b7565b61128c565b60405161070e919061305f565b60405180910390f35b34801561072357600080fd5b5061072c6115a2565b60405161073991906131e8565b60405180910390f35b34801561074e57600080fd5b50610769600480360381019061076491906134e9565b6115b6565b6040516107769190612f29565b60405180910390f35b34801561078b57600080fd5b506107a660048036038101906107a19190612fa2565b61164a565b005b3480156107b457600080fd5b506107cf60048036038101906107ca9190612fa2565b6116d0565b005b60007f2a55205a000000000000000000000000000000000000000000000000000000007bffffffffffffffffffffffffffffffffffffffffffffffffffffffff1916827bffffffffffffffffffffffffffffffffffffffffffffffffffffffff191614806108445750610843826117da565b5b9050919050565b610853611854565b80600d60046101000a81548173ffffffffffffffffffffffffffffffffffffffff021916908373ffffffffffffffffffffffffffffffffffffffff16021790555050565b6060600080546108a690613558565b80601f01602080910402602001604051908101604052809291908181526020018280546108d290613558565b801561091f5780601f106108f45761010080835404028352916020019161091f565b820191906000526020600020905b81548152906001019060200180831161090257829003601f168201915b5050505050905090565b6000610934826118db565b5061093e82611963565b9050919050565b61095782826109526119a0565b6119a8565b5050565b6000600c5434146109a1576040517f08c379a0000000000000000000000000000000000000000000000000000000008152600401610998906135d5565b60405180910390fd5b600d60009054906101000a900461ffff1661ffff166109be610a7e565b106109fe576040517f08c379a00000000000000000000000000000000000000000000000000000000081526004016109f590613641565b60405180910390fd5b6000600b6000815480929190610a1390613690565b919050559050610a2333826119ba565b80600143610a3191906136d8565b403330604051602001610a4794939291906137a0565b6040516020818303038152906040528051906020012060001c60106000838152602001908152602001600020819055508091505090565b6000600880549050905090565b600073ffffffffffffffffffffffffffffffffffffffff168273ffffffffffffffffffffffffffffffffffffffff1603610afd5760006040517f64a0ae92000000000000000000000000000000000000000000000000000000008152600401610af491906130f3565b60405180910390fd5b6000610b118383610b0c6119a0565b6119d8565b90508373ffffffffffffffffffffffffffffffffffffffff168173ffffffffffffffffffffffffffffffffffffffff1614610b87578382826040517f64283d7b000000000000000000000000000000000000000000000000000000008152600401610b7e939291906137ee565b60405180910390fd5b50505050565b600d60029054906101000a900461ffff1681565b600080600d60049054906101000a900473ffffffffffffffffffffffffffffffffffffffff16612710600d60029054906101000a900461ffff1661ffff1685610bea9190613825565b610bf49190613896565b915091509250929050565b6000610c0a83610e78565b8210610c4f5782826040517fa57d13dc000000000000000000000000000000000000000000000000000000008152600401610c46929190613243565b60405180910390fd5b600660008473ffffffffffffffffffffffffffffffffffffffff1673ffffffffffffffffffffffffffffffffffffffff168152602001908152602001600020600083815260200190815260200160002054905092915050565b610cb0611854565b60008161ffff161015610cf8576040517f08c379a0000000000000000000000000000000000000000000000000000000008152600401610cef90613913565b60405180910390fd5b6103e88161ffff161115610d41576040517f08c379a0000000000000000000000000000000000000000000000000000000008152600401610d389061397f565b60405180910390fd5b80600d60026101000a81548161ffff021916908361ffff16021790555050565b610d69611854565b60004790503373ffffffffffffffffffffffffffffffffffffffff166108fc829081150290604051600060405180830381858888f19350505050158015610db4573d6000803e3d6000fd5b5050565b610dd383838360405180602001604052806000815250611056565b505050565b60106020528060005260406000206000915090505481565b6000610dfa610a7e565b8210610e40576000826040517fa57d13dc000000000000000000000000000000000000000000000000000000008152600401610e37929190613243565b60405180910390fd5b60088281548110610e5457610e5361399f565b5b90600052602060002001549050919050565b6000610e71826118db565b9050919050565b60008073ffffffffffffffffffffffffffffffffffffffff168273ffffffffffffffffffffffffffffffffffffffff1603610eeb5760006040517f89c62b64000000000000000000000000000000000000000000000000000000008152600401610ee291906130f3565b60405180910390fd5b600360008373ffffffffffffffffffffffffffffffffffffffff1673ffffffffffffffffffffffffffffffffffffffff168152602001908152602001600020549050919050565b610f3a611854565b610f446000611af5565b565b6000600a60009054906101000a900473ffffffffffffffffffffffffffffffffffffffff16905090565b610f78611854565b80600c8190555050565b606060018054610f9190613558565b80601f0160208091040260200160405190810160405280929190818152602001828054610fbd90613558565b801561100a5780601f10610fdf5761010080835404028352916020019161100a565b820191906000526020600020905b815481529060010190602001808311610fed57829003601f168201915b5050505050905090565b600c5481565b61102c6110256119a0565b8383611bbb565b5050565b600d60049054906101000a900473ffffffffffffffffffffffffffffffffffffffff1681565b611061848484610a8b565b61106d84848484611d2a565b50505050565b60606000600e60009054906101000a900473ffffffffffffffffffffffffffffffffffffffff1673ffffffffffffffffffffffffffffffffffffffff1663d32c196b6040518163ffffffff1660e01b8152600401602060405180830381865afa1580156110e4573d6000803e3d6000fd5b505050506040513d601f19601f8201168201806040525081019061110891906139e3565b60106000858152602001908152602001600020546111269190613a10565b90506000600e60009054906101000a900473ffffffffffffffffffffffffffffffffffffffff1673ffffffffffffffffffffffffffffffffffffffff166304c362f2836040518263ffffffff1660e01b8152600401611185919061315d565b600060405180830381865afa1580156111a2573d6000803e3d6000fd5b505050506040513d6000823e3d601f19601f820116820180604052508101906111cb9190613bc8565b9050600f60009054906101000a900473ffffffffffffffffffffffffffffffffffffffff1673ffffffffffffffffffffffffffffffffffffffff16636e088aea6010600087815260200190815260200160002054836040518363ffffffff1660e01b815260040161123d929190613d1d565b600060405180830381865afa15801561125a573d6000803e3d6000fd5b505050506040513d6000823e3d601f19601f820116820180604052508101906112839190613d4d565b92505050919050565b6060611297826118db565b5060006112a383611ee1565b6040516020016112b39190613e1e565b604051602081830303815290604052905060006040516020016112d590613e8c565b604051602081830303815290604052905060006112f185611073565b90506000600e60009054906101000a900473ffffffffffffffffffffffffffffffffffffffff1673ffffffffffffffffffffffffffffffffffffffff1663d32c196b6040518163ffffffff1660e01b8152600401602060405180830381865afa158015611362573d6000803e3d6000fd5b505050506040513d601f19601f8201168201806040525081019061138691906139e3565b60106000888152602001908152602001600020546113a49190613a10565b905060006113cc60106000898152602001908152602001600020546000600f60196001611faf565b6000815181106113df576113de61399f565b5b60200260200101519050600061141a601060008a8152602001908152602001600020546001600060026003876114159190613825565b611faf565b90506000806000805b858110156114d85760008190508581815181106114435761144261399f565b5b6020026020010151856114569190613ea1565b945086816114649190613ea1565b90508581815181106114795761147861399f565b5b60200260200101518461148c9190613ea1565b9350868161149a9190613ea1565b90508581815181106114af576114ae61399f565b5b6020026020010151836114c29190613ea1565b92505080806114d090613690565b915050611423565b5060006114e487612092565b6114ed87612092565b6114f686612092565b6114ff86612092565b61150886612092565b60405160200161151c9594939291906141f3565b60405160208183030381529060405290508989896040516020016115409190614296565b604051602081830303815290604052836040516020016115639493929190614470565b6040516020818303038152906040526040516020016115829190614531565b6040516020818303038152906040529a5050505050505050505050919050565b600d60009054906101000a900461ffff1681565b6000600560008473ffffffffffffffffffffffffffffffffffffffff1673ffffffffffffffffffffffffffffffffffffffff16815260200190815260200160002060008373ffffffffffffffffffffffffffffffffffffffff1673ffffffffffffffffffffffffffffffffffffffff16815260200190815260200160002060009054906101000a900460ff16905092915050565b611652611854565b600073ffffffffffffffffffffffffffffffffffffffff168173ffffffffffffffffffffffffffffffffffffffff16036116c45760006040517f1e4fbdf70000000000000000000000000000000000000000000000000000000081526004016116bb91906130f3565b60405180910390fd5b6116cd81611af5565b50565b6116d8611854565b8073ffffffffffffffffffffffffffffffffffffffff1663a9059cbb6116fc610f46565b8373ffffffffffffffffffffffffffffffffffffffff166370a08231306040518263ffffffff1660e01b815260040161173591906130f3565b602060405180830381865afa158015611752573d6000803e3d6000fd5b505050506040513d601f19601f8201168201806040525081019061177691906139e3565b6040518363ffffffff1660e01b8152600401611793929190613243565b6020604051808303816000875af11580156117b2573d6000803e3d6000fd5b505050506040513d601f19601f820116820180604052508101906117d69190614568565b5050565b60007f780e9d63000000000000000000000000000000000000000000000000000000007bffffffffffffffffffffffffffffffffffffffffffffffffffffffff1916827bffffffffffffffffffffffffffffffffffffffffffffffffffffffff1916148061184d575061184c8261221a565b5b9050919050565b61185c6119a0565b73ffffffffffffffffffffffffffffffffffffffff1661187a610f46565b73ffffffffffffffffffffffffffffffffffffffff16146118d95761189d6119a0565b6040517f118cdaa70000000000000000000000000000000000000000000000000000000081526004016118d091906130f3565b60405180910390fd5b565b6000806118e7836122fc565b9050600073ffffffffffffffffffffffffffffffffffffffff168173ffffffffffffffffffffffffffffffffffffffff160361195a57826040517f7e273289000000000000000000000000000000000000000000000000000000008152600401611951919061315d565b60405180910390fd5b80915050919050565b60006004600083815260200190815260200160002060009054906101000a900473ffffffffffffffffffffffffffffffffffffffff169050919050565b600033905090565b6119b58383836001612339565b505050565b6119d48282604051806020016040528060008152506124fe565b5050565b6000806119e685858561251a565b9050600073ffffffffffffffffffffffffffffffffffffffff168173ffffffffffffffffffffffffffffffffffffffff1603611a2a57611a2584612734565b611a69565b8473ffffffffffffffffffffffffffffffffffffffff168173ffffffffffffffffffffffffffffffffffffffff1614611a6857611a67818561277d565b5b5b600073ffffffffffffffffffffffffffffffffffffffff168573ffffffffffffffffffffffffffffffffffffffff1603611aab57611aa6846128de565b611aea565b8473ffffffffffffffffffffffffffffffffffffffff168173ffffffffffffffffffffffffffffffffffffffff1614611ae957611ae885856129af565b5b5b809150509392505050565b6000600a60009054906101000a900473ffffffffffffffffffffffffffffffffffffffff16905081600a60006101000a81548173ffffffffffffffffffffffffffffffffffffffff021916908373ffffffffffffffffffffffffffffffffffffffff1602179055508173ffffffffffffffffffffffffffffffffffffffff168173ffffffffffffffffffffffffffffffffffffffff167f8be0079c531659141344cd1fd0a4f28419497f9722a3daafe3b4186f6b6457e060405160405180910390a35050565b600073ffffffffffffffffffffffffffffffffffffffff168273ffffffffffffffffffffffffffffffffffffffff1603611c2c57816040517f5b08ba18000000000000000000000000000000000000000000000000000000008152600401611c2391906130f3565b60405180910390fd5b80600560008573ffffffffffffffffffffffffffffffffffffffff1673ffffffffffffffffffffffffffffffffffffffff16815260200190815260200160002060008473ffffffffffffffffffffffffffffffffffffffff1673ffffffffffffffffffffffffffffffffffffffff16815260200190815260200160002060006101000a81548160ff0219169083151502179055508173ffffffffffffffffffffffffffffffffffffffff168373ffffffffffffffffffffffffffffffffffffffff167f17307eab39ab6107e8899845ad3d59bd9653f200f220920489ca2b5937696c3183604051611d1d9190612f29565b60405180910390a3505050565b60008373ffffffffffffffffffffffffffffffffffffffff163b1115611edb578273ffffffffffffffffffffffffffffffffffffffff1663150b7a02611d6e6119a0565b8685856040518563ffffffff1660e01b8152600401611d9094939291906145df565b6020604051808303816000875af1925050508015611dcc57506040513d601f19601f82011682018060405250810190611dc99190614640565b60015b611e50573d8060008114611dfc576040519150601f19603f3d011682016040523d82523d6000602084013e611e01565b606091505b506000815103611e4857836040517f64a0ae92000000000000000000000000000000000000000000000000000000008152600401611e3f91906130f3565b60405180910390fd5b805181602001fd5b63150b7a0260e01b7bffffffffffffffffffffffffffffffffffffffffffffffffffffffff1916817bffffffffffffffffffffffffffffffffffffffffffffffffffffffff191614611ed957836040517f64a0ae92000000000000000000000000000000000000000000000000000000008152600401611ed091906130f3565b60405180910390fd5b505b50505050565b606060006001611ef084612a3a565b01905060008167ffffffffffffffff811115611f0f57611f0e61333b565b5b6040519080825280601f01601f191660200182016040528015611f415781602001600182028036833780820191505090505b509050600082602001820190505b600115611fa4578080600190039150507f3031323334353637383961626364656600000000000000000000000000000000600a86061a8153600a8581611f9857611f97613867565b5b04945060008503611f4f575b819350505050919050565b60608167ffffffffffffffff811115611fcb57611fca61333b565b5b604051908082528060200260200182016040528015611ff95781602001602082028036833780820191505090505b50905060005b828110156120885784858561201491906136d8565b8888846040516020016120299392919061466d565b6040516020818303038152906040528051906020012060001c61204c9190613a10565b6120569190613ea1565b8282815181106120695761206861399f565b5b602002602001018181525050808061208090613690565b915050611fff565b5095945050505050565b6060600082036120d9576040518060400160405280600181526020017f30000000000000000000000000000000000000000000000000000000000000008152509050612215565b600082905060005b6000821461210b5780806120f490613690565b915050600a826121049190613896565b91506120e1565b60008167ffffffffffffffff8111156121275761212661333b565b5b6040519080825280601f01601f1916602001820160405280156121595781602001600182028036833780820191505090505b50905060008290505b6000861461220d5760018161217791906136d8565b90506000600a80886121899190613896565b6121939190613825565b8761219e91906136d8565b60306121aa91906146b1565b905060008160f81b9050808484815181106121c8576121c761399f565b5b60200101907effffffffffffffffffffffffffffffffffffffffffffffffffffffffffffff1916908160001a905350600a886122049190613896565b97505050612162565b819450505050505b919050565b60007f80ac58cd000000000000000000000000000000000000000000000000000000007bffffffffffffffffffffffffffffffffffffffffffffffffffffffff1916827bffffffffffffffffffffffffffffffffffffffffffffffffffffffff191614806122e557507f5b5e139f000000000000000000000000000000000000000000000000000000007bffffffffffffffffffffffffffffffffffffffffffffffffffffffff1916827bffffffffffffffffffffffffffffffffffffffffffffffffffffffff1916145b806122f557506122f482612b8d565b5b9050919050565b60006002600083815260200190815260200160002060009054906101000a900473ffffffffffffffffffffffffffffffffffffffff169050919050565b80806123725750600073ffffffffffffffffffffffffffffffffffffffff168273ffffffffffffffffffffffffffffffffffffffff1614155b156124a6576000612382846118db565b9050600073ffffffffffffffffffffffffffffffffffffffff168373ffffffffffffffffffffffffffffffffffffffff16141580156123ed57508273ffffffffffffffffffffffffffffffffffffffff168173ffffffffffffffffffffffffffffffffffffffff1614155b801561240057506123fe81846115b6565b155b1561244257826040517fa9fbf51f00000000000000000000000000000000000000000000000000000000815260040161243991906130f3565b60405180910390fd5b81156124a457838573ffffffffffffffffffffffffffffffffffffffff168273ffffffffffffffffffffffffffffffffffffffff167f8c5be1e5ebec7d5bd14f71427d1e84f3dd0314c0f7b2291e5b200ac8c7c3b92560405160405180910390a45b505b836004600085815260200190815260200160002060006101000a81548173ffffffffffffffffffffffffffffffffffffffff021916908373ffffffffffffffffffffffffffffffffffffffff16021790555050505050565b6125088383612bf7565b6125156000848484611d2a565b505050565b600080612526846122fc565b9050600073ffffffffffffffffffffffffffffffffffffffff168373ffffffffffffffffffffffffffffffffffffffff161461256857612567818486612cf0565b5b600073ffffffffffffffffffffffffffffffffffffffff168173ffffffffffffffffffffffffffffffffffffffff16146125f9576125aa600085600080612339565b6001600360008373ffffffffffffffffffffffffffffffffffffffff1673ffffffffffffffffffffffffffffffffffffffff168152602001908152602001600020600082825403925050819055505b600073ffffffffffffffffffffffffffffffffffffffff168573ffffffffffffffffffffffffffffffffffffffff161461267c576001600360008773ffffffffffffffffffffffffffffffffffffffff1673ffffffffffffffffffffffffffffffffffffffff168152602001908152602001600020600082825401925050819055505b846002600086815260200190815260200160002060006101000a81548173ffffffffffffffffffffffffffffffffffffffff021916908373ffffffffffffffffffffffffffffffffffffffff160217905550838573ffffffffffffffffffffffffffffffffffffffff168273ffffffffffffffffffffffffffffffffffffffff167fddf252ad1be2c89b69c2b068fc378daa952ba7f163c4a11628f55a4df523b3ef60405160405180910390a4809150509392505050565b6008805490506009600083815260200190815260200160002081905550600881908060018154018082558091505060019003906000526020600020016000909190919091505550565b600061278883610e78565b905060006007600084815260200190815260200160002054905081811461286d576000600660008673ffffffffffffffffffffffffffffffffffffffff1673ffffffffffffffffffffffffffffffffffffffff168152602001908152602001600020600084815260200190815260200160002054905080600660008773ffffffffffffffffffffffffffffffffffffffff1673ffffffffffffffffffffffffffffffffffffffff168152602001908152602001600020600084815260200190815260200160002081905550816007600083815260200190815260200160002081905550505b6007600084815260200190815260200160002060009055600660008573ffffffffffffffffffffffffffffffffffffffff1673ffffffffffffffffffffffffffffffffffffffff16815260200190815260200160002060008381526020019081526020016000206000905550505050565b600060016008805490506128f291906136d8565b90506000600960008481526020019081526020016000205490506000600883815481106129225761292161399f565b5b9060005260206000200154905080600883815481106129445761294361399f565b5b906000526020600020018190555081600960008381526020019081526020016000208190555060096000858152602001908152602001600020600090556008805480612993576129926146e6565b5b6001900381819060005260206000200160009055905550505050565b600060016129bc84610e78565b6129c691906136d8565b905081600660008573ffffffffffffffffffffffffffffffffffffffff1673ffffffffffffffffffffffffffffffffffffffff168152602001908152602001600020600083815260200190815260200160002081905550806007600084815260200190815260200160002081905550505050565b600080600090507a184f03e93ff9f4daa797ed6e38ed64bf6a1f0100000000000000008310612a98577a184f03e93ff9f4daa797ed6e38ed64bf6a1f0100000000000000008381612a8e57612a8d613867565b5b0492506040810190505b6d04ee2d6d415b85acef81000000008310612ad5576d04ee2d6d415b85acef81000000008381612acb57612aca613867565b5b0492506020810190505b662386f26fc100008310612b0457662386f26fc100008381612afa57612af9613867565b5b0492506010810190505b6305f5e1008310612b2d576305f5e1008381612b2357612b22613867565b5b0492506008810190505b6127108310612b52576127108381612b4857612b47613867565b5b0492506004810190505b60648310612b755760648381612b6b57612b6a613867565b5b0492506002810190505b600a8310612b84576001810190505b80915050919050565b60007f01ffc9a7000000000000000000000000000000000000000000000000000000007bffffffffffffffffffffffffffffffffffffffffffffffffffffffff1916827bffffffffffffffffffffffffffffffffffffffffffffffffffffffff1916149050919050565b600073ffffffffffffffffffffffffffffffffffffffff168273ffffffffffffffffffffffffffffffffffffffff1603612c695760006040517f64a0ae92000000000000000000000000000000000000000000000000000000008152600401612c6091906130f3565b60405180910390fd5b6000612c77838360006119d8565b9050600073ffffffffffffffffffffffffffffffffffffffff168173ffffffffffffffffffffffffffffffffffffffff1614612ceb5760006040517f73c6ac6e000000000000000000000000000000000000000000000000000000008152600401612ce291906130f3565b60405180910390fd5b505050565b612cfb838383612db4565b612daf57600073ffffffffffffffffffffffffffffffffffffffff168373ffffffffffffffffffffffffffffffffffffffff1603612d7057806040517f7e273289000000000000000000000000000000000000000000000000000000008152600401612d67919061315d565b60405180910390fd5b81816040517f177e802f000000000000000000000000000000000000000000000000000000008152600401612da6929190613243565b60405180910390fd5b505050565b60008073ffffffffffffffffffffffffffffffffffffffff168373ffffffffffffffffffffffffffffffffffffffff1614158015612e6c57508273ffffffffffffffffffffffffffffffffffffffff168473ffffffffffffffffffffffffffffffffffffffff161480612e2d5750612e2c84846115b6565b5b80612e6b57508273ffffffffffffffffffffffffffffffffffffffff16612e5383611963565b73ffffffffffffffffffffffffffffffffffffffff16145b5b90509392505050565b6000604051905090565b600080fd5b600080fd5b60007fffffffff0000000000000000000000000000000000000000000000000000000082169050919050565b612ebe81612e89565b8114612ec957600080fd5b50565b600081359050612edb81612eb5565b92915050565b600060208284031215612ef757612ef6612e7f565b5b6000612f0584828501612ecc565b91505092915050565b60008115159050919050565b612f2381612f0e565b82525050565b6000602082019050612f3e6000830184612f1a565b92915050565b600073ffffffffffffffffffffffffffffffffffffffff82169050919050565b6000612f6f82612f44565b9050919050565b612f7f81612f64565b8114612f8a57600080fd5b50565b600081359050612f9c81612f76565b92915050565b600060208284031215612fb857612fb7612e7f565b5b6000612fc684828501612f8d565b91505092915050565b600081519050919050565b600082825260208201905092915050565b60005b83811015613009578082015181840152602081019050612fee565b60008484015250505050565b6000601f19601f8301169050919050565b600061303182612fcf565b61303b8185612fda565b935061304b818560208601612feb565b61305481613015565b840191505092915050565b600060208201905081810360008301526130798184613026565b905092915050565b6000819050919050565b61309481613081565b811461309f57600080fd5b50565b6000813590506130b18161308b565b92915050565b6000602082840312156130cd576130cc612e7f565b5b60006130db848285016130a2565b91505092915050565b6130ed81612f64565b82525050565b600060208201905061310860008301846130e4565b92915050565b6000806040838503121561312557613124612e7f565b5b600061313385828601612f8d565b9250506020613144858286016130a2565b9150509250929050565b61315781613081565b82525050565b6000602082019050613172600083018461314e565b92915050565b60008060006060848603121561319157613190612e7f565b5b600061319f86828701612f8d565b93505060206131b086828701612f8d565b92505060406131c1868287016130a2565b9150509250925092565b600061ffff82169050919050565b6131e2816131cb565b82525050565b60006020820190506131fd60008301846131d9565b92915050565b6000806040838503121561321a57613219612e7f565b5b6000613228858286016130a2565b9250506020613239858286016130a2565b9150509250929050565b600060408201905061325860008301856130e4565b613265602083018461314e565b9392505050565b613275816131cb565b811461328057600080fd5b50565b6000813590506132928161326c565b92915050565b6000602082840312156132ae576132ad612e7f565b5b60006132bc84828501613283565b91505092915050565b6132ce81612f0e565b81146132d957600080fd5b50565b6000813590506132eb816132c5565b92915050565b6000806040838503121561330857613307612e7f565b5b600061331685828601612f8d565b9250506020613327858286016132dc565b9150509250929050565b600080fd5b600080fd5b7f4e487b7100000000000000000000000000000000000000000000000000000000600052604160045260246000fd5b61337382613015565b810181811067ffffffffffffffff821117156133925761339161333b565b5b80604052505050565b60006133a5612e75565b90506133b1828261336a565b919050565b600067ffffffffffffffff8211156133d1576133d061333b565b5b6133da82613015565b9050602081019050919050565b82818337600083830152505050565b6000613409613404846133b6565b61339b565b90508281526020810184848401111561342557613424613336565b5b6134308482856133e7565b509392505050565b600082601f83011261344d5761344c613331565b5b813561345d8482602086016133f6565b91505092915050565b600080600080608085870312156134805761347f612e7f565b5b600061348e87828801612f8d565b945050602061349f87828801612f8d565b93505060406134b0878288016130a2565b925050606085013567ffffffffffffffff8111156134d1576134d0612e84565b5b6134dd87828801613438565b91505092959194509250565b60008060408385031215613500576134ff612e7f565b5b600061350e85828601612f8d565b925050602061351f85828601612f8d565b9150509250929050565b7f4e487b7100000000000000000000000000000000000000000000000000000000600052602260045260246000fd5b6000600282049050600182168061357057607f821691505b60208210810361358357613582613529565b5b50919050565b7f57726f6e67207072696365000000000000000000000000000000000000000000600082015250565b60006135bf600b83612fda565b91506135ca82613589565b602082019050919050565b600060208201905081810360008301526135ee816135b2565b9050919050565b7f536f6c64206f7574210000000000000000000000000000000000000000000000600082015250565b600061362b600983612fda565b9150613636826135f5565b602082019050919050565b6000602082019050818103600083015261365a8161361e565b9050919050565b7f4e487b7100000000000000000000000000000000000000000000000000000000600052601160045260246000fd5b600061369b82613081565b91507fffffffffffffffffffffffffffffffffffffffffffffffffffffffffffffffff82036136cd576136cc613661565b5b600182019050919050565b60006136e382613081565b91506136ee83613081565b925082820390508181111561370657613705613661565b5b92915050565b6000819050919050565b61372761372282613081565b61370c565b82525050565b6000819050919050565b6000819050919050565b61375261374d8261372d565b613737565b82525050565b60008160601b9050919050565b600061377082613758565b9050919050565b600061378282613765565b9050919050565b61379a61379582612f64565b613777565b82525050565b60006137ac8287613716565b6020820191506137bc8286613741565b6020820191506137cc8285613789565b6014820191506137dc8284613789565b60148201915081905095945050505050565b600060608201905061380360008301866130e4565b613810602083018561314e565b61381d60408301846130e4565b949350505050565b600061383082613081565b915061383b83613081565b925082820261384981613081565b915082820484148315176138605761385f613661565b5b5092915050565b7f4e487b7100000000000000000000000000000000000000000000000000000000600052601260045260246000fd5b60006138a182613081565b91506138ac83613081565b9250826138bc576138bb613867565b5b828204905092915050565b7f526f79616c7479206d757374206265203e3d2030250000000000000000000000600082015250565b60006138fd601583612fda565b9150613908826138c7565b602082019050919050565b6000602082019050818103600083015261392c816138f0565b9050919050565b7f526f79616c7479206d757374206265203c3d2031302500000000000000000000600082015250565b6000613969601683612fda565b915061397482613933565b602082019050919050565b600060208201905081810360008301526139988161395c565b9050919050565b7f4e487b7100000000000000000000000000000000000000000000000000000000600052603260045260246000fd5b6000815190506139dd8161308b565b92915050565b6000602082840312156139f9576139f8612e7f565b5b6000613a07848285016139ce565b91505092915050565b6000613a1b82613081565b9150613a2683613081565b925082613a3657613a35613867565b5b828206905092915050565b600067ffffffffffffffff821115613a5c57613a5b61333b565b5b602082029050602081019050919050565b600080fd5b600067ffffffffffffffff821115613a8d57613a8c61333b565b5b613a9682613015565b9050602081019050919050565b6000613ab6613ab184613a72565b61339b565b905082815260208101848484011115613ad257613ad1613336565b5b613add848285612feb565b509392505050565b600082601f830112613afa57613af9613331565b5b8151613b0a848260208601613aa3565b91505092915050565b6000613b26613b2184613a41565b61339b565b90508083825260208201905060208402830185811115613b4957613b48613a6d565b5b835b81811015613b9057805167ffffffffffffffff811115613b6e57613b6d613331565b5b808601613b7b8982613ae5565b85526020850194505050602081019050613b4b565b5050509392505050565b600082601f830112613baf57613bae613331565b5b8151613bbf848260208601613b13565b91505092915050565b600060208284031215613bde57613bdd612e7f565b5b600082015167ffffffffffffffff811115613bfc57613bfb612e84565b5b613c0884828501613b9a565b91505092915050565b600081519050919050565b600082825260208201905092915050565b6000819050602082019050919050565b600082825260208201905092915050565b6000613c5982612fcf565b613c638185613c3d565b9350613c73818560208601612feb565b613c7c81613015565b840191505092915050565b6000613c938383613c4e565b905092915050565b6000602082019050919050565b6000613cb382613c11565b613cbd8185613c1c565b935083602082028501613ccf85613c2d565b8060005b85811015613d0b5784840389528151613cec8582613c87565b9450613cf783613c9b565b925060208a01995050600181019050613cd3565b50829750879550505050505092915050565b6000604082019050613d32600083018561314e565b8181036020830152613d448184613ca8565b90509392505050565b600060208284031215613d6357613d62612e7f565b5b600082015167ffffffffffffffff811115613d8157613d80612e84565b5b613d8d84828501613ae5565b91505092915050565b600081905092915050565b7f52616e646f6d4172742023000000000000000000000000000000000000000000600082015250565b6000613dd7600b83613d96565b9150613de282613da1565b600b82019050919050565b6000613df882612fcf565b613e028185613d96565b9350613e12818560208601612feb565b80840191505092915050565b6000613e2982613dca565b9150613e358284613ded565b915081905092915050565b7f4f6e636861696e2067656e657261746976652061727400000000000000000000600082015250565b6000613e76601683613d96565b9150613e8182613e40565b601682019050919050565b6000613e9782613e69565b9150819050919050565b6000613eac82613081565b9150613eb783613081565b9250828201905080821115613ecf57613ece613661565b5b92915050565b7f222c202261747472696275746573223a5b000000000000000000000000000000600082015250565b6000613f0b601183613d96565b9150613f1682613ed5565b601182019050919050565b7f7b2274726169745f74797065223a2022436f6c6f722050616c65747465222c2260008201527f76616c7565223a22000000000000000000000000000000000000000000000000602082015250565b6000613f7d602883613d96565b9150613f8882613f21565b602882019050919050565b7f227d2c7b2274726169745f74797065223a20224c6179657273222c2276616c7560008201527f65223a2200000000000000000000000000000000000000000000000000000000602082015250565b6000613fef602483613d96565b9150613ffa82613f93565b602482019050919050565b7f227d2c7b2274726169745f74797065223a2022426f786573222c2276616c756560008201527f223a220000000000000000000000000000000000000000000000000000000000602082015250565b6000614061602383613d96565b915061406c82614005565b602382019050919050565b7f227d2c7b2274726169745f74797065223a2022547269616e676c6573222c227660008201527f616c7565223a2200000000000000000000000000000000000000000000000000602082015250565b60006140d3602783613d96565b91506140de82614077565b602782019050919050565b7f227d2c7b2274726169745f74797065223a2022436972636c6573222c2276616c60008201527f7565223a22000000000000000000000000000000000000000000000000000000602082015250565b6000614145602583613d96565b9150614150826140e9565b602582019050919050565b7f227d000000000000000000000000000000000000000000000000000000000000600082015250565b6000614191600283613d96565b915061419c8261415b565b600282019050919050565b7f5d7d000000000000000000000000000000000000000000000000000000000000600082015250565b60006141dd600283613d96565b91506141e8826141a7565b600282019050919050565b60006141fe82613efe565b915061420982613f70565b91506142158288613ded565b915061422082613fe2565b915061422c8287613ded565b915061423782614054565b91506142438286613ded565b915061424e826140c6565b915061425a8285613ded565b915061426582614138565b91506142718284613ded565b915061427c82614184565b9150614287826141d0565b91508190509695505050505050565b60006142a28284613ded565b915081905092915050565b7f7b226e616d65223a220000000000000000000000000000000000000000000000600082015250565b60006142e3600983613d96565b91506142ee826142ad565b600982019050919050565b7f222c226465736372697074696f6e223a22000000000000000000000000000000600082015250565b600061432f601183613d96565b915061433a826142f9565b601182019050919050565b7f222c22696d616765223a20000000000000000000000000000000000000000000600082015250565b600061437b600b83613d96565b915061438682614345565b600b82019050919050565b7f2200000000000000000000000000000000000000000000000000000000000000600082015250565b60006143c7600183613d96565b91506143d282614391565b600182019050919050565b7f646174613a696d6167652f7376672b786d6c3b757466382c0000000000000000600082015250565b6000614413601883613d96565b915061441e826143dd565b601882019050919050565b600081519050919050565b600081905092915050565b600061444a82614429565b6144548185614434565b9350614464818560208601612feb565b80840191505092915050565b600061447b826142d6565b91506144878287613ded565b915061449282614322565b915061449e8286613ded565b91506144a98261436e565b91506144b4826143ba565b91506144bf82614406565b91506144cb828561443f565b91506144d78284613ded565b915081905095945050505050565b7f646174613a6170706c69636174696f6e2f6a736f6e3b757466382c0000000000600082015250565b600061451b601b83613d96565b9150614526826144e5565b601b82019050919050565b600061453c8261450e565b9150614548828461443f565b915081905092915050565b600081519050614562816132c5565b92915050565b60006020828403121561457e5761457d612e7f565b5b600061458c84828501614553565b91505092915050565b600082825260208201905092915050565b60006145b182614429565b6145bb8185614595565b93506145cb818560208601612feb565b6145d481613015565b840191505092915050565b60006080820190506145f460008301876130e4565b61460160208301866130e4565b61460e604083018561314e565b818103606083015261462081846145a6565b905095945050505050565b60008151905061463a81612eb5565b92915050565b60006020828403121561465657614655612e7f565b5b60006146648482850161462b565b91505092915050565b6000606082019050614682600083018661314e565b61468f602083018561314e565b61469c604083018461314e565b949350505050565b600060ff82169050919050565b60006146bc826146a4565b91506146c7836146a4565b9250828201905060ff8111156146e0576146df613661565b5b92915050565b7f4e487b7100000000000000000000000000000000000000000000000000000000600052603160045260246000fdfea26469706673582212203ad7259b7c582b997206d396d825ef7cb239228b56dd47e64073ed4230e4243364736f6c63430008140033",
  "linkReferences": {},
  "deployedLinkReferences": {}
}